{
  "_format": "hh-sol-artifact-1",
  "contractName": "Drive",
  "sourceName": "contracts/Drive.sol",
  "abi": [
    {
      "inputs": [
        {
          "internalType": "contract IGoriToken",
          "name": "_goriToken",
          "type": "address"
        }
      ],
      "stateMutability": "nonpayable",
      "type": "constructor"
    },
    {
      "anonymous": false,
      "inputs": [
        {
          "indexed": true,
          "internalType": "address",
          "name": "prevOwner",
          "type": "address"
        },
        {
          "indexed": true,
          "internalType": "address",
          "name": "newOwner",
          "type": "address"
        }
      ],
      "name": "OwnerUpdated",
      "type": "event"
    },
    {
      "inputs": [],
      "name": "DistanceBoundary",
      "outputs": [
        {
          "internalType": "uint256",
          "name": "",
          "type": "uint256"
        }
      ],
      "stateMutability": "view",
      "type": "function"
    },
    {
      "inputs": [],
      "name": "DistanceReward",
      "outputs": [
        {
          "internalType": "uint256",
          "name": "",
          "type": "uint256"
        }
      ],
      "stateMutability": "view",
      "type": "function"
    },
    {
      "inputs": [],
      "name": "EcoDriveBoundary",
      "outputs": [
        {
          "internalType": "uint256",
          "name": "",
          "type": "uint256"
        }
      ],
      "stateMutability": "view",
      "type": "function"
    },
    {
      "inputs": [],
      "name": "EcoDriveReward",
      "outputs": [
        {
          "internalType": "uint256",
          "name": "",
          "type": "uint256"
        }
      ],
      "stateMutability": "view",
      "type": "function"
    },
    {
      "inputs": [],
      "name": "RefuelingReward",
      "outputs": [
        {
          "internalType": "uint256",
          "name": "",
          "type": "uint256"
        }
      ],
      "stateMutability": "view",
      "type": "function"
    },
    {
      "inputs": [],
      "name": "SafeDriveBoundary",
      "outputs": [
        {
          "internalType": "uint256",
          "name": "",
          "type": "uint256"
        }
      ],
      "stateMutability": "view",
      "type": "function"
    },
    {
      "inputs": [],
      "name": "SafeDriveReward",
      "outputs": [
        {
          "internalType": "uint256",
          "name": "",
          "type": "uint256"
        }
      ],
      "stateMutability": "view",
      "type": "function"
    },
    {
      "inputs": [],
      "name": "TimeBoundary",
      "outputs": [
        {
          "internalType": "uint256",
          "name": "",
          "type": "uint256"
        }
      ],
      "stateMutability": "view",
      "type": "function"
    },
    {
      "inputs": [],
      "name": "TimeReward",
      "outputs": [
        {
          "internalType": "uint256",
          "name": "",
          "type": "uint256"
        }
      ],
      "stateMutability": "view",
      "type": "function"
    },
    {
      "inputs": [],
      "name": "TokenIdDrivingDistance",
      "outputs": [
        {
          "internalType": "uint256",
          "name": "",
          "type": "uint256"
        }
      ],
      "stateMutability": "view",
      "type": "function"
    },
    {
      "inputs": [],
      "name": "TokenIdDrivingTime",
      "outputs": [
        {
          "internalType": "uint256",
          "name": "",
          "type": "uint256"
        }
      ],
      "stateMutability": "view",
      "type": "function"
    },
    {
      "inputs": [],
      "name": "TokenIdEcoDrive",
      "outputs": [
        {
          "internalType": "uint256",
          "name": "",
          "type": "uint256"
        }
      ],
      "stateMutability": "view",
      "type": "function"
    },
    {
      "inputs": [],
      "name": "TokenIdRefueling",
      "outputs": [
        {
          "internalType": "uint256",
          "name": "",
          "type": "uint256"
        }
      ],
      "stateMutability": "view",
      "type": "function"
    },
    {
      "inputs": [],
      "name": "TokenIdSafeDrive",
      "outputs": [
        {
          "internalType": "uint256",
          "name": "",
          "type": "uint256"
        }
      ],
      "stateMutability": "view",
      "type": "function"
    },
    {
      "inputs": [
        {
          "internalType": "uint256",
          "name": "point",
          "type": "uint256"
        },
        {
          "internalType": "uint256",
          "name": "mintId",
          "type": "uint256"
        }
      ],
      "name": "addLocation",
      "outputs": [],
      "stateMutability": "nonpayable",
      "type": "function"
    },
    {
      "inputs": [
        {
          "internalType": "contract IGoriToken",
          "name": "_goriToken",
          "type": "address"
        }
      ],
      "name": "changeGoriTokenContract",
      "outputs": [],
      "stateMutability": "nonpayable",
      "type": "function"
    },
    {
      "inputs": [],
      "name": "counter",
      "outputs": [
        {
          "internalType": "uint256",
          "name": "",
          "type": "uint256"
        }
      ],
      "stateMutability": "view",
      "type": "function"
    },
    {
      "inputs": [
        {
          "internalType": "address",
          "name": "from",
          "type": "address"
        },
        {
          "internalType": "uint256",
          "name": "ecolevel",
          "type": "uint256"
        },
        {
          "internalType": "uint256",
          "name": "safelevel",
          "type": "uint256"
        },
        {
          "internalType": "uint256",
          "name": "refuelingCount",
          "type": "uint256"
        },
        {
          "internalType": "uint256",
          "name": "distance",
          "type": "uint256"
        },
        {
          "internalType": "uint256",
          "name": "time",
          "type": "uint256"
        },
        {
          "internalType": "uint256[]",
          "name": "_locations",
          "type": "uint256[]"
        }
      ],
      "name": "drivedata",
      "outputs": [],
      "stateMutability": "nonpayable",
      "type": "function"
    },
    {
      "inputs": [],
      "name": "getLocations",
      "outputs": [
        {
          "internalType": "uint256[]",
          "name": "",
          "type": "uint256[]"
        }
      ],
      "stateMutability": "view",
      "type": "function"
    },
    {
      "inputs": [],
      "name": "inc",
      "outputs": [],
      "stateMutability": "nonpayable",
      "type": "function"
    },
    {
      "inputs": [
        {
          "internalType": "uint256",
          "name": "",
          "type": "uint256"
        }
      ],
      "name": "locationKeys",
      "outputs": [
        {
          "internalType": "uint256",
          "name": "",
          "type": "uint256"
        }
      ],
      "stateMutability": "view",
      "type": "function"
    },
    {
      "inputs": [
        {
          "internalType": "uint256",
          "name": "",
          "type": "uint256"
        }
      ],
      "name": "locations",
      "outputs": [
        {
          "internalType": "uint256",
          "name": "",
          "type": "uint256"
        }
      ],
      "stateMutability": "view",
      "type": "function"
    },
    {
      "inputs": [],
      "name": "owner",
      "outputs": [
        {
          "internalType": "address",
          "name": "",
          "type": "address"
        }
      ],
      "stateMutability": "view",
      "type": "function"
    },
    {
      "inputs": [
        {
          "internalType": "address",
          "name": "_newOwner",
          "type": "address"
        }
      ],
      "name": "setOwner",
      "outputs": [],
      "stateMutability": "nonpayable",
      "type": "function"
    }
  ],
  "bytecode": "0x6080604052600060055534801561001557600080fd5b50604051610b41380380610b41833981016040819052610034916100ae565b600480546001600160a01b0319166001600160a01b0383161790556100583361005e565b506100de565b600080546001600160a01b038381166001600160a01b0319831681178455604051919092169283917f8292fce18fa69edf4db7b94ea2e58241df0ae57f97e0a6c9b29067028bf92d769190a35050565b6000602082840312156100c057600080fd5b81516001600160a01b03811681146100d757600080fd5b9392505050565b610a54806100ed6000396000f3fe608060405234801561001057600080fd5b50600436106101585760003560e01c8063b07387d2116100c3578063e3e43f451161007c578063e3e43f4514610269578063e583d2951461015d578063e79edd9f14610271578063ee5897fa14610279578063f8fd908c1461015d578063f96a6bc11461026157600080fd5b8063b07387d214610216578063b9e0db351461021e578063c7f632ce1461023e578063cb76188714610246578063d1e0c3551461024e578063d29e7a981461026157600080fd5b806361bc221a1161011557806361bc221a146101c25780638811f9b0146101cb5780638b9694ad146101de5780638da5cb5b146101e6578063a0b2b7131461015d578063ab63616f1461020157600080fd5b8063020a50a51461015d57806313af40351461017f578063371303c0146101945780634205fb941461019c57806344c7a6911461015d57806350e2304c146101af575b600080fd5b61016c670de0b6b3a764000081565b6040519081526020015b60405180910390f35b61019261018d3660046107a4565b610281565b005b6101926102c0565b61016c6101aa3660046107c8565b6102d3565b6101926101bd3660046107e1565b6102f4565b61016c60055481565b6101926101d9366004610819565b610378565b61016c600281565b6000546040516001600160a01b039091168152602001610176565b61020961069b565b604051610176919061091c565b61016c600181565b61016c61022c3660046107c8565b60016020526000908152604090205481565b61016c604681565b61016c600581565b61019261025c3660046107a4565b6106f3565b61016c606481565b61016c603c81565b61016c600481565b61016c600381565b6000546001600160a01b031633146102b45760405162461bcd60e51b81526004016102ab90610960565b60405180910390fd5b6102bd8161073f565b50565b6005546102ce90600161099e565b600555565b600281815481106102e357600080fd5b600091825260209091200154905081565b6000546001600160a01b0316331461031e5760405162461bcd60e51b81526004016102ab90610960565b6002805460018181019092557f405787fa12a823e0f2b7631cc41b3ba8828b3321ca811111fa75cd3aa3bb5ace01839055600083815260209190915260408120829055600380549161036f836109b7565b91905055505050565b60468511156103ee5760048054604051630ab714fb60e11b81526001600160a01b039091169163156e29f6916103bb918b91670de0b6b3a76400009082016109d0565b600060405180830381600087803b1580156103d557600080fd5b505af11580156103e9573d6000803e3d6000fd5b505050505b603c8611156104665760048054604051630ab714fb60e11b81526001600160a01b039091169163156e29f691610433918b91600291670de0b6b3a764000091016109d0565b600060405180830381600087803b15801561044d57600080fd5b505af1158015610461573d6000803e3d6000fd5b505050505b60648311156104de5760048054604051630ab714fb60e11b81526001600160a01b039091169163156e29f6916104ab918b91600391670de0b6b3a764000091016109d0565b600060405180830381600087803b1580156104c557600080fd5b505af11580156104d9573d6000803e3d6000fd5b505050505b60648211156105565760048054604051630ab714fb60e11b81526001600160a01b039091169163156e29f691610523918b91600191670de0b6b3a764000091016109d0565b600060405180830381600087803b15801561053d57600080fd5b505af1158015610551573d6000803e3d6000fd5b505050505b83156105d3576004546001600160a01b031663156e29f6886005610582670de0b6b3a7640000896109f1565b6040518463ffffffff1660e01b81526004016105a0939291906109d0565b600060405180830381600087803b1580156105ba57600080fd5b505af11580156105ce573d6000803e3d6000fd5b505050505b60005b8151811015610691576000600160008484815181106105f7576105f7610a08565b6020026020010151815260200190815260200160002054905060008111156106805760048054604051630ab714fb60e11b81526001600160a01b039091169163156e29f69161064d918d918691600191016109d0565b600060405180830381600087803b15801561066757600080fd5b505af115801561067b573d6000803e3d6000fd5b505050505b5061068a816109b7565b90506105d6565b5050505050505050565b606060028054806020026020016040519081016040528092919081815260200182805480156106e957602002820191906000526020600020905b8154815260200190600101908083116106d5575b5050505050905090565b6000546001600160a01b0316331461071d5760405162461bcd60e51b81526004016102ab90610960565b600480546001600160a01b0319166001600160a01b0392909216919091179055565b600080546001600160a01b038381166001600160a01b0319831681178455604051919092169283917f8292fce18fa69edf4db7b94ea2e58241df0ae57f97e0a6c9b29067028bf92d769190a35050565b6001600160a01b03811681146102bd57600080fd5b6000602082840312156107b657600080fd5b81356107c18161078f565b9392505050565b6000602082840312156107da57600080fd5b5035919050565b600080604083850312156107f457600080fd5b50508035926020909101359150565b634e487b7160e01b600052604160045260246000fd5b600080600080600080600060e0888a03121561083457600080fd5b873561083f8161078f565b9650602088810135965060408901359550606089013594506080890135935060a0890135925060c089013567ffffffffffffffff8082111561088057600080fd5b818b0191508b601f83011261089457600080fd5b8135818111156108a6576108a6610803565b8060051b604051601f19603f830116810181811085821117156108cb576108cb610803565b60405291825284820192508381018501918e8311156108e957600080fd5b938501935b82851015610907578435845293850193928501926108ee565b80965050505050505092959891949750929550565b6020808252825182820181905260009190848201906040850190845b8181101561095457835183529284019291840191600101610938565b50909695505050505050565b6020808252600e908201526d139bdd08185d5d1a1bdc9a5e995960921b604082015260600190565b634e487b7160e01b600052601160045260246000fd5b808201808211156109b1576109b1610988565b92915050565b6000600182016109c9576109c9610988565b5060010190565b6001600160a01b039390931683526020830191909152604082015260600190565b80820281158282048414176109b1576109b1610988565b634e487b7160e01b600052603260045260246000fdfea2646970667358221220c9827ba56a8a58b8e71531103ef1e93303f6d92ec1893127b5e1f7f9cabdc6c364736f6c63430008110033",
  "linkReferences": {},
  "deployedLinkReferences": {}
}