{
  "_format": "hh-sol-artifact-1",
  "contractName": "Drive",
  "sourceName": "contracts/Drive.sol",
  "abi": [
    {
      "inputs": [
        {
          "internalType": "contract IGoriToken",
          "name": "_goriToken",
          "type": "address"
        }
      ],
      "stateMutability": "nonpayable",
      "type": "constructor"
    },
    {
      "anonymous": false,
      "inputs": [
        {
          "indexed": true,
          "internalType": "address",
          "name": "prevOwner",
          "type": "address"
        },
        {
          "indexed": true,
          "internalType": "address",
          "name": "newOwner",
          "type": "address"
        }
      ],
      "name": "OwnerUpdated",
      "type": "event"
    },
    {
      "inputs": [],
      "name": "DistanceBoundary",
      "outputs": [
        {
          "internalType": "uint256",
          "name": "",
          "type": "uint256"
        }
      ],
      "stateMutability": "view",
      "type": "function"
    },
    {
      "inputs": [],
      "name": "DistanceReward",
      "outputs": [
        {
          "internalType": "uint256",
          "name": "",
          "type": "uint256"
        }
      ],
      "stateMutability": "view",
      "type": "function"
    },
    {
      "inputs": [],
      "name": "EcoDriveBoundary",
      "outputs": [
        {
          "internalType": "uint256",
          "name": "",
          "type": "uint256"
        }
      ],
      "stateMutability": "view",
      "type": "function"
    },
    {
      "inputs": [],
      "name": "EcoDriveReward",
      "outputs": [
        {
          "internalType": "uint256",
          "name": "",
          "type": "uint256"
        }
      ],
      "stateMutability": "view",
      "type": "function"
    },
    {
      "inputs": [],
      "name": "RefuelingReward",
      "outputs": [
        {
          "internalType": "uint256",
          "name": "",
          "type": "uint256"
        }
      ],
      "stateMutability": "view",
      "type": "function"
    },
    {
      "inputs": [],
      "name": "SafeDriveBoundary",
      "outputs": [
        {
          "internalType": "uint256",
          "name": "",
          "type": "uint256"
        }
      ],
      "stateMutability": "view",
      "type": "function"
    },
    {
      "inputs": [],
      "name": "SafeDriveReward",
      "outputs": [
        {
          "internalType": "uint256",
          "name": "",
          "type": "uint256"
        }
      ],
      "stateMutability": "view",
      "type": "function"
    },
    {
      "inputs": [],
      "name": "TimeBoundary",
      "outputs": [
        {
          "internalType": "uint256",
          "name": "",
          "type": "uint256"
        }
      ],
      "stateMutability": "view",
      "type": "function"
    },
    {
      "inputs": [],
      "name": "TimeReward",
      "outputs": [
        {
          "internalType": "uint256",
          "name": "",
          "type": "uint256"
        }
      ],
      "stateMutability": "view",
      "type": "function"
    },
    {
      "inputs": [],
      "name": "TokenIdDrivingDistance",
      "outputs": [
        {
          "internalType": "uint256",
          "name": "",
          "type": "uint256"
        }
      ],
      "stateMutability": "view",
      "type": "function"
    },
    {
      "inputs": [],
      "name": "TokenIdDrivingTime",
      "outputs": [
        {
          "internalType": "uint256",
          "name": "",
          "type": "uint256"
        }
      ],
      "stateMutability": "view",
      "type": "function"
    },
    {
      "inputs": [],
      "name": "TokenIdEcoDrive",
      "outputs": [
        {
          "internalType": "uint256",
          "name": "",
          "type": "uint256"
        }
      ],
      "stateMutability": "view",
      "type": "function"
    },
    {
      "inputs": [],
      "name": "TokenIdRefueling",
      "outputs": [
        {
          "internalType": "uint256",
          "name": "",
          "type": "uint256"
        }
      ],
      "stateMutability": "view",
      "type": "function"
    },
    {
      "inputs": [],
      "name": "TokenIdSafeDrive",
      "outputs": [
        {
          "internalType": "uint256",
          "name": "",
          "type": "uint256"
        }
      ],
      "stateMutability": "view",
      "type": "function"
    },
    {
      "inputs": [
        {
          "internalType": "uint256",
          "name": "point",
          "type": "uint256"
        },
        {
          "internalType": "uint256",
          "name": "mintId",
          "type": "uint256"
        }
      ],
      "name": "addLocation",
      "outputs": [],
      "stateMutability": "nonpayable",
      "type": "function"
    },
    {
      "inputs": [
        {
          "internalType": "contract IGoriToken",
          "name": "_goriToken",
          "type": "address"
        }
      ],
      "name": "changeGoriTokenContract",
      "outputs": [],
      "stateMutability": "nonpayable",
      "type": "function"
    },
    {
      "inputs": [
        {
          "internalType": "uint256",
          "name": "ecolevel",
          "type": "uint256"
        },
        {
          "internalType": "uint256",
          "name": "safelevel",
          "type": "uint256"
        },
        {
          "internalType": "uint256",
          "name": "refuelingCount",
          "type": "uint256"
        },
        {
          "internalType": "uint256",
          "name": "distance",
          "type": "uint256"
        },
        {
          "internalType": "uint256",
          "name": "time",
          "type": "uint256"
        },
        {
          "internalType": "uint256[]",
          "name": "_locations",
          "type": "uint256[]"
        }
      ],
      "name": "drivedata",
      "outputs": [],
      "stateMutability": "nonpayable",
      "type": "function"
    },
    {
      "inputs": [],
      "name": "getLocations",
      "outputs": [
        {
          "internalType": "uint256[]",
          "name": "",
          "type": "uint256[]"
        }
      ],
      "stateMutability": "view",
      "type": "function"
    },
    {
      "inputs": [
        {
          "internalType": "uint256",
          "name": "",
          "type": "uint256"
        }
      ],
      "name": "locationKeys",
      "outputs": [
        {
          "internalType": "uint256",
          "name": "",
          "type": "uint256"
        }
      ],
      "stateMutability": "view",
      "type": "function"
    },
    {
      "inputs": [
        {
          "internalType": "uint256",
          "name": "",
          "type": "uint256"
        }
      ],
      "name": "locations",
      "outputs": [
        {
          "internalType": "uint256",
          "name": "",
          "type": "uint256"
        }
      ],
      "stateMutability": "view",
      "type": "function"
    },
    {
      "inputs": [],
      "name": "owner",
      "outputs": [
        {
          "internalType": "address",
          "name": "",
          "type": "address"
        }
      ],
      "stateMutability": "view",
      "type": "function"
    },
    {
      "inputs": [
        {
          "internalType": "address",
          "name": "_newOwner",
          "type": "address"
        }
      ],
      "name": "setOwner",
      "outputs": [],
      "stateMutability": "nonpayable",
      "type": "function"
    }
  ],
  "bytecode": "0x608060405234801561001057600080fd5b50604051610b81380380610b8183398101604081905261002f916100a9565b600480546001600160a01b0319166001600160a01b03831617905561005333610059565b506100d9565b600080546001600160a01b038381166001600160a01b0319831681178455604051919092169283917f8292fce18fa69edf4db7b94ea2e58241df0ae57f97e0a6c9b29067028bf92d769190a35050565b6000602082840312156100bb57600080fd5b81516001600160a01b03811681146100d257600080fd5b9392505050565b610a99806100e86000396000f3fe608060405234801561001057600080fd5b50600436106101425760003560e01c8063c055eb60116100b8578063e3e43f451161007c578063e3e43f4514610251578063e583d29514610147578063e79edd9f14610259578063ee5897fa14610261578063f8fd908c146101c7578063f96a6bc11461024957600080fd5b8063c055eb6014610213578063c7f632ce14610226578063cb7618871461022e578063d1e0c35514610236578063d29e7a981461024957600080fd5b80638b9694ad1161010a5780638b9694ad146101a45780638da5cb5b146101ac578063a0b2b713146101c7578063ab63616f146101d6578063b07387d2146101eb578063b9e0db35146101f357600080fd5b8063020a50a51461014757806313af4035146101695780634205fb941461017e57806344c7a6911461014757806350e2304c14610191575b600080fd5b610156670de0b6b3a764000081565b6040519081526020015b60405180910390f35b61017c6101773660046107fa565b610269565b005b61015661018c36600461081e565b6102a8565b61017c61019f366004610837565b6102c9565b610156600281565b6000546040516001600160a01b039091168152602001610160565b61015667016345785d8a000081565b6101de61034d565b6040516101609190610859565b610156600181565b61015661020136600461081e565b60016020526000908152604090205481565b61017c6102213660046108b3565b6103a5565b610156604681565b610156600581565b61017c6102443660046107fa565b610715565b610156600a81565b610156603c81565b610156600481565b610156600381565b6000546001600160a01b0316331461029c5760405162461bcd60e51b8152600401610293906109a2565b60405180910390fd5b6102a581610761565b50565b600281815481106102b857600080fd5b600091825260209091200154905081565b6000546001600160a01b031633146102f35760405162461bcd60e51b8152600401610293906109a2565b6002805460018181019092557f405787fa12a823e0f2b7631cc41b3ba8828b3321ca811111fa75cd3aa3bb5ace018390556000838152602091909152604081208290556003805491610344836109e0565b91905055505050565b6060600280548060200260200160405190810160405280929190818152602001828054801561039b57602002820191906000526020600020905b815481526020019060010190808311610387575b5050505050905090565b604685111561041b5760048054604051630ab714fb60e11b81526001600160a01b039091169163156e29f6916103e8913391670de0b6b3a76400009082016109f9565b600060405180830381600087803b15801561040257600080fd5b505af1158015610416573d6000803e3d6000fd5b505050505b603c8611156104935760048054604051630ab714fb60e11b81526001600160a01b039091169163156e29f691610460913391600291670de0b6b3a764000091016109f9565b600060405180830381600087803b15801561047a57600080fd5b505af115801561048e573d6000803e3d6000fd5b505050505b6000806104a185600a6107b1565b9150915081156105305760006104bf67016345785d8a000083610a1a565b9050801561052e5760048054604051630ab714fb60e11b81526001600160a01b039091169163156e29f6916104fb9133916003918791016109f9565b600060405180830381600087803b15801561051557600080fd5b505af1158015610529573d6000803e3d6000fd5b505050505b505b505060008061054084600a6107b1565b9150915081156105cf57600061055e67016345785d8a000083610a1a565b905080156105cd5760048054604051630ab714fb60e11b81526001600160a01b039091169163156e29f69161059a9133916001918791016109f9565b600060405180830381600087803b1580156105b457600080fd5b505af11580156105c8573d6000803e3d6000fd5b505050505b505b5050831561064e576004546001600160a01b031663156e29f63360056105fd670de0b6b3a764000089610a1a565b6040518463ffffffff1660e01b815260040161061b939291906109f9565b600060405180830381600087803b15801561063557600080fd5b505af1158015610649573d6000803e3d6000fd5b505050505b60005b815181101561070c5760006001600084848151811061067257610672610a37565b6020026020010151815260200190815260200160002054905060008111156106fb5760048054604051630ab714fb60e11b81526001600160a01b039091169163156e29f6916106c89133918691600191016109f9565b600060405180830381600087803b1580156106e257600080fd5b505af11580156106f6573d6000803e3d6000fd5b505050505b50610705816109e0565b9050610651565b50505050505050565b6000546001600160a01b0316331461073f5760405162461bcd60e51b8152600401610293906109a2565b600480546001600160a01b0319166001600160a01b0392909216919091179055565b600080546001600160a01b038381166001600160a01b0319831681178455604051919092169283917f8292fce18fa69edf4db7b94ea2e58241df0ae57f97e0a6c9b29067028bf92d769190a35050565b600080826000036107c7575060009050806107de565b60018385816107d8576107d8610a4d565b04915091505b9250929050565b6001600160a01b03811681146102a557600080fd5b60006020828403121561080c57600080fd5b8135610817816107e5565b9392505050565b60006020828403121561083057600080fd5b5035919050565b6000806040838503121561084a57600080fd5b50508035926020909101359150565b6020808252825182820181905260009190848201906040850190845b8181101561089157835183529284019291840191600101610875565b50909695505050505050565b634e487b7160e01b600052604160045260246000fd5b60008060008060008060c087890312156108cc57600080fd5b86359550602080880135955060408801359450606088013593506080880135925060a088013567ffffffffffffffff8082111561090857600080fd5b818a0191508a601f83011261091c57600080fd5b81358181111561092e5761092e61089d565b8060051b604051601f19603f830116810181811085821117156109535761095361089d565b60405291825284820192508381018501918d83111561097157600080fd5b938501935b8285101561098f57843584529385019392850192610976565b8096505050505050509295509295509295565b6020808252600e908201526d139bdd08185d5d1a1bdc9a5e995960921b604082015260600190565b634e487b7160e01b600052601160045260246000fd5b6000600182016109f2576109f26109ca565b5060010190565b6001600160a01b039390931683526020830191909152604082015260600190565b8082028115828204841417610a3157610a316109ca565b92915050565b634e487b7160e01b600052603260045260246000fd5b634e487b7160e01b600052601260045260246000fdfea2646970667358221220eac962cde9f8179191bbd90a0b5fadb42c18ac57bab77bc5181a56ba933bc5c564736f6c63430008110033",
  "linkReferences": {},
  "deployedLinkReferences": {}
}