{
  "_format": "hh-sol-artifact-1",
  "contractName": "Drive",
  "sourceName": "contracts/Drive.sol",
  "abi": [
    {
      "inputs": [
        {
          "internalType": "contract IGoriToken",
          "name": "_goriToken",
          "type": "address"
        }
      ],
      "stateMutability": "nonpayable",
      "type": "constructor"
    },
    {
      "anonymous": false,
      "inputs": [
        {
          "indexed": true,
          "internalType": "address",
          "name": "prevOwner",
          "type": "address"
        },
        {
          "indexed": true,
          "internalType": "address",
          "name": "newOwner",
          "type": "address"
        }
      ],
      "name": "OwnerUpdated",
      "type": "event"
    },
    {
      "inputs": [],
      "name": "DistanceBoundary",
      "outputs": [
        {
          "internalType": "uint256",
          "name": "",
          "type": "uint256"
        }
      ],
      "stateMutability": "view",
      "type": "function"
    },
    {
      "inputs": [],
      "name": "DistanceReward",
      "outputs": [
        {
          "internalType": "uint256",
          "name": "",
          "type": "uint256"
        }
      ],
      "stateMutability": "view",
      "type": "function"
    },
    {
      "inputs": [],
      "name": "EcoDriveBoundary",
      "outputs": [
        {
          "internalType": "uint256",
          "name": "",
          "type": "uint256"
        }
      ],
      "stateMutability": "view",
      "type": "function"
    },
    {
      "inputs": [],
      "name": "EcoDriveReward",
      "outputs": [
        {
          "internalType": "uint256",
          "name": "",
          "type": "uint256"
        }
      ],
      "stateMutability": "view",
      "type": "function"
    },
    {
      "inputs": [],
      "name": "RefuelingReward",
      "outputs": [
        {
          "internalType": "uint256",
          "name": "",
          "type": "uint256"
        }
      ],
      "stateMutability": "view",
      "type": "function"
    },
    {
      "inputs": [],
      "name": "SafeDriveBoundary",
      "outputs": [
        {
          "internalType": "uint256",
          "name": "",
          "type": "uint256"
        }
      ],
      "stateMutability": "view",
      "type": "function"
    },
    {
      "inputs": [],
      "name": "SafeDriveReward",
      "outputs": [
        {
          "internalType": "uint256",
          "name": "",
          "type": "uint256"
        }
      ],
      "stateMutability": "view",
      "type": "function"
    },
    {
      "inputs": [],
      "name": "TimeBoundary",
      "outputs": [
        {
          "internalType": "uint256",
          "name": "",
          "type": "uint256"
        }
      ],
      "stateMutability": "view",
      "type": "function"
    },
    {
      "inputs": [],
      "name": "TimeReward",
      "outputs": [
        {
          "internalType": "uint256",
          "name": "",
          "type": "uint256"
        }
      ],
      "stateMutability": "view",
      "type": "function"
    },
    {
      "inputs": [],
      "name": "TokenIdDrivingDistance",
      "outputs": [
        {
          "internalType": "uint256",
          "name": "",
          "type": "uint256"
        }
      ],
      "stateMutability": "view",
      "type": "function"
    },
    {
      "inputs": [],
      "name": "TokenIdDrivingTime",
      "outputs": [
        {
          "internalType": "uint256",
          "name": "",
          "type": "uint256"
        }
      ],
      "stateMutability": "view",
      "type": "function"
    },
    {
      "inputs": [],
      "name": "TokenIdEcoDrive",
      "outputs": [
        {
          "internalType": "uint256",
          "name": "",
          "type": "uint256"
        }
      ],
      "stateMutability": "view",
      "type": "function"
    },
    {
      "inputs": [],
      "name": "TokenIdRefueling",
      "outputs": [
        {
          "internalType": "uint256",
          "name": "",
          "type": "uint256"
        }
      ],
      "stateMutability": "view",
      "type": "function"
    },
    {
      "inputs": [],
      "name": "TokenIdSafeDrive",
      "outputs": [
        {
          "internalType": "uint256",
          "name": "",
          "type": "uint256"
        }
      ],
      "stateMutability": "view",
      "type": "function"
    },
    {
      "inputs": [
        {
          "internalType": "uint256",
          "name": "point",
          "type": "uint256"
        },
        {
          "internalType": "uint256",
          "name": "mintId",
          "type": "uint256"
        }
      ],
      "name": "addLocation",
      "outputs": [],
      "stateMutability": "nonpayable",
      "type": "function"
    },
    {
      "inputs": [
        {
          "internalType": "contract IGoriToken",
          "name": "_goriToken",
          "type": "address"
        }
      ],
      "name": "changeGoriTokenContract",
      "outputs": [],
      "stateMutability": "nonpayable",
      "type": "function"
    },
    {
      "inputs": [
        {
          "internalType": "address",
          "name": "from",
          "type": "address"
        },
        {
          "internalType": "uint256",
          "name": "location",
          "type": "uint256"
        }
      ],
      "name": "checkin",
      "outputs": [],
      "stateMutability": "nonpayable",
      "type": "function"
    },
    {
      "inputs": [
        {
          "internalType": "address",
          "name": "from",
          "type": "address"
        },
        {
          "internalType": "uint256",
          "name": "ecolevel",
          "type": "uint256"
        },
        {
          "internalType": "uint256",
          "name": "safelevel",
          "type": "uint256"
        },
        {
          "internalType": "uint256",
          "name": "refuelingCount",
          "type": "uint256"
        },
        {
          "internalType": "uint256",
          "name": "distance",
          "type": "uint256"
        },
        {
          "internalType": "uint256",
          "name": "time",
          "type": "uint256"
        },
        {
          "internalType": "uint256[]",
          "name": "_locations",
          "type": "uint256[]"
        }
      ],
      "name": "drivedata",
      "outputs": [],
      "stateMutability": "nonpayable",
      "type": "function"
    },
    {
      "inputs": [],
      "name": "getLocations",
      "outputs": [
        {
          "internalType": "uint256[]",
          "name": "",
          "type": "uint256[]"
        }
      ],
      "stateMutability": "view",
      "type": "function"
    },
    {
      "inputs": [
        {
          "internalType": "uint256",
          "name": "",
          "type": "uint256"
        }
      ],
      "name": "locationKeys",
      "outputs": [
        {
          "internalType": "uint256",
          "name": "",
          "type": "uint256"
        }
      ],
      "stateMutability": "view",
      "type": "function"
    },
    {
      "inputs": [
        {
          "internalType": "uint256",
          "name": "",
          "type": "uint256"
        }
      ],
      "name": "locations",
      "outputs": [
        {
          "internalType": "uint256",
          "name": "",
          "type": "uint256"
        }
      ],
      "stateMutability": "view",
      "type": "function"
    },
    {
      "inputs": [],
      "name": "owner",
      "outputs": [
        {
          "internalType": "address",
          "name": "",
          "type": "address"
        }
      ],
      "stateMutability": "view",
      "type": "function"
    },
    {
      "inputs": [
        {
          "internalType": "address",
          "name": "_newOwner",
          "type": "address"
        }
      ],
      "name": "setOwner",
      "outputs": [],
      "stateMutability": "nonpayable",
      "type": "function"
    }
  ],
  "bytecode": "0x608060405234801561001057600080fd5b50604051610bba380380610bba83398101604081905261002f916100a9565b600480546001600160a01b0319166001600160a01b03831617905561005333610059565b506100d9565b600080546001600160a01b038381166001600160a01b0319831681178455604051919092169283917f8292fce18fa69edf4db7b94ea2e58241df0ae57f97e0a6c9b29067028bf92d769190a35050565b6000602082840312156100bb57600080fd5b81516001600160a01b03811681146100d257600080fd5b9392505050565b610ad2806100e86000396000f3fe608060405234801561001057600080fd5b506004361061014d5760003560e01c8063b07387d2116100c3578063e3e43f451161007c578063e3e43f4514610260578063e583d29514610152578063e79edd9f14610268578063ee5897fa14610270578063f8fd908c14610152578063f96a6bc11461025857600080fd5b8063b07387d21461020d578063b9e0db3514610215578063c7f632ce14610235578063cb7618871461023d578063d1e0c35514610245578063d29e7a981461025857600080fd5b80637b0e79e4116101155780637b0e79e4146101af5780638811f9b0146101c25780638b9694ad146101d55780638da5cb5b146101dd578063a0b2b71314610152578063ab63616f146101f857600080fd5b8063020a50a51461015257806313af4035146101745780634205fb941461018957806344c7a6911461015257806350e2304c1461019c575b600080fd5b610161670de0b6b3a764000081565b6040519081526020015b60405180910390f35b610187610182366004610809565b610278565b005b61016161019736600461082d565b6102b7565b6101876101aa366004610846565b6102d8565b6101876101bd366004610868565b61035c565b6101876101d03660046108aa565b6103dd565b610161600281565b6000546040516001600160a01b03909116815260200161016b565b610200610700565b60405161016b91906109ad565b610161600181565b61016161022336600461082d565b60016020526000908152604090205481565b610161604681565b610161600581565b610187610253366004610809565b610758565b610161606481565b610161603c81565b610161600481565b610161600381565b6000546001600160a01b031633146102ab5760405162461bcd60e51b81526004016102a2906109f1565b60405180910390fd5b6102b4816107a4565b50565b600281815481106102c757600080fd5b600091825260209091200154905081565b6000546001600160a01b031633146103025760405162461bcd60e51b81526004016102a2906109f1565b6002805460018181019092557f405787fa12a823e0f2b7631cc41b3ba8828b3321ca811111fa75cd3aa3bb5ace01839055600083815260209190915260408120829055600380549161035383610a2f565b91905055505050565b60008181526001602052604090205480156103d85760048054604051630ab714fb60e11b81526001600160a01b039091169163156e29f6916103a5918791869160019101610a48565b600060405180830381600087803b1580156103bf57600080fd5b505af11580156103d3573d6000803e3d6000fd5b505050505b505050565b60468511156104535760048054604051630ab714fb60e11b81526001600160a01b039091169163156e29f691610420918b91670de0b6b3a7640000908201610a48565b600060405180830381600087803b15801561043a57600080fd5b505af115801561044e573d6000803e3d6000fd5b505050505b603c8611156104cb5760048054604051630ab714fb60e11b81526001600160a01b039091169163156e29f691610498918b91600291670de0b6b3a76400009101610a48565b600060405180830381600087803b1580156104b257600080fd5b505af11580156104c6573d6000803e3d6000fd5b505050505b60648311156105435760048054604051630ab714fb60e11b81526001600160a01b039091169163156e29f691610510918b91600391670de0b6b3a76400009101610a48565b600060405180830381600087803b15801561052a57600080fd5b505af115801561053e573d6000803e3d6000fd5b505050505b60648211156105bb5760048054604051630ab714fb60e11b81526001600160a01b039091169163156e29f691610588918b91600191670de0b6b3a76400009101610a48565b600060405180830381600087803b1580156105a257600080fd5b505af11580156105b6573d6000803e3d6000fd5b505050505b8315610638576004546001600160a01b031663156e29f68860056105e7670de0b6b3a764000089610a69565b6040518463ffffffff1660e01b815260040161060593929190610a48565b600060405180830381600087803b15801561061f57600080fd5b505af1158015610633573d6000803e3d6000fd5b505050505b60005b81518110156106f65760006001600084848151811061065c5761065c610a86565b6020026020010151815260200190815260200160002054905060008111156106e55760048054604051630ab714fb60e11b81526001600160a01b039091169163156e29f6916106b2918d91869160019101610a48565b600060405180830381600087803b1580156106cc57600080fd5b505af11580156106e0573d6000803e3d6000fd5b505050505b506106ef81610a2f565b905061063b565b5050505050505050565b6060600280548060200260200160405190810160405280929190818152602001828054801561074e57602002820191906000526020600020905b81548152602001906001019080831161073a575b5050505050905090565b6000546001600160a01b031633146107825760405162461bcd60e51b81526004016102a2906109f1565b600480546001600160a01b0319166001600160a01b0392909216919091179055565b600080546001600160a01b038381166001600160a01b0319831681178455604051919092169283917f8292fce18fa69edf4db7b94ea2e58241df0ae57f97e0a6c9b29067028bf92d769190a35050565b6001600160a01b03811681146102b457600080fd5b60006020828403121561081b57600080fd5b8135610826816107f4565b9392505050565b60006020828403121561083f57600080fd5b5035919050565b6000806040838503121561085957600080fd5b50508035926020909101359150565b6000806040838503121561087b57600080fd5b8235610886816107f4565b946020939093013593505050565b634e487b7160e01b600052604160045260246000fd5b600080600080600080600060e0888a0312156108c557600080fd5b87356108d0816107f4565b9650602088810135965060408901359550606089013594506080890135935060a0890135925060c089013567ffffffffffffffff8082111561091157600080fd5b818b0191508b601f83011261092557600080fd5b81358181111561093757610937610894565b8060051b604051601f19603f8301168101818110858211171561095c5761095c610894565b60405291825284820192508381018501918e83111561097a57600080fd5b938501935b828510156109985784358452938501939285019261097f565b80965050505050505092959891949750929550565b6020808252825182820181905260009190848201906040850190845b818110156109e5578351835292840192918401916001016109c9565b50909695505050505050565b6020808252600e908201526d139bdd08185d5d1a1bdc9a5e995960921b604082015260600190565b634e487b7160e01b600052601160045260246000fd5b600060018201610a4157610a41610a19565b5060010190565b6001600160a01b039390931683526020830191909152604082015260600190565b8082028115828204841417610a8057610a80610a19565b92915050565b634e487b7160e01b600052603260045260246000fdfea26469706673582212201aa8316298422b9fe208fe174786081f750c70c4ecf5a8f279b8880649e2768364736f6c63430008110033",
  "linkReferences": {},
  "deployedLinkReferences": {}
}