{
  "_format": "hh-sol-artifact-1",
  "contractName": "GoriToken",
  "sourceName": "contracts/GoriToken.sol",
  "abi": [
    {
      "inputs": [
        {
          "internalType": "address",
          "name": "_defaultAdmin",
          "type": "address"
        },
        {
          "internalType": "string",
          "name": "_name",
          "type": "string"
        },
        {
          "internalType": "string",
          "name": "_symbol",
          "type": "string"
        },
        {
          "internalType": "address",
          "name": "_royaltyRecipient",
          "type": "address"
        },
        {
          "internalType": "uint128",
          "name": "_royaltyBps",
          "type": "uint128"
        }
      ],
      "stateMutability": "nonpayable",
      "type": "constructor"
    },
    {
      "anonymous": false,
      "inputs": [
        {
          "indexed": true,
          "internalType": "address",
          "name": "_owner",
          "type": "address"
        },
        {
          "indexed": true,
          "internalType": "address",
          "name": "_operator",
          "type": "address"
        },
        {
          "indexed": false,
          "internalType": "bool",
          "name": "_approved",
          "type": "bool"
        }
      ],
      "name": "ApprovalForAll",
      "type": "event"
    },
    {
      "anonymous": false,
      "inputs": [
        {
          "indexed": false,
          "internalType": "uint256",
          "name": "_fromTokenId",
          "type": "uint256"
        },
        {
          "indexed": false,
          "internalType": "uint256",
          "name": "_toTokenId",
          "type": "uint256"
        }
      ],
      "name": "BatchMetadataUpdate",
      "type": "event"
    },
    {
      "anonymous": false,
      "inputs": [
        {
          "indexed": false,
          "internalType": "address",
          "name": "owner",
          "type": "address"
        },
        {
          "indexed": false,
          "internalType": "uint256",
          "name": "location",
          "type": "uint256"
        },
        {
          "indexed": false,
          "internalType": "uint256",
          "name": "completedAt",
          "type": "uint256"
        }
      ],
      "name": "CompleteStayGori",
      "type": "event"
    },
    {
      "anonymous": false,
      "inputs": [
        {
          "indexed": false,
          "internalType": "string",
          "name": "prevURI",
          "type": "string"
        },
        {
          "indexed": false,
          "internalType": "string",
          "name": "newURI",
          "type": "string"
        }
      ],
      "name": "ContractURIUpdated",
      "type": "event"
    },
    {
      "anonymous": false,
      "inputs": [
        {
          "indexed": true,
          "internalType": "address",
          "name": "newRoyaltyRecipient",
          "type": "address"
        },
        {
          "indexed": false,
          "internalType": "uint256",
          "name": "newRoyaltyBps",
          "type": "uint256"
        }
      ],
      "name": "DefaultRoyalty",
      "type": "event"
    },
    {
      "anonymous": false,
      "inputs": [
        {
          "indexed": false,
          "internalType": "address",
          "name": "owner",
          "type": "address"
        },
        {
          "indexed": false,
          "internalType": "uint256",
          "name": "tokenID",
          "type": "uint256"
        }
      ],
      "name": "EquipmentMinted",
      "type": "event"
    },
    {
      "anonymous": false,
      "inputs": [
        {
          "indexed": false,
          "internalType": "address",
          "name": "owner",
          "type": "address"
        },
        {
          "indexed": false,
          "internalType": "uint256",
          "name": "location",
          "type": "uint256"
        },
        {
          "indexed": false,
          "internalType": "uint256",
          "name": "escapedAt",
          "type": "uint256"
        }
      ],
      "name": "EscapeGori",
      "type": "event"
    },
    {
      "anonymous": false,
      "inputs": [
        {
          "indexed": false,
          "internalType": "uint8",
          "name": "version",
          "type": "uint8"
        }
      ],
      "name": "Initialized",
      "type": "event"
    },
    {
      "anonymous": false,
      "inputs": [],
      "name": "MetadataFrozen",
      "type": "event"
    },
    {
      "anonymous": false,
      "inputs": [
        {
          "indexed": true,
          "internalType": "address",
          "name": "prevOwner",
          "type": "address"
        },
        {
          "indexed": true,
          "internalType": "address",
          "name": "newOwner",
          "type": "address"
        }
      ],
      "name": "OwnerUpdated",
      "type": "event"
    },
    {
      "anonymous": false,
      "inputs": [
        {
          "indexed": false,
          "internalType": "address",
          "name": "owner",
          "type": "address"
        }
      ],
      "name": "PartnerMinted",
      "type": "event"
    },
    {
      "anonymous": false,
      "inputs": [
        {
          "indexed": true,
          "internalType": "uint256",
          "name": "tokenId",
          "type": "uint256"
        },
        {
          "indexed": true,
          "internalType": "address",
          "name": "royaltyRecipient",
          "type": "address"
        },
        {
          "indexed": false,
          "internalType": "uint256",
          "name": "royaltyBps",
          "type": "uint256"
        }
      ],
      "name": "RoyaltyForToken",
      "type": "event"
    },
    {
      "anonymous": false,
      "inputs": [
        {
          "indexed": false,
          "internalType": "address",
          "name": "owner",
          "type": "address"
        },
        {
          "indexed": false,
          "internalType": "string",
          "name": "imageUri",
          "type": "string"
        },
        {
          "indexed": false,
          "internalType": "uint256",
          "name": "period",
          "type": "uint256"
        },
        {
          "indexed": false,
          "internalType": "uint256",
          "name": "createdAt",
          "type": "uint256"
        },
        {
          "indexed": false,
          "internalType": "bool",
          "name": "registerd",
          "type": "bool"
        },
        {
          "indexed": false,
          "internalType": "uint256",
          "name": "location",
          "type": "uint256"
        },
        {
          "indexed": false,
          "internalType": "uint256",
          "name": "tokenId",
          "type": "uint256"
        }
      ],
      "name": "StayGoriMinted",
      "type": "event"
    },
    {
      "anonymous": false,
      "inputs": [
        {
          "indexed": true,
          "internalType": "address",
          "name": "_operator",
          "type": "address"
        },
        {
          "indexed": true,
          "internalType": "address",
          "name": "_from",
          "type": "address"
        },
        {
          "indexed": true,
          "internalType": "address",
          "name": "_to",
          "type": "address"
        },
        {
          "indexed": false,
          "internalType": "uint256[]",
          "name": "_ids",
          "type": "uint256[]"
        },
        {
          "indexed": false,
          "internalType": "uint256[]",
          "name": "_values",
          "type": "uint256[]"
        }
      ],
      "name": "TransferBatch",
      "type": "event"
    },
    {
      "anonymous": false,
      "inputs": [
        {
          "indexed": true,
          "internalType": "address",
          "name": "_operator",
          "type": "address"
        },
        {
          "indexed": true,
          "internalType": "address",
          "name": "_from",
          "type": "address"
        },
        {
          "indexed": true,
          "internalType": "address",
          "name": "_to",
          "type": "address"
        },
        {
          "indexed": false,
          "internalType": "uint256",
          "name": "_id",
          "type": "uint256"
        },
        {
          "indexed": false,
          "internalType": "uint256",
          "name": "_value",
          "type": "uint256"
        }
      ],
      "name": "TransferSingle",
      "type": "event"
    },
    {
      "anonymous": false,
      "inputs": [
        {
          "indexed": false,
          "internalType": "string",
          "name": "_value",
          "type": "string"
        },
        {
          "indexed": true,
          "internalType": "uint256",
          "name": "_id",
          "type": "uint256"
        }
      ],
      "name": "URI",
      "type": "event"
    },
    {
      "inputs": [],
      "name": "TokenIdDrivingDistance",
      "outputs": [
        {
          "internalType": "uint256",
          "name": "",
          "type": "uint256"
        }
      ],
      "stateMutability": "view",
      "type": "function"
    },
    {
      "inputs": [],
      "name": "TokenIdDrivingTime",
      "outputs": [
        {
          "internalType": "uint256",
          "name": "",
          "type": "uint256"
        }
      ],
      "stateMutability": "view",
      "type": "function"
    },
    {
      "inputs": [],
      "name": "TokenIdEcoDrive",
      "outputs": [
        {
          "internalType": "uint256",
          "name": "",
          "type": "uint256"
        }
      ],
      "stateMutability": "view",
      "type": "function"
    },
    {
      "inputs": [],
      "name": "TokenIdEquipmentMAX",
      "outputs": [
        {
          "internalType": "uint256",
          "name": "",
          "type": "uint256"
        }
      ],
      "stateMutability": "view",
      "type": "function"
    },
    {
      "inputs": [],
      "name": "TokenIdEquipmentMIN",
      "outputs": [
        {
          "internalType": "uint256",
          "name": "",
          "type": "uint256"
        }
      ],
      "stateMutability": "view",
      "type": "function"
    },
    {
      "inputs": [],
      "name": "TokenIdPartnerGori",
      "outputs": [
        {
          "internalType": "uint256",
          "name": "",
          "type": "uint256"
        }
      ],
      "stateMutability": "view",
      "type": "function"
    },
    {
      "inputs": [],
      "name": "TokenIdRefueling",
      "outputs": [
        {
          "internalType": "uint256",
          "name": "",
          "type": "uint256"
        }
      ],
      "stateMutability": "view",
      "type": "function"
    },
    {
      "inputs": [],
      "name": "TokenIdSafeDrive",
      "outputs": [
        {
          "internalType": "uint256",
          "name": "",
          "type": "uint256"
        }
      ],
      "stateMutability": "view",
      "type": "function"
    },
    {
      "inputs": [],
      "name": "TokenIdStayGori",
      "outputs": [
        {
          "internalType": "uint256",
          "name": "",
          "type": "uint256"
        }
      ],
      "stateMutability": "view",
      "type": "function"
    },
    {
      "inputs": [
        {
          "internalType": "uint256",
          "name": "tokenId",
          "type": "uint256"
        },
        {
          "components": [
            {
              "internalType": "string",
              "name": "name",
              "type": "string"
            },
            {
              "internalType": "string",
              "name": "category",
              "type": "string"
            },
            {
              "internalType": "string",
              "name": "description",
              "type": "string"
            },
            {
              "internalType": "string",
              "name": "imageUri",
              "type": "string"
            },
            {
              "internalType": "uint256",
              "name": "driving",
              "type": "uint256"
            },
            {
              "internalType": "uint256",
              "name": "eco",
              "type": "uint256"
            },
            {
              "internalType": "uint256",
              "name": "distance",
              "type": "uint256"
            },
            {
              "internalType": "uint256",
              "name": "safe",
              "type": "uint256"
            },
            {
              "internalType": "uint256",
              "name": "refuling",
              "type": "uint256"
            }
          ],
          "internalType": "struct GoriToken.EquipmentMeta",
          "name": "equipmentMeta",
          "type": "tuple"
        }
      ],
      "name": "addEquipment",
      "outputs": [],
      "stateMutability": "nonpayable",
      "type": "function"
    },
    {
      "inputs": [
        {
          "internalType": "uint256",
          "name": "point",
          "type": "uint256"
        },
        {
          "internalType": "uint256",
          "name": "mintId",
          "type": "uint256"
        }
      ],
      "name": "addLocation",
      "outputs": [],
      "stateMutability": "nonpayable",
      "type": "function"
    },
    {
      "inputs": [
        {
          "internalType": "address",
          "name": "",
          "type": "address"
        },
        {
          "internalType": "uint256",
          "name": "",
          "type": "uint256"
        }
      ],
      "name": "balanceOf",
      "outputs": [
        {
          "internalType": "uint256",
          "name": "",
          "type": "uint256"
        }
      ],
      "stateMutability": "view",
      "type": "function"
    },
    {
      "inputs": [
        {
          "internalType": "address[]",
          "name": "accounts",
          "type": "address[]"
        },
        {
          "internalType": "uint256[]",
          "name": "ids",
          "type": "uint256[]"
        }
      ],
      "name": "balanceOfBatch",
      "outputs": [
        {
          "internalType": "uint256[]",
          "name": "",
          "type": "uint256[]"
        }
      ],
      "stateMutability": "view",
      "type": "function"
    },
    {
      "inputs": [
        {
          "internalType": "uint256",
          "name": "",
          "type": "uint256"
        }
      ],
      "name": "batchFrozen",
      "outputs": [
        {
          "internalType": "bool",
          "name": "",
          "type": "bool"
        }
      ],
      "stateMutability": "view",
      "type": "function"
    },
    {
      "inputs": [
        {
          "internalType": "address",
          "name": "_to",
          "type": "address"
        },
        {
          "internalType": "uint256[]",
          "name": "_tokenIds",
          "type": "uint256[]"
        },
        {
          "internalType": "uint256[]",
          "name": "_amounts",
          "type": "uint256[]"
        },
        {
          "internalType": "string",
          "name": "_baseURI",
          "type": "string"
        }
      ],
      "name": "batchMintTo",
      "outputs": [],
      "stateMutability": "nonpayable",
      "type": "function"
    },
    {
      "inputs": [
        {
          "internalType": "address",
          "name": "_owner",
          "type": "address"
        },
        {
          "internalType": "uint256",
          "name": "_tokenId",
          "type": "uint256"
        },
        {
          "internalType": "uint256",
          "name": "_amount",
          "type": "uint256"
        }
      ],
      "name": "burn",
      "outputs": [],
      "stateMutability": "nonpayable",
      "type": "function"
    },
    {
      "inputs": [
        {
          "internalType": "address",
          "name": "_owner",
          "type": "address"
        },
        {
          "internalType": "uint256[]",
          "name": "_tokenIds",
          "type": "uint256[]"
        },
        {
          "internalType": "uint256[]",
          "name": "_amounts",
          "type": "uint256[]"
        }
      ],
      "name": "burnBatch",
      "outputs": [],
      "stateMutability": "nonpayable",
      "type": "function"
    },
    {
      "inputs": [
        {
          "internalType": "uint256",
          "name": "tokenId",
          "type": "uint256"
        }
      ],
      "name": "completeStayGori",
      "outputs": [],
      "stateMutability": "nonpayable",
      "type": "function"
    },
    {
      "inputs": [],
      "name": "contractURI",
      "outputs": [
        {
          "internalType": "string",
          "name": "",
          "type": "string"
        }
      ],
      "stateMutability": "view",
      "type": "function"
    },
    {
      "inputs": [],
      "name": "getBaseURICount",
      "outputs": [
        {
          "internalType": "uint256",
          "name": "",
          "type": "uint256"
        }
      ],
      "stateMutability": "view",
      "type": "function"
    },
    {
      "inputs": [
        {
          "internalType": "uint256",
          "name": "_index",
          "type": "uint256"
        }
      ],
      "name": "getBatchIdAtIndex",
      "outputs": [
        {
          "internalType": "uint256",
          "name": "",
          "type": "uint256"
        }
      ],
      "stateMutability": "view",
      "type": "function"
    },
    {
      "inputs": [],
      "name": "getDefaultRoyaltyInfo",
      "outputs": [
        {
          "internalType": "address",
          "name": "",
          "type": "address"
        },
        {
          "internalType": "uint16",
          "name": "",
          "type": "uint16"
        }
      ],
      "stateMutability": "view",
      "type": "function"
    },
    {
      "inputs": [
        {
          "internalType": "uint256",
          "name": "tokenId",
          "type": "uint256"
        }
      ],
      "name": "getEscape",
      "outputs": [
        {
          "internalType": "bool",
          "name": "",
          "type": "bool"
        },
        {
          "internalType": "uint256",
          "name": "",
          "type": "uint256"
        }
      ],
      "stateMutability": "view",
      "type": "function"
    },
    {
      "inputs": [
        {
          "internalType": "uint256",
          "name": "_tokenId",
          "type": "uint256"
        }
      ],
      "name": "getRoyaltyInfoForToken",
      "outputs": [
        {
          "internalType": "address",
          "name": "",
          "type": "address"
        },
        {
          "internalType": "uint16",
          "name": "",
          "type": "uint16"
        }
      ],
      "stateMutability": "view",
      "type": "function"
    },
    {
      "inputs": [
        {
          "internalType": "uint256",
          "name": "tokenId",
          "type": "uint256"
        }
      ],
      "name": "getStayGoriDepositToken",
      "outputs": [
        {
          "internalType": "uint256[]",
          "name": "",
          "type": "uint256[]"
        },
        {
          "internalType": "uint256[]",
          "name": "",
          "type": "uint256[]"
        }
      ],
      "stateMutability": "view",
      "type": "function"
    },
    {
      "inputs": [
        {
          "internalType": "string",
          "name": "name",
          "type": "string"
        },
        {
          "internalType": "string",
          "name": "createdAt",
          "type": "string"
        },
        {
          "internalType": "string",
          "name": "imageUri",
          "type": "string"
        }
      ],
      "name": "initializeGori",
      "outputs": [],
      "stateMutability": "nonpayable",
      "type": "function"
    },
    {
      "inputs": [
        {
          "internalType": "address",
          "name": "",
          "type": "address"
        },
        {
          "internalType": "address",
          "name": "",
          "type": "address"
        }
      ],
      "name": "isApprovedForAll",
      "outputs": [
        {
          "internalType": "bool",
          "name": "",
          "type": "bool"
        }
      ],
      "stateMutability": "view",
      "type": "function"
    },
    {
      "inputs": [
        {
          "internalType": "uint256",
          "name": "tokenId",
          "type": "uint256"
        }
      ],
      "name": "isRegistered",
      "outputs": [
        {
          "internalType": "bool",
          "name": "",
          "type": "bool"
        }
      ],
      "stateMutability": "view",
      "type": "function"
    },
    {
      "inputs": [
        {
          "internalType": "uint256",
          "name": "tokenId",
          "type": "uint256"
        }
      ],
      "name": "isStayGoriComplete",
      "outputs": [
        {
          "internalType": "bool",
          "name": "",
          "type": "bool"
        }
      ],
      "stateMutability": "view",
      "type": "function"
    },
    {
      "inputs": [
        {
          "internalType": "address",
          "name": "forwarder",
          "type": "address"
        }
      ],
      "name": "isTrustedForwarder",
      "outputs": [
        {
          "internalType": "bool",
          "name": "",
          "type": "bool"
        }
      ],
      "stateMutability": "view",
      "type": "function"
    },
    {
      "inputs": [
        {
          "internalType": "uint256",
          "name": "location",
          "type": "uint256"
        },
        {
          "internalType": "string",
          "name": "imageUri",
          "type": "string"
        },
        {
          "internalType": "uint256[]",
          "name": "tokenIds",
          "type": "uint256[]"
        },
        {
          "internalType": "uint256[]",
          "name": "amounts",
          "type": "uint256[]"
        },
        {
          "internalType": "uint256",
          "name": "period",
          "type": "uint256"
        }
      ],
      "name": "makeStayGori",
      "outputs": [],
      "stateMutability": "nonpayable",
      "type": "function"
    },
    {
      "inputs": [
        {
          "internalType": "address",
          "name": "to",
          "type": "address"
        },
        {
          "internalType": "uint256",
          "name": "id",
          "type": "uint256"
        },
        {
          "internalType": "uint256",
          "name": "amount",
          "type": "uint256"
        }
      ],
      "name": "mint",
      "outputs": [],
      "stateMutability": "nonpayable",
      "type": "function"
    },
    {
      "inputs": [
        {
          "internalType": "address",
          "name": "_to",
          "type": "address"
        },
        {
          "internalType": "uint256",
          "name": "_tokenId",
          "type": "uint256"
        },
        {
          "internalType": "string",
          "name": "_tokenURI",
          "type": "string"
        },
        {
          "internalType": "uint256",
          "name": "_amount",
          "type": "uint256"
        }
      ],
      "name": "mintTo",
      "outputs": [],
      "stateMutability": "nonpayable",
      "type": "function"
    },
    {
      "inputs": [
        {
          "internalType": "bytes[]",
          "name": "data",
          "type": "bytes[]"
        }
      ],
      "name": "multicall",
      "outputs": [
        {
          "internalType": "bytes[]",
          "name": "results",
          "type": "bytes[]"
        }
      ],
      "stateMutability": "nonpayable",
      "type": "function"
    },
    {
      "inputs": [],
      "name": "name",
      "outputs": [
        {
          "internalType": "string",
          "name": "",
          "type": "string"
        }
      ],
      "stateMutability": "view",
      "type": "function"
    },
    {
      "inputs": [],
      "name": "nextTokenIdStayGori",
      "outputs": [
        {
          "internalType": "uint256",
          "name": "",
          "type": "uint256"
        }
      ],
      "stateMutability": "view",
      "type": "function"
    },
    {
      "inputs": [],
      "name": "nextTokenIdToMint",
      "outputs": [
        {
          "internalType": "uint256",
          "name": "",
          "type": "uint256"
        }
      ],
      "stateMutability": "view",
      "type": "function"
    },
    {
      "inputs": [],
      "name": "owner",
      "outputs": [
        {
          "internalType": "address",
          "name": "",
          "type": "address"
        }
      ],
      "stateMutability": "view",
      "type": "function"
    },
    {
      "inputs": [
        {
          "internalType": "uint256",
          "name": "tokenId",
          "type": "uint256"
        },
        {
          "internalType": "uint256",
          "name": "salePrice",
          "type": "uint256"
        }
      ],
      "name": "royaltyInfo",
      "outputs": [
        {
          "internalType": "address",
          "name": "receiver",
          "type": "address"
        },
        {
          "internalType": "uint256",
          "name": "royaltyAmount",
          "type": "uint256"
        }
      ],
      "stateMutability": "view",
      "type": "function"
    },
    {
      "inputs": [
        {
          "internalType": "address",
          "name": "from",
          "type": "address"
        },
        {
          "internalType": "address",
          "name": "to",
          "type": "address"
        },
        {
          "internalType": "uint256[]",
          "name": "ids",
          "type": "uint256[]"
        },
        {
          "internalType": "uint256[]",
          "name": "amounts",
          "type": "uint256[]"
        },
        {
          "internalType": "bytes",
          "name": "data",
          "type": "bytes"
        }
      ],
      "name": "safeBatchTransferFrom",
      "outputs": [],
      "stateMutability": "nonpayable",
      "type": "function"
    },
    {
      "inputs": [
        {
          "internalType": "address",
          "name": "from",
          "type": "address"
        },
        {
          "internalType": "address",
          "name": "to",
          "type": "address"
        },
        {
          "internalType": "uint256",
          "name": "id",
          "type": "uint256"
        },
        {
          "internalType": "uint256",
          "name": "amount",
          "type": "uint256"
        },
        {
          "internalType": "bytes",
          "name": "data",
          "type": "bytes"
        }
      ],
      "name": "safeTransferFrom",
      "outputs": [],
      "stateMutability": "nonpayable",
      "type": "function"
    },
    {
      "inputs": [
        {
          "internalType": "address",
          "name": "operator",
          "type": "address"
        },
        {
          "internalType": "bool",
          "name": "approved",
          "type": "bool"
        }
      ],
      "name": "setApprovalForAll",
      "outputs": [],
      "stateMutability": "nonpayable",
      "type": "function"
    },
    {
      "inputs": [
        {
          "internalType": "string",
          "name": "_uri",
          "type": "string"
        }
      ],
      "name": "setContractURI",
      "outputs": [],
      "stateMutability": "nonpayable",
      "type": "function"
    },
    {
      "inputs": [
        {
          "internalType": "address",
          "name": "_royaltyRecipient",
          "type": "address"
        },
        {
          "internalType": "uint256",
          "name": "_royaltyBps",
          "type": "uint256"
        }
      ],
      "name": "setDefaultRoyaltyInfo",
      "outputs": [],
      "stateMutability": "nonpayable",
      "type": "function"
    },
    {
      "inputs": [
        {
          "internalType": "contract IGoriNFT",
          "name": "goriNFT",
          "type": "address"
        }
      ],
      "name": "setGoriNFT",
      "outputs": [],
      "stateMutability": "nonpayable",
      "type": "function"
    },
    {
      "inputs": [
        {
          "internalType": "contract IGoriStaking",
          "name": "goriStaking",
          "type": "address"
        }
      ],
      "name": "setGoriStaking",
      "outputs": [],
      "stateMutability": "nonpayable",
      "type": "function"
    },
    {
      "inputs": [
        {
          "internalType": "address",
          "name": "_newOwner",
          "type": "address"
        }
      ],
      "name": "setOwner",
      "outputs": [],
      "stateMutability": "nonpayable",
      "type": "function"
    },
    {
      "inputs": [
        {
          "internalType": "uint256",
          "name": "_tokenId",
          "type": "uint256"
        },
        {
          "internalType": "address",
          "name": "_recipient",
          "type": "address"
        },
        {
          "internalType": "uint256",
          "name": "_bps",
          "type": "uint256"
        }
      ],
      "name": "setRoyaltyInfoForToken",
      "outputs": [],
      "stateMutability": "nonpayable",
      "type": "function"
    },
    {
      "inputs": [
        {
          "internalType": "uint256",
          "name": "tokenID_",
          "type": "uint256"
        },
        {
          "internalType": "uint256",
          "name": "location",
          "type": "uint256"
        }
      ],
      "name": "stayGoriUri",
      "outputs": [
        {
          "internalType": "string",
          "name": "",
          "type": "string"
        }
      ],
      "stateMutability": "view",
      "type": "function"
    },
    {
      "inputs": [
        {
          "internalType": "bytes4",
          "name": "interfaceId",
          "type": "bytes4"
        }
      ],
      "name": "supportsInterface",
      "outputs": [
        {
          "internalType": "bool",
          "name": "",
          "type": "bool"
        }
      ],
      "stateMutability": "view",
      "type": "function"
    },
    {
      "inputs": [],
      "name": "symbol",
      "outputs": [
        {
          "internalType": "string",
          "name": "",
          "type": "string"
        }
      ],
      "stateMutability": "view",
      "type": "function"
    },
    {
      "inputs": [
        {
          "internalType": "uint256",
          "name": "tokenId",
          "type": "uint256"
        }
      ],
      "name": "toERC721",
      "outputs": [],
      "stateMutability": "nonpayable",
      "type": "function"
    },
    {
      "inputs": [
        {
          "internalType": "uint256",
          "name": "",
          "type": "uint256"
        }
      ],
      "name": "totalSupply",
      "outputs": [
        {
          "internalType": "uint256",
          "name": "",
          "type": "uint256"
        }
      ],
      "stateMutability": "view",
      "type": "function"
    },
    {
      "inputs": [
        {
          "internalType": "string",
          "name": "imageUri",
          "type": "string"
        }
      ],
      "name": "updatePartnerGoriImageUri",
      "outputs": [],
      "stateMutability": "nonpayable",
      "type": "function"
    },
    {
      "inputs": [
        {
          "internalType": "string",
          "name": "name",
          "type": "string"
        }
      ],
      "name": "updatePartnerGoriName",
      "outputs": [],
      "stateMutability": "nonpayable",
      "type": "function"
    },
    {
      "inputs": [
        {
          "internalType": "uint256",
          "name": "tokenID_",
          "type": "uint256"
        }
      ],
      "name": "uri",
      "outputs": [
        {
          "internalType": "string",
          "name": "",
          "type": "string"
        }
      ],
      "stateMutability": "view",
      "type": "function"
    }
  ],
  "bytecode": "0x60806040526113896073553480156200001757600080fd5b5060405162005c6538038062005c658339810160408190526200003a91620002ca565b8484848484838360006200004f83826200040c565b5060016200005e82826200040c565b5050506200007285620000eb60201b60201c565b62000087826001600160801b0383166200013d565b50505050506040518060800160405280605a815260200162005c0b605a91396103e960005260786020527ffa5f2c63693f9ebcd0e9b91aa6797e25dc294fb4ef9d6674de3510a8b69d457d90620000df90826200040c565b505050505050620004d8565b600680546001600160a01b038381166001600160a01b0319831681179093556040519116919082907f8292fce18fa69edf4db7b94ea2e58241df0ae57f97e0a6c9b29067028bf92d7690600090a35050565b612710811115620001865760405162461bcd60e51b815260206004820152600f60248201526e45786365656473206d61782062707360881b604482015260640160405180910390fd5b600780546001600160a01b0384166001600160b01b03199091168117600160a01b61ffff851602179091556040518281527f90d7ec04bcb8978719414f82e52e4cb651db41d0e6f8cea6118c2191e6183adb9060200160405180910390a25050565b80516001600160a01b03811681146200020057600080fd5b919050565b634e487b7160e01b600052604160045260246000fd5b600082601f8301126200022d57600080fd5b81516001600160401b03808211156200024a576200024a62000205565b604051601f8301601f19908116603f0116810190828211818310171562000275576200027562000205565b816040528381526020925086838588010111156200029257600080fd5b600091505b83821015620002b6578582018301518183018401529082019062000297565b600093810190920192909252949350505050565b600080600080600060a08688031215620002e357600080fd5b620002ee86620001e8565b60208701519095506001600160401b03808211156200030c57600080fd5b6200031a89838a016200021b565b955060408801519150808211156200033157600080fd5b5062000340888289016200021b565b9350506200035160608701620001e8565b60808701519092506001600160801b03811681146200036f57600080fd5b809150509295509295909350565b600181811c908216806200039257607f821691505b602082108103620003b357634e487b7160e01b600052602260045260246000fd5b50919050565b601f8211156200040757600081815260208120601f850160051c81016020861015620003e25750805b601f850160051c820191505b818110156200040357828155600101620003ee565b5050505b505050565b81516001600160401b0381111562000428576200042862000205565b62000440816200043984546200037d565b84620003b9565b602080601f8311600181146200047857600084156200045f5750858301515b600019600386901b1c1916600185901b17855562000403565b600085815260208120601f198616915b82811015620004a95788860151825594840194600190910190840162000488565b5085821015620004c85787850151600019600388901b60f8161c191681555b5050505050600190811b01905550565b61572380620004e86000396000f3fe608060405234801561001057600080fd5b50600436106103775760003560e01c80638b9694ad116101d3578063b24f2d3911610104578063e985e9c5116100a2578063f5298aca1161007c578063f5298aca146107d8578063f60ac0cf146107eb578063f6fe4a52146107f4578063fc6d94b21461081e57600080fd5b8063e985e9c51461078f578063ee5897fa146107bd578063f242432a146107c557600080fd5b8063cb761887116100de578063cb76188714610764578063d9d002a21461076c578063e79edd9f1461077f578063e8a3d4851461078757600080fd5b8063b24f2d3914610713578063bd85b03914610731578063bee0d5ec1461075157600080fd5b8063a74e58e411610171578063b03f45281161014b578063b03f4528146106dc578063b05140a6146106ef578063b05896c2146106f8578063b07387d21461070b57600080fd5b8063a74e58e4146106ab578063aa8686a8146106b4578063ac9650d8146106bc57600080fd5b8063949c09f7116101ad578063949c09f71461066a57806395d89b411461067d5780639bcf7a1514610685578063a22cb4651461069857600080fd5b80638b9694ad146106345780638da5cb5b1461063c578063938e3d7b1461065757600080fd5b80634589eef2116102ad578063600dd5ea1161024b5780636f5911cf116102255780636f5911cf146105e257806380731cee146105eb57806382dbe4fc146105fe578063830405321461061157600080fd5b8063600dd5ea146105b457806363b45e2d146105c75780636b20c454146105cf57600080fd5b806350e2304c1161028757806350e2304c1461054f578063572b6c0514610562578063579a69881461058e5780635f915c2c146105a157600080fd5b80634589eef2146104e75780634cc157df146104fa5780634e1273f41461052f57600080fd5b80631f783a121161031a5780632c9ba612116102f45780632c9ba612146104a65780632eb2c2d6146104b95780632edd20b7146104cc5780633b1475a7146104df57600080fd5b80631f783a12146104405780632419f51b146104615780632a55205a1461047457600080fd5b806306fdde031161035657806306fdde03146103f05780630e89341c1461040557806313af403514610418578063156e29f61461042d57600080fd5b8062fdd58e1461037c57806301ffc9a7146103ba578063065284a0146103dd575b600080fd5b6103a761038a3660046142bc565b600260209081526000928352604080842090915290825290205481565b6040519081526020015b60405180910390f35b6103cd6103c83660046142fe565b610831565b60405190151581526020016103b1565b6103cd6103eb36600461431b565b61089e565b6103f8610907565b6040516103b19190614384565b6103f861041336600461431b565b610995565b61042b610426366004614397565b6109ec565b005b61042b61043b3660046143b4565b610a1c565b61045361044e36600461431b565b610a98565b6040516103b1929190614424565b6103a761046f36600461431b565b610c1d565b610487610482366004614452565b610c8b565b604080516001600160a01b0390931683526020830191909152016103b1565b61042b6104b4366004614552565b610cc8565b61042b6104c736600461466d565b610d48565b61042b6104da36600461431b565b610dd7565b600c546103a7565b61042b6104f536600461431b565b610e62565b61050d61050836600461431b565b6111b4565b604080516001600160a01b03909316835261ffff9091166020830152016103b1565b61054261053d36600461471a565b61121f565b6040516103b191906147e6565b61042b61055d366004614452565b611333565b6103cd610570366004614397565b6001600160a01b031660009081526041602052604090205460ff1690565b6103cd61059c36600461431b565b61136f565b61042b6105af3660046147f9565b6113b1565b61042b6105c23660046142bc565b611731565b6009546103a7565b61042b6105dd366004614892565b61175f565b6103a760735481565b61042b6105f9366004614397565b611901565b61042b61060c3660046148fd565b61194d565b6103cd61061f36600461431b565b600b6020526000908152604090205460ff1681565b6103a7600281565b6006546040516001600160a01b0390911681526020016103b1565b61042b6106653660046148fd565b611981565b61042b610678366004614931565b6119ae565b6103f8611ba9565b61042b6106933660046149cb565b611bb6565b61042b6106a6366004614a11565b611be5565b6103a76103e981565b6103a7600081565b6106cf6106ca366004614a4a565b611c9d565b6040516103b19190614abe565b61042b6106ea366004614b20565b611d91565b6103a761138981565b61042b610706366004614b80565b611e7c565b6103a7600181565b6007546001600160a01b03811690600160a01b900461ffff1661050d565b6103a761073f36600461431b565b600d6020526000908152604090205481565b6103f861075f366004614452565b611f3e565b6103a7600581565b61042b61077a3660046148fd565b612009565b6103a7600481565b6103f861203a565b6103cd61079d366004614c9a565b600360209081526000928352604080842090915290825290205460ff1681565b6103a7600381565b61042b6107d3366004614cc8565b612047565b61042b6107e63660046143b4565b6120cf565b6103a761138881565b61080761080236600461431b565b6121c4565b6040805192151583526020830191909152016103b1565b61042b61082c366004614397565b6122ac565b60006301ffc9a760e01b6001600160e01b0319831614806108625750636cdb3d1360e11b6001600160e01b03198316145b8061087d57506303a24d0760e21b6001600160e01b03198316145b8061089857506001600160e01b0319821663152a902d60e11b145b92915050565b6000607760006108ac6122f8565b6001600160a01b031681526020808201929092526040908101600090812085825290925290206005015460ff166108fe5760405162461bcd60e51b81526004016108f590614d30565b60405180910390fd5b61089882612307565b6000805461091490614d58565b80601f016020809104026020016040519081016040528092919081815260200182805461094090614d58565b801561098d5780601f106109625761010080835404028352916020019161098d565b820191906000526020600020905b81548152906001019060200180831161097057829003601f168201915b505050505081565b6060816109a457610898612392565b6103e982101580156109b857506113888211155b156109c657610898826126b6565b61138982106109d85761089882612bcb565b505060408051602081019091526000815290565b6109f4612e9a565b610a105760405162461bcd60e51b81526004016108f590614d92565b610a1981612ec7565b50565b610a3783838360405180602001604052806000815250612f19565b6103e98210158015610a4b57506113888211155b15610a9357604080516001600160a01b0385168152602081018490527fa1254ee7e9cb9bc4e4305e813b788aab9a8ff23ed862e99ee4ba779bb5eedfb7910160405180910390a15b505050565b60608060776000610aa76122f8565b6001600160a01b031681526020808201929092526040908101600090812086825290925290206005015460ff16610af05760405162461bcd60e51b81526004016108f590614d30565b60776000610afc6122f8565b6001600160a01b03166001600160a01b03168152602001908152602001600020600084815260200190815260200160002060010160776000610b3c6122f8565b6001600160a01b03166001600160a01b03168152602001908152602001600020600085815260200190815260200160002060020181805480602002602001604051908101604052809291908181526020018280548015610bbb57602002820191906000526020600020905b815481526020019060010190808311610ba7575b5050505050915080805480602002602001604051908101604052809291908181526020018280548015610c0d57602002820191906000526020600020905b815481526020019060010190808311610bf9575b5050505050905091509150915091565b6000610c2860095490565b8210610c665760405162461bcd60e51b815260206004820152600d60248201526c092dcecc2d8d2c840d2dcc8caf609b1b60448201526064016108f5565b60098281548110610c7957610c79614dba565b90600052602060002001549050919050565b600080600080610c9a866111b4565b90945084925061ffff169050612710610cb38287614de6565b610cbd9190614e13565b925050509250929050565b60405180606001604052808481526020018381526020018281525060756000610cef6122f8565b6001600160a01b03168152602081019190915260400160002081518190610d169082614e6d565b5060208201516001820190610d2b9082614e6d565b5060408201516002820190610d409082614e6d565b505050505050565b6001600160a01b038516331480610d8257506001600160a01b038516600090815260036020908152604080832033845290915290205460ff165b610dc35760405162461bcd60e51b81526020600482015260126024820152710853d5d3915497d3d497d054141493d5915160721b60448201526064016108f5565b610dd08585858585612ff2565b5050505050565b610dea610de26122f8565b8260016131a5565b607a546001600160a01b031663d0def521610e036122f8565b6000848152607860205260409081902090516001600160e01b031960e085901b168152610e34929190600401614fa9565b600060405180830381600087803b158015610e4e57600080fd5b505af1158015610dd0573d6000803e3d6000fd5b60776000610e6e6122f8565b6001600160a01b031681526020808201929092526040908101600090812084825290925290206005015460ff16610eb75760405162461bcd60e51b81526004016108f590614d30565b610ec081612307565b610f005760405162461bcd60e51b81526020600482015260116024820152701b9bdd0818dbdb5c1b195d1959081e595d607a1b60448201526064016108f5565b600060776000610f0e6122f8565b6001600160a01b03168152602080820192909252604090810160009081208582529092528120600501805460ff191692151592909217909155610f50826132ca565b9050610f5b8261335e565b156110e957607954611093906001600160a01b031660776000610f7c6122f8565b6001600160a01b03166001600160a01b031681526020019081526020016000206000858152602001908152602001600020600101805480602002602001604051908101604052809291908181526020018280548015610ffa57602002820191906000526020600020905b815481526020019060010190808311610fe6575b50505050506077600061100b6122f8565b6001600160a01b03166001600160a01b03168152602001908152602001600020600086815260200190815260200160002060020180548060200260200160405190810160405280929190818152602001828054801561108957602002820191906000526020600020905b815481526020019060010190808311611075575b50505050506133ea565b7f8eb6481b2e2f4521b40293ab508fc7e6f3cd00b29a65e9588810b667f3d3e17e6110bc6122f8565b604080516001600160a01b0390921682526020820185905281018390526060015b60405180910390a15050565b6079546001600160a01b0316636c7b69cb836111036122f8565b6040516001600160e01b031960e085901b16815260048101929092526001600160a01b03166024820152604401600060405180830381600087803b15801561114a57600080fd5b505af115801561115e573d6000803e3d6000fd5b505050507fe5c8b1b11c66a6097822e5fa86db761dd6049d6f458c0343b5c471ad5fb8135861118b6122f8565b604080516001600160a01b0390921682526020820185905243908201526060016110dd565b5050565b6000818152600860209081526040808320815180830190925280546001600160a01b0316808352600190910154928201929092528291156111fb5780516020820151611215565b6007546001600160a01b03811690600160a01b900461ffff165b9250925050915091565b606081518351146112425760405162461bcd60e51b81526004016108f590614fcd565b600083516001600160401b0381111561125d5761125d614474565b604051908082528060200260200182016040528015611286578160200160208202803683370190505b50905060005b845181101561132b57600260008683815181106112ab576112ab614dba565b60200260200101516001600160a01b03166001600160a01b0316815260200190815260200160002060008583815181106112e7576112e7614dba565b602002602001015181526020019081526020016000205482828151811061131057611310614dba565b602090810291909101015261132481614ff6565b905061128c565b509392505050565b6006546001600160a01b0316331461135d5760405162461bcd60e51b81526004016108f590614d92565b60009182526074602052604090912055565b60006077600061137d6122f8565b6001600160a01b0316815260208082019290925260409081016000908120948152939091529091206005015460ff16919050565b607354816113f25760405162461bcd60e51b815260206004820152600e60248201526d706572696f64206973207a65726f60901b60448201526064016108f5565b607760006113fe6122f8565b6001600160a01b031681526020808201929092526040908101600090812084825290925290206005015460ff161561146a5760405162461bcd60e51b815260206004820152600f60248201526e105b1b1c9958591e481cdd185ad959608a1b60448201526064016108f5565b61148d6114756122f8565b82600160405180602001604052806000815250612f19565b6079546001600160a01b031663f34027e9828686866114aa6122f8565b6040518663ffffffff1660e01b81526004016114ca95949392919061500f565b600060405180830381600087803b1580156114e457600080fd5b505af11580156114f8573d6000803e3d6000fd5b505050506040518060e00160405280868152602001858152602001848152602001838152602001438152602001600115158152602001878152506077600061153e6122f8565b6001600160a01b03168152602080820192909252604090810160009081208582529092529020815181906115729082614e6d565b50602082810151805161158b9260018501920190614247565b50604082015180516115a7916002840191602090910190614247565b50606082015160038201556080820151600482015560a082015160058201805460ff191691151591909117905560c0909101516006909101557f7860b9ec6edd1fbaf016bf9c6612eb67180d860ba1bc30e7f2f7c0d0ff3a196a6116096122f8565b607760006116156122f8565b6001600160a01b03168152602080820192909252604090810160009081208682529092528120906077906116476122f8565b6001600160a01b03166001600160a01b03168152602001908152602001600020600085815260200190815260200160002060030154607760006116886122f8565b6001600160a01b03166001600160a01b03168152602001908152602001600020600086815260200190815260200160002060040154607760006116c96122f8565b6001600160a01b03168152602080820192909252604090810160009081208982529092529081902060050154905161170c959493929160ff16908d90899061505d565b60405180910390a16073805490600061172483614ff6565b9190505550505050505050565b611739612e9a565b6117555760405162461bcd60e51b81526004016108f590614d92565b6111b0828261359f565b336001600160a01b03841681148061179c57506001600160a01b0380851660009081526003602090815260408083209385168352929052205460ff165b6117dc5760405162461bcd60e51b81526020600482015260116024820152702ab730b8383937bb32b21031b0b63632b960791b60448201526064016108f5565b815183511461181f5760405162461bcd60e51b815260206004820152600f60248201526e098cadccee8d040dad2e6dac2e8c6d608b1b60448201526064016108f5565b60005b83518110156118ef5782818151811061183d5761183d614dba565b602002602001015160026000876001600160a01b03166001600160a01b03168152602001908152602001600020600086848151811061187e5761187e614dba565b602002602001015181526020019081526020016000205410156118dd5760405162461bcd60e51b8152602060048201526017602482015276139bdd08195b9bdd59da081d1bdad95b9cc81bdddb9959604a1b60448201526064016108f5565b6118e86001826150ab565b9050611822565b506118fb8484846133ea565b50505050565b6006546001600160a01b0316331461192b5760405162461bcd60e51b81526004016108f590614d92565b607980546001600160a01b0319166001600160a01b0392909216919091179055565b806075600061195a6122f8565b6001600160a01b031681526020810191909152604001600020600201906111b09082614e6d565b611989612e9a565b6119a55760405162461bcd60e51b81526004016108f590614d92565b610a1981613645565b6119b6612e9a565b6119fc5760405162461bcd60e51b81526020600482015260176024820152762737ba1030baba3437b934bd32b2103a379036b4b73a1760491b60448201526064016108f5565b6000825111611a445760405162461bcd60e51b815260206004820152601460248201527326b4b73a34b733903d32b937903a37b5b2b7399760611b60448201526064016108f5565b8151835114611a885760405162461bcd60e51b815260206004820152601060248201526f2632b733ba341036b4b9b6b0ba31b41760811b60448201526064016108f5565b6000611a93600c5490565b9050806000805b8651811015611b6957600019878281518110611ab857611ab8614dba565b602002602001015103611b025783878281518110611ad857611ad8614dba565b6020908102919091010152611aee6001856150ab565b9350611afb6001836150ab565b9150611b57565b83878281518110611b1557611b15614dba565b602002602001015110611b575760405162461bcd60e51b815260206004820152600a6024820152691a5b9d985b1a59081a5960b21b60448201526064016108f5565b611b626001826150ab565b9050611a9a565b508015611b7e57611b7b828286613715565b50505b82600c81905550611ba087878760405180602001604052806000815250613779565b50505050505050565b6001805461091490614d58565b611bbe612e9a565b611bda5760405162461bcd60e51b81526004016108f590614d92565b610a938383836138d4565b336001600160a01b0383168103611c2f5760405162461bcd60e51b815260206004820152600e60248201526d20a8282927ab24a723afa9a2a62360911b60448201526064016108f5565b6001600160a01b03818116600081815260036020908152604080832094881680845294825291829020805460ff191687151590811790915591519182527f17307eab39ab6107e8899845ad3d59bd9653f200f220920489ca2b5937696c3191015b60405180910390a3505050565b6060816001600160401b03811115611cb757611cb7614474565b604051908082528060200260200182016040528015611cea57816020015b6060815260200190600190039081611cd55790505b50905060005b82811015611d8a57611d5a30858584818110611d0e57611d0e614dba565b9050602002810190611d2091906150be565b8080601f01602080910402602001604051908101604052809392919081815260200183838082843760009201919091525061399592505050565b828281518110611d6c57611d6c614dba565b60200260200101819052508080611d8290614ff6565b915050611cf0565b5092915050565b611d99612e9a565b611ddf5760405162461bcd60e51b81526020600482015260176024820152762737ba1030baba3437b934bd32b2103a379036b4b73a1760491b60448201526064016108f5565b600080611deb600c5490565b90506000198503611e21578091506001600c6000828254611e0c91906150ab565b90915550611e1c905081856139c1565b611e61565b808510611e5d5760405162461bcd60e51b815260206004820152600a6024820152691a5b9d985b1a59081a5960b21b60448201526064016108f5565b8491505b610d4086838560405180602001604052806000815250612f19565b6006546001600160a01b03163314611ea65760405162461bcd60e51b81526004016108f590614d92565b600082815260766020526040902081518291908190611ec59082614e6d565b5060208201516001820190611eda9082614e6d565b5060408201516002820190611eef9082614e6d565b5060608201516003820190611f049082614e6d565b506080820151600482015560a0820151600582015560c0820151600682015560e08201516007820155610100909101516008909101555050565b60606113898314611f855760405162461bcd60e51b81526020600482015260116024820152701d5b9cdd5c1c1bdc9d081d1bdad95b9259607a1b60448201526064016108f5565b60776000611f916122f8565b6001600160a01b031681526020808201929092526040908101600090812085825290925290206005015460ff16611fda5760405162461bcd60e51b81526004016108f590614d30565b6113898303611ff357611fec82612bcb565b9050610898565b5060408051602081019091526000815292915050565b80607560006120166122f8565b6001600160a01b031681526020810191909152604001600020906111b09082614e6d565b6005805461091490614d58565b6001600160a01b03851633148061208157506001600160a01b038516600090815260036020908152604080832033845290915290205460ff165b6120c25760405162461bcd60e51b81526020600482015260126024820152710853d5d3915497d3d497d054141493d5915160721b60448201526064016108f5565b610dd085858585856139d9565b336001600160a01b03841681148061210c57506001600160a01b0380851660009081526003602090815260408083209385168352929052205460ff165b61214c5760405162461bcd60e51b81526020600482015260116024820152702ab730b8383937bb32b21031b0b63632b960791b60448201526064016108f5565b6001600160a01b03841660009081526002602090815260408083208684529091529020548211156121b95760405162461bcd60e51b8152602060048201526017602482015276139bdd08195b9bdd59da081d1bdad95b9cc81bdddb9959604a1b60448201526064016108f5565b6118fb8484846131a5565b600080607760006121d36122f8565b6001600160a01b031681526020808201929092526040908101600090812086825290925290206005015460ff1661221c5760405162461bcd60e51b81526004016108f590614d30565b6079546001600160a01b03166379962ba1846122366122f8565b6040516001600160e01b031960e085901b16815260048101929092526001600160a01b031660248201526044016040805180830381865afa15801561227f573d6000803e3d6000fd5b505050506040513d601f19601f820116820180604052508101906122a3919061510b565b91509150915091565b6006546001600160a01b031633146122d65760405162461bcd60e51b81526004016108f590614d92565b607a80546001600160a01b0319166001600160a01b0392909216919091179055565b6000612302613aff565b905090565b6079546000906001600160a01b0316636c39b2dd836123246122f8565b6040516001600160e01b031960e085901b16815260048101929092526001600160a01b03166024820152604401602060405180830381865afa15801561236e573d6000803e3d6000fd5b505050506040513d601f19601f820116820180604052508101906108989190615139565b60606000607560006123a26122f8565b6001600160a01b03166001600160a01b031681526020019081526020016000206040518060600160405290816000820180546123dd90614d58565b80601f016020809104026020016040519081016040528092919081815260200182805461240990614d58565b80156124565780601f1061242b57610100808354040283529160200191612456565b820191906000526020600020905b81548152906001019060200180831161243957829003601f168201915b5050505050815260200160018201805461246f90614d58565b80601f016020809104026020016040519081016040528092919081815260200182805461249b90614d58565b80156124e85780601f106124bd576101008083540402835291602001916124e8565b820191906000526020600020905b8154815290600101906020018083116124cb57829003601f168201915b5050505050815260200160028201805461250190614d58565b80601f016020809104026020016040519081016040528092919081815260200182805461252d90614d58565b801561257a5780601f1061254f5761010080835404028352916020019161257a565b820191906000526020600020905b81548152906001019060200180831161255d57829003601f168201915b505050505081525050905060006125b1604051806040016040528060048152602001636e616d6560e01b8152508360000151613b2c565b905060006125f16040518060400160405280600b81526020016a3232b9b1b934b83a34b7b760a91b81525060405180602001604052806000815250613b2c565b9050600061262060405180604001604052806005815260200164696d61676560d81b8152508560400151613b2c565b905060006126536040518060400160405280600981526020016818dc99585d1959105d60ba1b8152508660200151613b2c565b905060008484848460405160200161266e9493929190615172565b6040516020818303038152906040529050600061268a82613b58565b60405160200161269a9190615205565b60408051601f1981840301815291905298975050505050505050565b6060600060766000848152602001908152602001600020604051806101200160405290816000820180546126e990614d58565b80601f016020809104026020016040519081016040528092919081815260200182805461271590614d58565b80156127625780601f1061273757610100808354040283529160200191612762565b820191906000526020600020905b81548152906001019060200180831161274557829003601f168201915b5050505050815260200160018201805461277b90614d58565b80601f01602080910402602001604051908101604052809291908181526020018280546127a790614d58565b80156127f45780601f106127c9576101008083540402835291602001916127f4565b820191906000526020600020905b8154815290600101906020018083116127d757829003601f168201915b5050505050815260200160028201805461280d90614d58565b80601f016020809104026020016040519081016040528092919081815260200182805461283990614d58565b80156128865780601f1061285b57610100808354040283529160200191612886565b820191906000526020600020905b81548152906001019060200180831161286957829003601f168201915b5050505050815260200160038201805461289f90614d58565b80601f01602080910402602001604051908101604052809291908181526020018280546128cb90614d58565b80156129185780601f106128ed57610100808354040283529160200191612918565b820191906000526020600020905b8154815290600101906020018083116128fb57829003601f168201915b505050505081526020016004820154815260200160058201548152602001600682015481526020016007820154815260200160088201548152505090506000612981604051806040016040528060048152602001636e616d6560e01b8152508360000151613b2c565b905060006129b66040518060400160405280600b81526020016a3232b9b1b934b83a34b7b760a91b8152508460400151613b2c565b905060006129e560405180604001604052806005815260200164696d61676560d81b8152508560600151613b2c565b90506000612a1e6040518060400160405280600781526020016664726976696e6760c81b815250612a198760800151613caa565b613b2c565b90506000612a4e6040518060400160405280600381526020016265636f60e81b815250612a198860a00151613caa565b90506000612a836040518060400160405280600881526020016764697374616e636560c01b815250612a198960c00151613caa565b90506000612ab4604051806040016040528060048152602001637361666560e01b815250612a198a60e00151613caa565b90506000612aea60405180604001604052806008815260200167726566756c696e6760c01b815250612a198b6101000151613caa565b90506000612b1c6040518060400160405280600881526020016763617465676f727960c01b8152508b60200151613b2c565b9050600089898989898989604051602001612b3d979695949392919061524a565b6040516020818303038152906040528383604051602001612b5f929190615328565b60408051601f1981840301815290829052612b7d9291602001615372565b60405160208183030381529060405290506000612b9982613b58565b604051602001612ba99190615205565b60408051601f198184030181529190529e9d5050505050505050505050505050565b606060776000612bd96122f8565b6001600160a01b031681526020808201929092526040908101600090812085825290925290206005015460ff16612c225760405162461bcd60e51b81526004016108f590614d30565b600060776000612c306122f8565b6001600160a01b03166001600160a01b0316815260200190815260200160002060008481526020019081526020016000206040518060e0016040529081600082018054612c7c90614d58565b80601f0160208091040260200160405190810160405280929190818152602001828054612ca890614d58565b8015612cf55780601f10612cca57610100808354040283529160200191612cf5565b820191906000526020600020905b815481529060010190602001808311612cd857829003601f168201915b5050505050815260200160018201805480602002602001604051908101604052809291908181526020018280548015612d4d57602002820191906000526020600020905b815481526020019060010190808311612d39575b5050505050815260200160028201805480602002602001604051908101604052809291908181526020018280548015612da557602002820191906000526020600020905b815481526020019060010190808311612d91575b5050505050815260200160038201548152602001600482015481526020016005820160009054906101000a900460ff1615151515815260200160068201548152505090506000612e1c604051806040016040528060088152602001673637b1b0ba34b7b760c11b815250612a198460c00151613caa565b90506000612e526040518060400160405280600981526020016818dc99585d1959105d60ba1b815250612a198560800151613caa565b90506000612e8160405180604001604052806005815260200164696d61676560d81b8152508560000151613b2c565b9050600083838360405160200161266e939291906153a1565b6000612eae6006546001600160a01b031690565b6001600160a01b0316336001600160a01b031614905090565b600680546001600160a01b038381166001600160a01b0319831681179093556040519116919082907f8292fce18fa69edf4db7b94ea2e58241df0ae57f97e0a6c9b29067028bf92d7690600090a35050565b6001600160a01b038416612f3f5760405162461bcd60e51b81526004016108f590615416565b33612f5f81600087612f5088613daa565b612f5988613daa565b87613df5565b6001600160a01b038516600090815260026020908152604080832087845290915281208054859290612f929084906150ab565b909155505060408051858152602081018590526001600160a01b0380881692600092918516917fc3d58168c5ae7397731d063d5bbf3d657854427343f4c083240f7aacaa2d0f62910160405180910390a4610dd081600087878787613f01565b81518351146130135760405162461bcd60e51b81526004016108f590614fcd565b6001600160a01b0384166130395760405162461bcd60e51b81526004016108f590615416565b33613048818787878787613df5565b60005b845181101561313f57600085828151811061306857613068614dba565b60200260200101519050600085838151811061308657613086614dba565b6020908102919091018101516001600160a01b038b1660009081526002835260408082208683529093529190912054909150818110156130d85760405162461bcd60e51b81526004016108f59061543c565b6001600160a01b03808b16600090815260026020818152604080842088855282528084208787039055938d168352908152828220868352905290812080548492906131249084906150ab565b925050819055505050508061313890614ff6565b905061304b565b50846001600160a01b0316866001600160a01b0316826001600160a01b03167f4a39dc06d4c0dbc64b70af90fd698a233a518aa5d07e595d983b8c0526c8f7fb878760405161318f929190614424565b60405180910390a4610d40818787878787614054565b6001600160a01b0383166131ec5760405162461bcd60e51b815260206004820152600e60248201526d232927a6afad22a927afa0a2222960911b60448201526064016108f5565b3361321b818560006131fd87613daa565b61320687613daa565b60405180602001604052806000815250613df5565b6001600160a01b03841660009081526002602090815260408083208684529091529020548281101561325f5760405162461bcd60e51b81526004016108f59061543c565b6001600160a01b03858116600081815260026020908152604080832089845282528083208887039055805189815291820188905291938616917fc3d58168c5ae7397731d063d5bbf3d657854427343f4c083240f7aacaa2d0f62910160405180910390a45050505050565b60795460009081906001600160a01b03166379962ba1846132e96122f8565b6040516001600160e01b031960e085901b16815260048101929092526001600160a01b031660248201526044016040805180830381865afa158015613332573d6000803e3d6000fd5b505050506040513d601f19601f82011682018060405250810190613356919061510b565b949350505050565b60795460009081906001600160a01b03166379962ba18461337d6122f8565b6040516001600160e01b031960e085901b16815260048101929092526001600160a01b031660248201526044016040805180830381865afa1580156133c6573d6000803e3d6000fd5b505050506040513d601f19601f8201168201806040525081019061132b919061510b565b6001600160a01b0383166134315760405162461bcd60e51b815260206004820152600e60248201526d232927a6afad22a927afa0a2222960911b60448201526064016108f5565b80518251146134525760405162461bcd60e51b81526004016108f590614fcd565b600033905061347581856000868660405180602001604052806000815250613df5565b60005b835181101561354057600084828151811061349557613495614dba565b6020026020010151905060008483815181106134b3576134b3614dba565b6020908102919091018101516001600160a01b03891660009081526002835260408082208683529093529190912054909150818110156135055760405162461bcd60e51b81526004016108f59061543c565b6001600160a01b038816600090815260026020908152604080832095835294905292909220910390558061353881614ff6565b915050613478565b5060006001600160a01b0316846001600160a01b0316826001600160a01b03167f4a39dc06d4c0dbc64b70af90fd698a233a518aa5d07e595d983b8c0526c8f7fb8686604051613591929190614424565b60405180910390a450505050565b6127108111156135e35760405162461bcd60e51b815260206004820152600f60248201526e45786365656473206d61782062707360881b60448201526064016108f5565b600780546001600160a01b0384166001600160b01b03199091168117600160a01b61ffff851602179091556040518281527f90d7ec04bcb8978719414f82e52e4cb651db41d0e6f8cea6118c2191e6183adb9060200160405180910390a25050565b60006005805461365490614d58565b80601f016020809104026020016040519081016040528092919081815260200182805461368090614d58565b80156136cd5780601f106136a2576101008083540402835291602001916136cd565b820191906000526020600020905b8154815290600101906020018083116136b057829003601f168201915b5050505050905081600590816136e39190614e6d565b507fc9c7c3fe08b88b4df9d4d47ef47d2c43d55c025a0ba88ca442580ed9e7348a1681836040516110dd929190615466565b60008061372284866150ab565b60098054600181019091557f6e1540171b6c0c960b71a7020d9f60077f6af931a8bbf590da0223dacf75c7af018190556000818152600a602052604090209092508291506137708482614e6d565b50935093915050565b6001600160a01b03841661379f5760405162461bcd60e51b81526004016108f590615416565b81518351146137c05760405162461bcd60e51b81526004016108f590614fcd565b336137d081600087878787613df5565b60005b845181101561386c578381815181106137ee576137ee614dba565b602002602001015160026000886001600160a01b03166001600160a01b03168152602001908152602001600020600087848151811061382f5761382f614dba565b60200260200101518152602001908152602001600020600082825461385491906150ab565b9091555081905061386481614ff6565b9150506137d3565b50846001600160a01b031660006001600160a01b0316826001600160a01b03167f4a39dc06d4c0dbc64b70af90fd698a233a518aa5d07e595d983b8c0526c8f7fb87876040516138bd929190614424565b60405180910390a4610dd081600087878787614054565b6127108111156139185760405162461bcd60e51b815260206004820152600f60248201526e45786365656473206d61782062707360881b60448201526064016108f5565b6040805180820182526001600160a01b038481168083526020808401868152600089815260088352869020945185546001600160a01b031916941693909317845591516001909301929092559151838152909185917f7365cf4122f072a3365c20d54eff9b38d73c096c28e1892ec8f5b0e403a0f12d9101611c90565b60606139ba83836040518060600160405280602781526020016156c760279139614131565b9392505050565b6000828152600460205260409020610a938282614e6d565b6001600160a01b0384166139ff5760405162461bcd60e51b81526004016108f590615416565b33613a0f818787612f5088613daa565b6001600160a01b038616600090815260026020908152604080832087845290915290205483811015613a535760405162461bcd60e51b81526004016108f59061543c565b6001600160a01b0380881660009081526002602081815260408084208a855282528084208987039055938a16835290815282822088835290529081208054869290613a9f9084906150ab565b909155505060408051868152602081018690526001600160a01b03808916928a821692918616917fc3d58168c5ae7397731d063d5bbf3d657854427343f4c083240f7aacaa2d0f62910160405180910390a4611ba0828888888888613f01565b3360009081526041602052604081205460ff1615613b24575060131936013560601c90565b503390565b90565b60608282604051602001613b4192919061548b565b604051602081830303815290604052905092915050565b60608151600003613b7757505060408051602081019091526000815290565b60006040518060600160405280604081526020016156876040913990506000600384516002613ba691906150ab565b613bb09190614e13565b613bbb906004614de6565b6001600160401b03811115613bd257613bd2614474565b6040519080825280601f01601f191660200182016040528015613bfc576020820181803683370190505b509050600182016020820185865187015b80821015613c68576003820191508151603f8160121c168501518453600184019350603f81600c1c168501518453600184019350603f8160061c168501518453600184019350603f8116850151845350600183019250613c0d565b5050600386510660018114613c845760028114613c9757613c9f565b603d6001830353603d6002830353613c9f565b603d60018303535b509195945050505050565b606081600003613cd15750506040805180820190915260018152600360fc1b602082015290565b8160005b8115613cfb5780613ce581614ff6565b9150613cf49050600a83614e13565b9150613cd5565b6000816001600160401b03811115613d1557613d15614474565b6040519080825280601f01601f191660200182016040528015613d3f576020820181803683370190505b5090505b841561335657613d546001836154df565b9150613d61600a866154f2565b613d6c9060306150ab565b60f81b818381518110613d8157613d81614dba565b60200101906001600160f81b031916908160001a905350613da3600a86614e13565b9450613d43565b60408051600180825281830190925260609160009190602080830190803683370190505090508281600081518110613de457613de4614dba565b602090810291909101015292915050565b6001600160a01b038516613e7c5760005b8351811015613e7a57828181518110613e2157613e21614dba565b6020026020010151600d6000868481518110613e3f57613e3f614dba565b602002602001015181526020019081526020016000206000828254613e6491906150ab565b90915550613e73905081614ff6565b9050613e06565b505b6001600160a01b038416610d405760005b8351811015611ba057828181518110613ea857613ea8614dba565b6020026020010151600d6000868481518110613ec657613ec6614dba565b602002602001015181526020019081526020016000206000828254613eeb91906154df565b90915550613efa905081614ff6565b9050613e8d565b6001600160a01b0384163b15610d405760405163f23a6e6160e01b81526001600160a01b0385169063f23a6e6190613f459089908990889088908890600401615506565b6020604051808303816000875af1925050508015613f80575060408051601f3d908101601f19168201909252613f7d9181019061554b565b60015b61400257613f8c615568565b806308c379a003613fc55750613fa0615583565b80613fab5750613fc7565b8060405162461bcd60e51b81526004016108f59190614384565b505b60405162461bcd60e51b815260206004820152601060248201526f10a2a92198989a9aa922a1a2a4ab22a960811b60448201526064016108f5565b6001600160e01b0319811663f23a6e6160e01b14611ba05760405162461bcd60e51b815260206004820152600f60248201526e1513d2d15394d7d491529150d51151608a1b60448201526064016108f5565b6001600160a01b0384163b15610d405760405163bc197c8160e01b81526001600160a01b0385169063bc197c8190614098908990899088908890889060040161560c565b6020604051808303816000875af19250505080156140d3575060408051601f3d908101601f191682019092526140d09181019061554b565b60015b6140df57613f8c615568565b6001600160e01b0319811663bc197c8160e01b14611ba05760405162461bcd60e51b815260206004820152600f60248201526e1513d2d15394d7d491529150d51151608a1b60448201526064016108f5565b60606001600160a01b0384163b6141995760405162461bcd60e51b815260206004820152602660248201527f416464726573733a2064656c65676174652063616c6c20746f206e6f6e2d636f6044820152651b9d1c9858dd60d21b60648201526084016108f5565b600080856001600160a01b0316856040516141b4919061566a565b600060405180830381855af49150503d80600081146141ef576040519150601f19603f3d011682016040523d82523d6000602084013e6141f4565b606091505b509150915061420482828661420e565b9695505050505050565b6060831561421d5750816139ba565b82511561422d5782518084602001fd5b8160405162461bcd60e51b81526004016108f59190614384565b828054828255906000526020600020908101928215614282579160200282015b82811115614282578251825591602001919060010190614267565b5061428e929150614292565b5090565b5b8082111561428e5760008155600101614293565b6001600160a01b0381168114610a1957600080fd5b600080604083850312156142cf57600080fd5b82356142da816142a7565b946020939093013593505050565b6001600160e01b031981168114610a1957600080fd5b60006020828403121561431057600080fd5b81356139ba816142e8565b60006020828403121561432d57600080fd5b5035919050565b60005b8381101561434f578181015183820152602001614337565b50506000910152565b60008151808452614370816020860160208601614334565b601f01601f19169290920160200192915050565b6020815260006139ba6020830184614358565b6000602082840312156143a957600080fd5b81356139ba816142a7565b6000806000606084860312156143c957600080fd5b83356143d4816142a7565b95602085013595506040909401359392505050565b600081518084526020808501945080840160005b83811015614419578151875295820195908201906001016143fd565b509495945050505050565b60408152600061443760408301856143e9565b828103602084015261444981856143e9565b95945050505050565b6000806040838503121561446557600080fd5b50508035926020909101359150565b634e487b7160e01b600052604160045260246000fd5b601f8201601f191681016001600160401b03811182821017156144af576144af614474565b6040525050565b60405161012081016001600160401b03811182821017156144d9576144d9614474565b60405290565b600082601f8301126144f057600080fd5b81356001600160401b0381111561450957614509614474565b604051614520601f8301601f19166020018261448a565b81815284602083860101111561453557600080fd5b816020850160208301376000918101602001919091529392505050565b60008060006060848603121561456757600080fd5b83356001600160401b038082111561457e57600080fd5b61458a878388016144df565b945060208601359150808211156145a057600080fd5b6145ac878388016144df565b935060408601359150808211156145c257600080fd5b506145cf868287016144df565b9150509250925092565b60006001600160401b038211156145f2576145f2614474565b5060051b60200190565b600082601f83011261460d57600080fd5b8135602061461a826145d9565b604051614627828261448a565b83815260059390931b850182019282810191508684111561464757600080fd5b8286015b84811015614662578035835291830191830161464b565b509695505050505050565b600080600080600060a0868803121561468557600080fd5b8535614690816142a7565b945060208601356146a0816142a7565b935060408601356001600160401b03808211156146bc57600080fd5b6146c889838a016145fc565b945060608801359150808211156146de57600080fd5b6146ea89838a016145fc565b9350608088013591508082111561470057600080fd5b5061470d888289016144df565b9150509295509295909350565b6000806040838503121561472d57600080fd5b82356001600160401b038082111561474457600080fd5b818501915085601f83011261475857600080fd5b81356020614765826145d9565b604051614772828261448a565b83815260059390931b850182019282810191508984111561479257600080fd5b948201945b838610156147b95785356147aa816142a7565b82529482019490820190614797565b965050860135925050808211156147cf57600080fd5b506147dc858286016145fc565b9150509250929050565b6020815260006139ba60208301846143e9565b600080600080600060a0868803121561481157600080fd5b8535945060208601356001600160401b038082111561482f57600080fd5b61483b89838a016144df565b9550604088013591508082111561485157600080fd5b61485d89838a016145fc565b9450606088013591508082111561487357600080fd5b50614880888289016145fc565b95989497509295608001359392505050565b6000806000606084860312156148a757600080fd5b83356148b2816142a7565b925060208401356001600160401b03808211156148ce57600080fd5b6148da878388016145fc565b935060408601359150808211156148f057600080fd5b506145cf868287016145fc565b60006020828403121561490f57600080fd5b81356001600160401b0381111561492557600080fd5b613356848285016144df565b6000806000806080858703121561494757600080fd5b8435614952816142a7565b935060208501356001600160401b038082111561496e57600080fd5b61497a888389016145fc565b9450604087013591508082111561499057600080fd5b61499c888389016145fc565b935060608701359150808211156149b257600080fd5b506149bf878288016144df565b91505092959194509250565b6000806000606084860312156149e057600080fd5b8335925060208401356149f2816142a7565b929592945050506040919091013590565b8015158114610a1957600080fd5b60008060408385031215614a2457600080fd5b8235614a2f816142a7565b91506020830135614a3f81614a03565b809150509250929050565b60008060208385031215614a5d57600080fd5b82356001600160401b0380821115614a7457600080fd5b818501915085601f830112614a8857600080fd5b813581811115614a9757600080fd5b8660208260051b8501011115614aac57600080fd5b60209290920196919550909350505050565b6000602080830181845280855180835260408601915060408160051b870101925083870160005b82811015614b1357603f19888603018452614b01858351614358565b94509285019290850190600101614ae5565b5092979650505050505050565b60008060008060808587031215614b3657600080fd5b8435614b41816142a7565b93506020850135925060408501356001600160401b03811115614b6357600080fd5b614b6f878288016144df565b949793965093946060013593505050565b60008060408385031215614b9357600080fd5b8235915060208301356001600160401b0380821115614bb157600080fd5b908401906101208287031215614bc657600080fd5b614bce6144b6565b823582811115614bdd57600080fd5b614be9888286016144df565b825250602083013582811115614bfe57600080fd5b614c0a888286016144df565b602083015250604083013582811115614c2257600080fd5b614c2e888286016144df565b604083015250606083013582811115614c4657600080fd5b614c52888286016144df565b6060830152506080830135608082015260a083013560a082015260c083013560c082015260e083013560e0820152610100915081830135828201528093505050509250929050565b60008060408385031215614cad57600080fd5b8235614cb8816142a7565b91506020830135614a3f816142a7565b600080600080600060a08688031215614ce057600080fd5b8535614ceb816142a7565b94506020860135614cfb816142a7565b9350604086013592506060860135915060808601356001600160401b03811115614d2457600080fd5b61470d888289016144df565b6020808252600e908201526d1b9bdd081c9959da5cdd195c995960921b604082015260600190565b600181811c90821680614d6c57607f821691505b602082108103614d8c57634e487b7160e01b600052602260045260246000fd5b50919050565b6020808252600e908201526d139bdd08185d5d1a1bdc9a5e995960921b604082015260600190565b634e487b7160e01b600052603260045260246000fd5b634e487b7160e01b600052601160045260246000fd5b808202811582820484141761089857610898614dd0565b634e487b7160e01b600052601260045260246000fd5b600082614e2257614e22614dfd565b500490565b601f821115610a9357600081815260208120601f850160051c81016020861015614e4e5750805b601f850160051c820191505b81811015610d4057828155600101614e5a565b81516001600160401b03811115614e8657614e86614474565b614e9a81614e948454614d58565b84614e27565b602080601f831160018114614ecf5760008415614eb75750858301515b600019600386901b1c1916600185901b178555610d40565b600085815260208120601f198616915b82811015614efe57888601518255948401946001909101908401614edf565b5085821015614f1c5787850151600019600388901b60f8161c191681555b5050505050600190811b01905550565b60008154614f3981614d58565b808552602060018381168015614f565760018114614f7057614f9e565b60ff1985168884015283151560051b880183019550614f9e565b866000528260002060005b85811015614f965781548a8201860152908301908401614f7b565b890184019650505b505050505092915050565b6001600160a01b038316815260406020820181905260009061335690830184614f2c565b6020808252600f908201526e0988a9c8ea890be9a92a69a82a8869608b1b604082015260600190565b60006001820161500857615008614dd0565b5060010190565b85815260a06020820152600061502860a08301876143e9565b828103604084015261503a81876143e9565b606084019590955250506001600160a01b03919091166080909101529392505050565b6001600160a01b038816815260e06020820181905260009061508190830189614f2c565b6040830197909752506060810194909452911515608084015260a083015260c09091015292915050565b8082018082111561089857610898614dd0565b6000808335601e198436030181126150d557600080fd5b8301803591506001600160401b038211156150ef57600080fd5b60200191503681900382131561510457600080fd5b9250929050565b6000806040838503121561511e57600080fd5b825161512981614a03565b6020939093015192949293505050565b60006020828403121561514b57600080fd5b81516139ba81614a03565b60008151615168818560208601614334565b9290920192915050565b607b60f81b81526000855161518e816001850160208a01614334565b8083019050600b60fa1b80600183015286516151b1816002850160208b01614334565b6002920191820181905285516151ce816003850160208a01614334565b600392019182015283516151e9816004840160208801614334565b607d60f81b600492909101918201526005019695505050505050565b7f646174613a6170706c69636174696f6e2f6a736f6e3b6261736536342c00000081526000825161523d81601d850160208701614334565b91909101601d0192915050565b607b60f81b815260008851615266816001850160208d01614334565b8083019050600b60fa1b8060018301528951615289816002850160208e01614334565b6002920191820181905288516152a6816003850160208d01614334565b6003920191820181905287516152c3816004850160208c01614334565b600492019182015285516152de816005840160208a01614334565b615319615306615313615306615300600586880101600b60fa1b815260010190565b8a615156565b600b60fa1b815260010190565b87615156565b9b9a5050505050505050505050565b6000835161533a818460208801614334565b600b60fa1b9083019081528351615358816001840160208801614334565b607d60f81b60019290910191820152600201949350505050565b60008351615384818460208801614334565b835190830190615398818360208801614334565b01949350505050565b607b60f81b8152600084516153bd816001850160208901614334565b8083019050600b60fa1b80600183015285516153e0816002850160208a01614334565b600292019182015283516153fb816003840160208801614334565b607d60f81b6003929091019182015260040195945050505050565b6020808252600c908201526b2a27afad22a927afa0a2222960a11b604082015260600190565b60208082526010908201526f125394d551919250d251539517d0905360821b604082015260600190565b6040815260006154796040830185614358565b82810360208401526144498185614358565b6000601160f91b80835284516154a8816001860160208901614334565b62111d1160e91b60019185019182015284516154cb816004840160208901614334565b016004810191909152600501949350505050565b8181038181111561089857610898614dd0565b60008261550157615501614dfd565b500690565b6001600160a01b03868116825285166020820152604081018490526060810183905260a06080820181905260009061554090830184614358565b979650505050505050565b60006020828403121561555d57600080fd5b81516139ba816142e8565b600060033d1115613b295760046000803e5060005160e01c90565b600060443d10156155915790565b6040516003193d81016004833e81513d6001600160401b0381602484011181841117156155c057505050505090565b82850191508151818111156155d85750505050505090565b843d87010160208285010111156155f25750505050505090565b6156016020828601018761448a565b509095945050505050565b6001600160a01b0386811682528516602082015260a060408201819052600090615638908301866143e9565b828103606084015261564a81866143e9565b9050828103608084015261565e8185614358565b98975050505050505050565b6000825161567c818460208701614334565b919091019291505056fe4142434445464748494a4b4c4d4e4f505152535455565758595a6162636465666768696a6b6c6d6e6f707172737475767778797a303132333435363738392b2f416464726573733a206c6f772d6c6576656c2064656c65676174652063616c6c206661696c6564a2646970667358221220c1740cf1850b0ef748c06bbfd3b6258a8c6cb17c0359da96e57641949714116b64736f6c6343000811003368747470733a2f2f697066732e696f2f697066732f62616679626569656e3772363463636b36726432366f336168747233323334376b6f3269706f6668617770757a7174336e376f326c7370746e65712f313030312e6a736f6e",
  "linkReferences": {},
  "deployedLinkReferences": {}
}