{
    "_format": "hh-sol-artifact-1",
    "contractName": "GoriDrop",
    "sourceName": "contracts/GoriDrop.sol",
    "abi": [
        {
            "anonymous": false,
            "inputs": [
                {
                    "indexed": true,
                    "internalType": "address",
                    "name": "tokenAddress",
                    "type": "address"
                },
                {
                    "indexed": true,
                    "internalType": "address",
                    "name": "tokenOwner",
                    "type": "address"
                },
                {
                    "indexed": true,
                    "internalType": "address",
                    "name": "recipient",
                    "type": "address"
                },
                {
                    "indexed": false,
                    "internalType": "uint256",
                    "name": "tokenId",
                    "type": "uint256"
                },
                {
                    "indexed": false,
                    "internalType": "uint256",
                    "name": "amount",
                    "type": "uint256"
                }
            ],
            "name": "AirdropFailed",
            "type": "event"
        },
        {
            "anonymous": false,
            "inputs": [
                {
                    "indexed": false,
                    "internalType": "string",
                    "name": "prevURI",
                    "type": "string"
                },
                {
                    "indexed": false,
                    "internalType": "string",
                    "name": "newURI",
                    "type": "string"
                }
            ],
            "name": "ContractURIUpdated",
            "type": "event"
        },
        {
            "anonymous": false,
            "inputs": [
                {
                    "indexed": false,
                    "internalType": "uint8",
                    "name": "version",
                    "type": "uint8"
                }
            ],
            "name": "Initialized",
            "type": "event"
        },
        {
            "anonymous": false,
            "inputs": [
                {
                    "indexed": true,
                    "internalType": "bytes32",
                    "name": "role",
                    "type": "bytes32"
                },
                {
                    "indexed": true,
                    "internalType": "bytes32",
                    "name": "previousAdminRole",
                    "type": "bytes32"
                },
                {
                    "indexed": true,
                    "internalType": "bytes32",
                    "name": "newAdminRole",
                    "type": "bytes32"
                }
            ],
            "name": "RoleAdminChanged",
            "type": "event"
        },
        {
            "anonymous": false,
            "inputs": [
                {
                    "indexed": true,
                    "internalType": "bytes32",
                    "name": "role",
                    "type": "bytes32"
                },
                {
                    "indexed": true,
                    "internalType": "address",
                    "name": "account",
                    "type": "address"
                },
                {
                    "indexed": true,
                    "internalType": "address",
                    "name": "sender",
                    "type": "address"
                }
            ],
            "name": "RoleGranted",
            "type": "event"
        },
        {
            "anonymous": false,
            "inputs": [
                {
                    "indexed": true,
                    "internalType": "bytes32",
                    "name": "role",
                    "type": "bytes32"
                },
                {
                    "indexed": true,
                    "internalType": "address",
                    "name": "account",
                    "type": "address"
                },
                {
                    "indexed": true,
                    "internalType": "address",
                    "name": "sender",
                    "type": "address"
                }
            ],
            "name": "RoleRevoked",
            "type": "event"
        },
        {
            "inputs": [],
            "name": "DEFAULT_ADMIN_ROLE",
            "outputs": [
                {
                    "internalType": "bytes32",
                    "name": "",
                    "type": "bytes32"
                }
            ],
            "stateMutability": "view",
            "type": "function"
        },
        {
            "inputs": [
                {
                    "internalType": "address",
                    "name": "_tokenAddress",
                    "type": "address"
                },
                {
                    "internalType": "address",
                    "name": "_tokenOwner",
                    "type": "address"
                },
                {
                    "components": [
                        {
                            "internalType": "address",
                            "name": "recipient",
                            "type": "address"
                        },
                        {
                            "internalType": "uint256",
                            "name": "tokenId",
                            "type": "uint256"
                        },
                        {
                            "internalType": "uint256",
                            "name": "amount",
                            "type": "uint256"
                        }
                    ],
                    "internalType": "struct IAirdropERC1155.AirdropContent[]",
                    "name": "_contents",
                    "type": "tuple[]"
                }
            ],
            "name": "airdropERC1155",
            "outputs": [],
            "stateMutability": "nonpayable",
            "type": "function"
        },
        {
            "inputs": [],
            "name": "contractType",
            "outputs": [
                {
                    "internalType": "bytes32",
                    "name": "",
                    "type": "bytes32"
                }
            ],
            "stateMutability": "pure",
            "type": "function"
        },
        {
            "inputs": [],
            "name": "contractURI",
            "outputs": [
                {
                    "internalType": "string",
                    "name": "",
                    "type": "string"
                }
            ],
            "stateMutability": "view",
            "type": "function"
        },
        {
            "inputs": [],
            "name": "contractVersion",
            "outputs": [
                {
                    "internalType": "uint8",
                    "name": "",
                    "type": "uint8"
                }
            ],
            "stateMutability": "pure",
            "type": "function"
        },
        {
            "inputs": [
                {
                    "internalType": "bytes32",
                    "name": "role",
                    "type": "bytes32"
                }
            ],
            "name": "getRoleAdmin",
            "outputs": [
                {
                    "internalType": "bytes32",
                    "name": "",
                    "type": "bytes32"
                }
            ],
            "stateMutability": "view",
            "type": "function"
        },
        {
            "inputs": [
                {
                    "internalType": "bytes32",
                    "name": "role",
                    "type": "bytes32"
                },
                {
                    "internalType": "uint256",
                    "name": "index",
                    "type": "uint256"
                }
            ],
            "name": "getRoleMember",
            "outputs": [
                {
                    "internalType": "address",
                    "name": "member",
                    "type": "address"
                }
            ],
            "stateMutability": "view",
            "type": "function"
        },
        {
            "inputs": [
                {
                    "internalType": "bytes32",
                    "name": "role",
                    "type": "bytes32"
                }
            ],
            "name": "getRoleMemberCount",
            "outputs": [
                {
                    "internalType": "uint256",
                    "name": "count",
                    "type": "uint256"
                }
            ],
            "stateMutability": "view",
            "type": "function"
        },
        {
            "inputs": [
                {
                    "internalType": "address",
                    "name": "_tokenAddress",
                    "type": "address"
                },
                {
                    "internalType": "address",
                    "name": "_tokenOwner",
                    "type": "address"
                },
                {
                    "components": [
                        {
                            "internalType": "address",
                            "name": "recipient",
                            "type": "address"
                        },
                        {
                            "internalType": "uint256",
                            "name": "tokenId",
                            "type": "uint256"
                        },
                        {
                            "internalType": "uint256",
                            "name": "amount",
                            "type": "uint256"
                        }
                    ],
                    "internalType": "struct IAirdropERC1155.AirdropContent[]",
                    "name": "_contents",
                    "type": "tuple[]"
                }
            ],
            "name": "goridrop",
            "outputs": [],
            "stateMutability": "nonpayable",
            "type": "function"
        },
        {
            "inputs": [
                {
                    "internalType": "bytes32",
                    "name": "role",
                    "type": "bytes32"
                },
                {
                    "internalType": "address",
                    "name": "account",
                    "type": "address"
                }
            ],
            "name": "grantRole",
            "outputs": [],
            "stateMutability": "nonpayable",
            "type": "function"
        },
        {
            "inputs": [
                {
                    "internalType": "bytes32",
                    "name": "role",
                    "type": "bytes32"
                },
                {
                    "internalType": "address",
                    "name": "account",
                    "type": "address"
                }
            ],
            "name": "hasRole",
            "outputs": [
                {
                    "internalType": "bool",
                    "name": "",
                    "type": "bool"
                }
            ],
            "stateMutability": "view",
            "type": "function"
        },
        {
            "inputs": [
                {
                    "internalType": "bytes32",
                    "name": "role",
                    "type": "bytes32"
                },
                {
                    "internalType": "address",
                    "name": "account",
                    "type": "address"
                }
            ],
            "name": "hasRoleWithSwitch",
            "outputs": [
                {
                    "internalType": "bool",
                    "name": "",
                    "type": "bool"
                }
            ],
            "stateMutability": "view",
            "type": "function"
        },
        {
            "inputs": [
                {
                    "internalType": "address",
                    "name": "_defaultAdmin",
                    "type": "address"
                },
                {
                    "internalType": "string",
                    "name": "_contractURI",
                    "type": "string"
                },
                {
                    "internalType": "address[]",
                    "name": "_trustedForwarders",
                    "type": "address[]"
                }
            ],
            "name": "initialize",
            "outputs": [],
            "stateMutability": "nonpayable",
            "type": "function"
        },
        {
            "inputs": [
                {
                    "internalType": "address",
                    "name": "forwarder",
                    "type": "address"
                }
            ],
            "name": "isTrustedForwarder",
            "outputs": [
                {
                    "internalType": "bool",
                    "name": "",
                    "type": "bool"
                }
            ],
            "stateMutability": "view",
            "type": "function"
        },
        {
            "inputs": [
                {
                    "internalType": "bytes[]",
                    "name": "data",
                    "type": "bytes[]"
                }
            ],
            "name": "multicall",
            "outputs": [
                {
                    "internalType": "bytes[]",
                    "name": "results",
                    "type": "bytes[]"
                }
            ],
            "stateMutability": "nonpayable",
            "type": "function"
        },
        {
            "inputs": [
                {
                    "internalType": "bytes32",
                    "name": "role",
                    "type": "bytes32"
                },
                {
                    "internalType": "address",
                    "name": "account",
                    "type": "address"
                }
            ],
            "name": "renounceRole",
            "outputs": [],
            "stateMutability": "nonpayable",
            "type": "function"
        },
        {
            "inputs": [
                {
                    "internalType": "bytes32",
                    "name": "role",
                    "type": "bytes32"
                },
                {
                    "internalType": "address",
                    "name": "account",
                    "type": "address"
                }
            ],
            "name": "revokeRole",
            "outputs": [],
            "stateMutability": "nonpayable",
            "type": "function"
        },
        {
            "inputs": [
                {
                    "internalType": "string",
                    "name": "_uri",
                    "type": "string"
                }
            ],
            "name": "setContractURI",
            "outputs": [],
            "stateMutability": "nonpayable",
            "type": "function"
        }
    ],
    "bytecode": "0x60806040523480156200001157600080fd5b50600054610100900460ff1615808015620000335750600054600160ff909116105b8062000063575062000050306200013d60201b620010ac1760201c565b15801562000063575060005460ff166001145b620000cb5760405162461bcd60e51b815260206004820152602e60248201527f496e697469616c697a61626c653a20636f6e747261637420697320616c72656160448201526d191e481a5b9a5d1a585b1a5e995960921b606482015260840160405180910390fd5b6000805460ff191660011790558015620000ef576000805461ff0019166101001790555b801562000136576000805461ff0019169055604051600181527f7f26b83ff96e1f2b6a682f133852f6798a09c465da95921460cefb38474024989060200160405180910390a15b506200014c565b6001600160a01b03163b151590565b611fd2806200015c6000396000f3fe608060405234801561001057600080fd5b50600436106101165760003560e01c8063a0a8e460116100a2578063ca15c87311610071578063ca15c87314610273578063cb2ef6f714610286578063d547741f1461029d578063e8a3d485146102b0578063f655fa9b146102c557600080fd5b8063a0a8e46014610229578063a217fddf14610238578063a32fa5b314610240578063ac9650d81461025357600080fd5b806341444690116100e95780634144469014610189578063572b6c051461019c5780639010d07c146101d857806391d1485414610203578063938e3d7b1461021657600080fd5b8063248a9ca31461011b5780632f2ff15d1461014e57806336568abe146101635780633a105cfb14610176575b600080fd5b61013b6101293660046117b1565b60009081526003602052604090205490565b6040519081526020015b60405180910390f35b61016161015c3660046117e6565b6102d8565b005b6101616101713660046117e6565b610377565b6101616101843660046118c9565b6103d9565b6101616101973660046119ad565b61050a565b6101c86101aa366004611a3e565b6001600160a01b031660009081526069602052604090205460ff1690565b6040519015158152602001610145565b6101eb6101e6366004611a59565b6108c1565b6040516001600160a01b039091168152602001610145565b6101c86102113660046117e6565b6109b0565b610161610224366004611a7b565b6109db565b60405160028152602001610145565b61013b600081565b6101c861024e3660046117e6565b610a2c565b610266610261366004611ab8565b610a82565b6040516101459190611b7d565b61013b6102813660046117b1565b610b77565b6d41697264726f704552433131353560901b61013b565b6101616102ab3660046117e6565b610c00565b6102b8610c19565b6040516101459190611bdf565b6101616102d33660046119ad565b610ca7565b6000828152600360205260409020546102f190336110bb565b60008281526002602090815260408083206001600160a01b038516845290915290205460ff16156103695760405162461bcd60e51b815260206004820152601d60248201527f43616e206f6e6c79206772616e7420746f206e6f6e20686f6c6465727300000060448201526064015b60405180910390fd5b610373828261113b565b5050565b336001600160a01b038216146103cf5760405162461bcd60e51b815260206004820152601a60248201527f43616e206f6e6c792072656e6f756e636520666f722073656c660000000000006044820152606401610360565b610373828261114f565b600054610100900460ff16158080156103f95750600054600160ff909116105b806104135750303b158015610413575060005460ff166001145b6104765760405162461bcd60e51b815260206004820152602e60248201527f496e697469616c697a61626c653a20636f6e747261637420697320616c72656160448201526d191e481a5b9a5d1a585b1a5e995960921b6064820152608401610360565b6000805460ff191660011790558015610499576000805461ff0019166101001790555b6104a2826111a6565b6104ab83611235565b6104b660008561113b565b6104be611311565b8015610504576000805461ff0019169055604051600181527f7f26b83ff96e1f2b6a682f133852f6798a09c465da95921460cefb38474024989060200160405180910390a15b50505050565b60026005540361055c5760405162461bcd60e51b815260206004820152601f60248201527f5265656e7472616e637947756172643a207265656e7472616e742063616c6c006044820152606401610360565b600260055561056e6000610211611342565b6105ac5760405162461bcd60e51b815260206004820152600f60248201526e2737ba1030baba3437b934bd32b21760891b6044820152606401610360565b8060005b818110156108b457856001600160a01b031663f242432a868686858181106105da576105da611bf2565b6105f09260206060909202019081019150611a3e565b87878681811061060257610602611bf2565b9050606002016020013588888781811061061e5761061e611bf2565b905060600201604001356040518563ffffffff1660e01b81526004016106479493929190611c08565b600060405180830381600087803b15801561066157600080fd5b505af1925050508015610672575060015b6108ac5783838281811061068857610688611bf2565b90506060020160400135866001600160a01b031662fdd58e878787868181106106b3576106b3611bf2565b905060600201602001356040518363ffffffff1660e01b81526004016106ee9291906001600160a01b03929092168252602082015260400190565b602060405180830381865afa15801561070b573d6000803e3d6000fd5b505050506040513d601f19601f8201168201806040525081019061072f9190611c40565b101580156107a8575060405163e985e9c560e01b81526001600160a01b03868116600483015230602483015287169063e985e9c590604401602060405180830381865afa158015610784573d6000803e3d6000fd5b505050506040513d601f19601f820116820180604052508101906107a89190611c59565b6107ee5760405162461bcd60e51b8152602060048201526017602482015276139bdd0818985b185b98d9481bdc88185c1c1c9bdd9959604a1b6044820152606401610360565b83838281811061080057610800611bf2565b6108169260206060909202019081019150611a3e565b6001600160a01b0316856001600160a01b0316876001600160a01b03167fa9f0deecaf199b4606e18b33260590c22f3d317bb0abcb3c5841577de5da38f787878681811061086657610866611bf2565b9050606002016020013588888781811061088257610882611bf2565b905060600201604001356040516108a3929190918252602082015260400190565b60405180910390a45b6001016105b0565b5050600160055550505050565b60008281526004602052604081205481805b828110156109a65760008681526004602090815260408083208484526001019091529020546001600160a01b03161561094f5784820361093d5760008681526004602090815260408083209383526001909301905220546001600160a01b031692506109aa915050565b610948600183611c91565b9150610994565b61095a8660006109b0565b80156109815750600086815260046020908152604080832083805260020190915290205481145b1561099457610991600183611c91565b91505b61099f600182611c91565b90506108d3565b5050505b92915050565b60009182526002602090815260408084206001600160a01b0393909316845291905290205460ff1690565b6109e3611351565b610a205760405162461bcd60e51b815260206004820152600e60248201526d139bdd08185d5d1a1bdc9a5e995960921b6044820152606401610360565b610a2981611235565b50565b600082815260026020908152604080832083805290915281205460ff16610a79575060008281526002602090815260408083206001600160a01b038516845290915290205460ff166109aa565b50600192915050565b60608167ffffffffffffffff811115610a9d57610a9d611812565b604051908082528060200260200182016040528015610ad057816020015b6060815260200190600190039081610abb5790505b50905060005b82811015610b7057610b4030858584818110610af457610af4611bf2565b9050602002810190610b069190611ca4565b8080601f01602080910402602001604051908101604052809392919081815260200183838082843760009201919091525061135f92505050565b828281518110610b5257610b52611bf2565b60200260200101819052508080610b6890611cf2565b915050610ad6565b5092915050565b600081815260046020526040812054815b81811015610bdb5760008481526004602090815260408083208484526001019091529020546001600160a01b031615610bc957610bc6600184611c91565b92505b610bd4600182611c91565b9050610b88565b50610be78360006109b0565b15610bfa57610bf7600183611c91565b91505b50919050565b6000828152600360205260409020546103cf90336110bb565b60018054610c2690611d0b565b80601f0160208091040260200160405190810160405280929190818152602001828054610c5290611d0b565b8015610c9f5780601f10610c7457610100808354040283529160200191610c9f565b820191906000526020600020905b815481529060010190602001808311610c8257829003601f168201915b505050505081565b600260055403610cf95760405162461bcd60e51b815260206004820152601f60248201527f5265656e7472616e637947756172643a207265656e7472616e742063616c6c006044820152606401610360565b600260055560cd6000610d0a611342565b6001600160a01b0316815260208101919091526040016000205460ff1615610d695760405162461bcd60e51b8152602060048201526012602482015271105b1c9958591e48185a5c991c9bdc1c195960721b6044820152606401610360565b8060005b818110156108b457856001600160a01b031663f242432a86868685818110610d9757610d97611bf2565b610dad9260206060909202019081019150611a3e565b878786818110610dbf57610dbf611bf2565b90506060020160200135888887818110610ddb57610ddb611bf2565b905060600201604001356040518563ffffffff1660e01b8152600401610e049493929190611c08565b600060405180830381600087803b158015610e1e57600080fd5b505af1925050508015610e2f575060015b61106d57838382818110610e4557610e45611bf2565b90506060020160400135866001600160a01b031662fdd58e87878786818110610e7057610e70611bf2565b905060600201602001356040518363ffffffff1660e01b8152600401610eab9291906001600160a01b03929092168252602082015260400190565b602060405180830381865afa158015610ec8573d6000803e3d6000fd5b505050506040513d601f19601f82011682018060405250810190610eec9190611c40565b10158015610f65575060405163e985e9c560e01b81526001600160a01b03868116600483015230602483015287169063e985e9c590604401602060405180830381865afa158015610f41573d6000803e3d6000fd5b505050506040513d601f19601f82011682018060405250810190610f659190611c59565b610fab5760405162461bcd60e51b8152602060048201526017602482015276139bdd0818985b185b98d9481bdc88185c1c1c9bdd9959604a1b6044820152606401610360565b838382818110610fbd57610fbd611bf2565b610fd39260206060909202019081019150611a3e565b6001600160a01b0316856001600160a01b0316876001600160a01b03167fa9f0deecaf199b4606e18b33260590c22f3d317bb0abcb3c5841577de5da38f787878681811061102357611023611bf2565b9050606002016020013588888781811061103f5761103f611bf2565b90506060020160400135604051611060929190918252602082015260400190565b60405180910390a46110a4565b600160cd600061107b611342565b6001600160a01b031681526020810191909152604001600020805460ff19169115159190911790555b600101610d6d565b6001600160a01b03163b151590565b60008281526002602090815260408083206001600160a01b038516845290915290205460ff16610373576110f9816001600160a01b03166014611453565b611104836020611453565b604051602001611115929190611d3f565b60408051601f198184030181529082905262461bcd60e51b825261036091600401611bdf565b61114582826115f6565b6103738282611651565b61115982826116be565b60008281526004602090815260408083206001600160a01b03851680855260028201808552838620805487526001909301855292852080546001600160a01b031916905584529152555050565b600054610100900460ff166111cd5760405162461bcd60e51b815260040161036090611dac565b60005b8151811015610373576001606960008484815181106111f1576111f1611bf2565b6020908102919091018101516001600160a01b03168252810191909152604001600020805460ff19169115159190911790558061122d81611cf2565b9150506111d0565b60006001805461124490611d0b565b80601f016020809104026020016040519081016040528092919081815260200182805461127090611d0b565b80156112bd5780601f10611292576101008083540402835291602001916112bd565b820191906000526020600020905b8154815290600101906020018083116112a057829003601f168201915b5050505050905081600190816112d39190611e46565b507fc9c7c3fe08b88b4df9d4d47ef47d2c43d55c025a0ba88ca442580ed9e7348a168183604051611305929190611f06565b60405180910390a15050565b600054610100900460ff166113385760405162461bcd60e51b815260040161036090611dac565b611340611720565b565b600061134c61174e565b905090565b600061134c81610211611342565b60606001600160a01b0383163b6113c75760405162461bcd60e51b815260206004820152602660248201527f416464726573733a2064656c65676174652063616c6c20746f206e6f6e2d636f6044820152651b9d1c9858dd60d21b6064820152608401610360565b600080846001600160a01b0316846040516113e29190611f2b565b600060405180830381855af49150503d806000811461141d576040519150601f19603f3d011682016040523d82523d6000602084013e611422565b606091505b509150915061144a8282604051806060016040528060278152602001611f7660279139611778565b95945050505050565b60606000611462836002611f47565b61146d906002611c91565b67ffffffffffffffff81111561148557611485611812565b6040519080825280601f01601f1916602001820160405280156114af576020820181803683370190505b509050600360fc1b816000815181106114ca576114ca611bf2565b60200101906001600160f81b031916908160001a905350600f60fb1b816001815181106114f9576114f9611bf2565b60200101906001600160f81b031916908160001a905350600061151d846002611f47565b611528906001611c91565b90505b60018111156115a0576f181899199a1a9b1b9c1cb0b131b232b360811b85600f166010811061155c5761155c611bf2565b1a60f81b82828151811061157257611572611bf2565b60200101906001600160f81b031916908160001a90535060049490941c9361159981611f5e565b905061152b565b5083156115ef5760405162461bcd60e51b815260206004820181905260248201527f537472696e67733a20686578206c656e67746820696e73756666696369656e746044820152606401610360565b9392505050565b60008281526002602090815260408083206001600160a01b0385168085529252808320805460ff1916600117905551339285917f2f8788117e7eff1d82e926ec794901d17c78024a50270940304540a733656f0d9190a45050565b6000828152600460205260408120805491600191906116708385611c91565b9091555050600092835260046020908152604080852083865260018101835281862080546001600160a01b039096166001600160a01b03199096168617905593855260029093019052912055565b6116c882826110bb565b60008281526002602090815260408083206001600160a01b0385168085529252808320805460ff1916905551339285917ff6391f5c32d9c69d2a47ea670b442974b53935d1edc7fd64eb21e047a839171b9190a45050565b600054610100900460ff166117475760405162461bcd60e51b815260040161036090611dac565b6001600555565b3360009081526069602052604081205460ff1615611773575060131936013560601c90565b503390565b606083156117875750816115ef565b8251156117975782518084602001fd5b8160405162461bcd60e51b81526004016103609190611bdf565b6000602082840312156117c357600080fd5b5035919050565b80356001600160a01b03811681146117e157600080fd5b919050565b600080604083850312156117f957600080fd5b82359150611809602084016117ca565b90509250929050565b634e487b7160e01b600052604160045260246000fd5b604051601f8201601f1916810167ffffffffffffffff8111828210171561185157611851611812565b604052919050565b600082601f83011261186a57600080fd5b813567ffffffffffffffff81111561188457611884611812565b611897601f8201601f1916602001611828565b8181528460208386010111156118ac57600080fd5b816020850160208301376000918101602001919091529392505050565b6000806000606084860312156118de57600080fd5b6118e7846117ca565b925060208085013567ffffffffffffffff8082111561190557600080fd5b61191188838901611859565b9450604087013591508082111561192757600080fd5b818701915087601f83011261193b57600080fd5b81358181111561194d5761194d611812565b8060051b915061195e848301611828565b818152918301840191848101908a84111561197857600080fd5b938501935b8385101561199d5761198e856117ca565b8252938501939085019061197d565b8096505050505050509250925092565b600080600080606085870312156119c357600080fd5b6119cc856117ca565b93506119da602086016117ca565b9250604085013567ffffffffffffffff808211156119f757600080fd5b818701915087601f830112611a0b57600080fd5b813581811115611a1a57600080fd5b886020606083028501011115611a2f57600080fd5b95989497505060200194505050565b600060208284031215611a5057600080fd5b6115ef826117ca565b60008060408385031215611a6c57600080fd5b50508035926020909101359150565b600060208284031215611a8d57600080fd5b813567ffffffffffffffff811115611aa457600080fd5b611ab084828501611859565b949350505050565b60008060208385031215611acb57600080fd5b823567ffffffffffffffff80821115611ae357600080fd5b818501915085601f830112611af757600080fd5b813581811115611b0657600080fd5b8660208260051b8501011115611b1b57600080fd5b60209290920196919550909350505050565b60005b83811015611b48578181015183820152602001611b30565b50506000910152565b60008151808452611b69816020860160208601611b2d565b601f01601f19169290920160200192915050565b6000602080830181845280855180835260408601915060408160051b870101925083870160005b82811015611bd257603f19888603018452611bc0858351611b51565b94509285019290850190600101611ba4565b5092979650505050505050565b6020815260006115ef6020830184611b51565b634e487b7160e01b600052603260045260246000fd5b6001600160a01b0394851681529290931660208301526040820152606081019190915260a06080820181905260009082015260c00190565b600060208284031215611c5257600080fd5b5051919050565b600060208284031215611c6b57600080fd5b815180151581146115ef57600080fd5b634e487b7160e01b600052601160045260246000fd5b808201808211156109aa576109aa611c7b565b6000808335601e19843603018112611cbb57600080fd5b83018035915067ffffffffffffffff821115611cd657600080fd5b602001915036819003821315611ceb57600080fd5b9250929050565b600060018201611d0457611d04611c7b565b5060010190565b600181811c90821680611d1f57607f821691505b602082108103610bfa57634e487b7160e01b600052602260045260246000fd5b7402832b936b4b9b9b4b7b7399d1030b1b1b7bab73a1605d1b815260008351611d6f816015850160208801611b2d565b7001034b99036b4b9b9b4b733903937b6329607d1b6015918401918201528351611da0816026840160208801611b2d565b01602601949350505050565b6020808252602b908201527f496e697469616c697a61626c653a20636f6e7472616374206973206e6f74206960408201526a6e697469616c697a696e6760a81b606082015260800190565b601f821115611e4157600081815260208120601f850160051c81016020861015611e1e5750805b601f850160051c820191505b81811015611e3d57828155600101611e2a565b5050505b505050565b815167ffffffffffffffff811115611e6057611e60611812565b611e7481611e6e8454611d0b565b84611df7565b602080601f831160018114611ea95760008415611e915750858301515b600019600386901b1c1916600185901b178555611e3d565b600085815260208120601f198616915b82811015611ed857888601518255948401946001909101908401611eb9565b5085821015611ef65787850151600019600388901b60f8161c191681555b5050505050600190811b01905550565b604081526000611f196040830185611b51565b828103602084015261144a8185611b51565b60008251611f3d818460208701611b2d565b9190910192915050565b80820281158282048414176109aa576109aa611c7b565b600081611f6d57611f6d611c7b565b50600019019056fe416464726573733a206c6f772d6c6576656c2064656c65676174652063616c6c206661696c6564a264697066735822122046f95fab8a76e007685fd52f730b26408bb4299f1a67a819ff06cf013ee6b28264736f6c63430008110033",
    "linkReferences": {},
    "deployedLinkReferences": {}
}