{
  "_format": "hh-sol-artifact-1",
  "contractName": "GoriToken",
  "sourceName": "contracts/GoriToken.sol",
  "abi": [
    {
      "inputs": [
        {
          "internalType": "address",
          "name": "_defaultAdmin",
          "type": "address"
        },
        {
          "internalType": "string",
          "name": "_name",
          "type": "string"
        },
        {
          "internalType": "string",
          "name": "_symbol",
          "type": "string"
        },
        {
          "internalType": "address",
          "name": "_royaltyRecipient",
          "type": "address"
        },
        {
          "internalType": "uint128",
          "name": "_royaltyBps",
          "type": "uint128"
        }
      ],
      "stateMutability": "nonpayable",
      "type": "constructor"
    },
    {
      "anonymous": false,
      "inputs": [
        {
          "indexed": true,
          "internalType": "address",
          "name": "_owner",
          "type": "address"
        },
        {
          "indexed": true,
          "internalType": "address",
          "name": "_operator",
          "type": "address"
        },
        {
          "indexed": false,
          "internalType": "bool",
          "name": "_approved",
          "type": "bool"
        }
      ],
      "name": "ApprovalForAll",
      "type": "event"
    },
    {
      "anonymous": false,
      "inputs": [
        {
          "indexed": false,
          "internalType": "uint256",
          "name": "_fromTokenId",
          "type": "uint256"
        },
        {
          "indexed": false,
          "internalType": "uint256",
          "name": "_toTokenId",
          "type": "uint256"
        }
      ],
      "name": "BatchMetadataUpdate",
      "type": "event"
    },
    {
      "anonymous": false,
      "inputs": [
        {
          "indexed": false,
          "internalType": "address",
          "name": "owner",
          "type": "address"
        },
        {
          "indexed": false,
          "internalType": "uint256",
          "name": "location",
          "type": "uint256"
        },
        {
          "indexed": false,
          "internalType": "uint256",
          "name": "completedAt",
          "type": "uint256"
        }
      ],
      "name": "CompleteStayGori",
      "type": "event"
    },
    {
      "anonymous": false,
      "inputs": [
        {
          "indexed": false,
          "internalType": "string",
          "name": "prevURI",
          "type": "string"
        },
        {
          "indexed": false,
          "internalType": "string",
          "name": "newURI",
          "type": "string"
        }
      ],
      "name": "ContractURIUpdated",
      "type": "event"
    },
    {
      "anonymous": false,
      "inputs": [
        {
          "indexed": true,
          "internalType": "address",
          "name": "newRoyaltyRecipient",
          "type": "address"
        },
        {
          "indexed": false,
          "internalType": "uint256",
          "name": "newRoyaltyBps",
          "type": "uint256"
        }
      ],
      "name": "DefaultRoyalty",
      "type": "event"
    },
    {
      "anonymous": false,
      "inputs": [
        {
          "indexed": false,
          "internalType": "address",
          "name": "owner",
          "type": "address"
        },
        {
          "indexed": false,
          "internalType": "uint256",
          "name": "tokenID",
          "type": "uint256"
        }
      ],
      "name": "EquipmentMinted",
      "type": "event"
    },
    {
      "anonymous": false,
      "inputs": [
        {
          "indexed": false,
          "internalType": "address",
          "name": "owner",
          "type": "address"
        },
        {
          "indexed": false,
          "internalType": "uint256",
          "name": "location",
          "type": "uint256"
        },
        {
          "indexed": false,
          "internalType": "uint256",
          "name": "escapedAt",
          "type": "uint256"
        }
      ],
      "name": "EscapeGori",
      "type": "event"
    },
    {
      "anonymous": false,
      "inputs": [
        {
          "indexed": false,
          "internalType": "uint8",
          "name": "version",
          "type": "uint8"
        }
      ],
      "name": "Initialized",
      "type": "event"
    },
    {
      "anonymous": false,
      "inputs": [],
      "name": "MetadataFrozen",
      "type": "event"
    },
    {
      "anonymous": false,
      "inputs": [
        {
          "indexed": true,
          "internalType": "address",
          "name": "prevOwner",
          "type": "address"
        },
        {
          "indexed": true,
          "internalType": "address",
          "name": "newOwner",
          "type": "address"
        }
      ],
      "name": "OwnerUpdated",
      "type": "event"
    },
    {
      "anonymous": false,
      "inputs": [
        {
          "indexed": false,
          "internalType": "address",
          "name": "owner",
          "type": "address"
        }
      ],
      "name": "PartnerMinted",
      "type": "event"
    },
    {
      "anonymous": false,
      "inputs": [
        {
          "indexed": true,
          "internalType": "uint256",
          "name": "tokenId",
          "type": "uint256"
        },
        {
          "indexed": true,
          "internalType": "address",
          "name": "royaltyRecipient",
          "type": "address"
        },
        {
          "indexed": false,
          "internalType": "uint256",
          "name": "royaltyBps",
          "type": "uint256"
        }
      ],
      "name": "RoyaltyForToken",
      "type": "event"
    },
    {
      "anonymous": false,
      "inputs": [
        {
          "indexed": false,
          "internalType": "address",
          "name": "owner",
          "type": "address"
        },
        {
          "indexed": false,
          "internalType": "string",
          "name": "imageUri",
          "type": "string"
        },
        {
          "indexed": false,
          "internalType": "uint256",
          "name": "period",
          "type": "uint256"
        },
        {
          "indexed": false,
          "internalType": "uint256",
          "name": "createdAt",
          "type": "uint256"
        },
        {
          "indexed": false,
          "internalType": "bool",
          "name": "registerd",
          "type": "bool"
        },
        {
          "indexed": false,
          "internalType": "uint256",
          "name": "location",
          "type": "uint256"
        },
        {
          "indexed": false,
          "internalType": "uint256",
          "name": "tokenId",
          "type": "uint256"
        }
      ],
      "name": "StayGoriMinted",
      "type": "event"
    },
    {
      "anonymous": false,
      "inputs": [
        {
          "indexed": true,
          "internalType": "address",
          "name": "_operator",
          "type": "address"
        },
        {
          "indexed": true,
          "internalType": "address",
          "name": "_from",
          "type": "address"
        },
        {
          "indexed": true,
          "internalType": "address",
          "name": "_to",
          "type": "address"
        },
        {
          "indexed": false,
          "internalType": "uint256[]",
          "name": "_ids",
          "type": "uint256[]"
        },
        {
          "indexed": false,
          "internalType": "uint256[]",
          "name": "_values",
          "type": "uint256[]"
        }
      ],
      "name": "TransferBatch",
      "type": "event"
    },
    {
      "anonymous": false,
      "inputs": [
        {
          "indexed": true,
          "internalType": "address",
          "name": "_operator",
          "type": "address"
        },
        {
          "indexed": true,
          "internalType": "address",
          "name": "_from",
          "type": "address"
        },
        {
          "indexed": true,
          "internalType": "address",
          "name": "_to",
          "type": "address"
        },
        {
          "indexed": false,
          "internalType": "uint256",
          "name": "_id",
          "type": "uint256"
        },
        {
          "indexed": false,
          "internalType": "uint256",
          "name": "_value",
          "type": "uint256"
        }
      ],
      "name": "TransferSingle",
      "type": "event"
    },
    {
      "anonymous": false,
      "inputs": [
        {
          "indexed": false,
          "internalType": "string",
          "name": "_value",
          "type": "string"
        },
        {
          "indexed": true,
          "internalType": "uint256",
          "name": "_id",
          "type": "uint256"
        }
      ],
      "name": "URI",
      "type": "event"
    },
    {
      "inputs": [],
      "name": "TokenIdDrivingDistance",
      "outputs": [
        {
          "internalType": "uint256",
          "name": "",
          "type": "uint256"
        }
      ],
      "stateMutability": "view",
      "type": "function"
    },
    {
      "inputs": [],
      "name": "TokenIdDrivingTime",
      "outputs": [
        {
          "internalType": "uint256",
          "name": "",
          "type": "uint256"
        }
      ],
      "stateMutability": "view",
      "type": "function"
    },
    {
      "inputs": [],
      "name": "TokenIdEcoDrive",
      "outputs": [
        {
          "internalType": "uint256",
          "name": "",
          "type": "uint256"
        }
      ],
      "stateMutability": "view",
      "type": "function"
    },
    {
      "inputs": [],
      "name": "TokenIdEquipmentMAX",
      "outputs": [
        {
          "internalType": "uint256",
          "name": "",
          "type": "uint256"
        }
      ],
      "stateMutability": "view",
      "type": "function"
    },
    {
      "inputs": [],
      "name": "TokenIdEquipmentMIN",
      "outputs": [
        {
          "internalType": "uint256",
          "name": "",
          "type": "uint256"
        }
      ],
      "stateMutability": "view",
      "type": "function"
    },
    {
      "inputs": [],
      "name": "TokenIdPartnerGori",
      "outputs": [
        {
          "internalType": "uint256",
          "name": "",
          "type": "uint256"
        }
      ],
      "stateMutability": "view",
      "type": "function"
    },
    {
      "inputs": [],
      "name": "TokenIdRefueling",
      "outputs": [
        {
          "internalType": "uint256",
          "name": "",
          "type": "uint256"
        }
      ],
      "stateMutability": "view",
      "type": "function"
    },
    {
      "inputs": [],
      "name": "TokenIdSafeDrive",
      "outputs": [
        {
          "internalType": "uint256",
          "name": "",
          "type": "uint256"
        }
      ],
      "stateMutability": "view",
      "type": "function"
    },
    {
      "inputs": [],
      "name": "TokenIdStayGori",
      "outputs": [
        {
          "internalType": "uint256",
          "name": "",
          "type": "uint256"
        }
      ],
      "stateMutability": "view",
      "type": "function"
    },
    {
      "inputs": [
        {
          "internalType": "uint256",
          "name": "tokenId",
          "type": "uint256"
        },
        {
          "components": [
            {
              "internalType": "string",
              "name": "name",
              "type": "string"
            },
            {
              "internalType": "string",
              "name": "category",
              "type": "string"
            },
            {
              "internalType": "string",
              "name": "description",
              "type": "string"
            },
            {
              "internalType": "string",
              "name": "imageUri",
              "type": "string"
            },
            {
              "internalType": "uint256",
              "name": "driving",
              "type": "uint256"
            },
            {
              "internalType": "uint256",
              "name": "eco",
              "type": "uint256"
            },
            {
              "internalType": "uint256",
              "name": "distance",
              "type": "uint256"
            },
            {
              "internalType": "uint256",
              "name": "safe",
              "type": "uint256"
            },
            {
              "internalType": "uint256",
              "name": "refuling",
              "type": "uint256"
            }
          ],
          "internalType": "struct GoriToken.EquipmentMeta",
          "name": "equipmentMeta",
          "type": "tuple"
        }
      ],
      "name": "addEquipment",
      "outputs": [],
      "stateMutability": "nonpayable",
      "type": "function"
    },
    {
      "inputs": [
        {
          "internalType": "address",
          "name": "",
          "type": "address"
        },
        {
          "internalType": "uint256",
          "name": "",
          "type": "uint256"
        }
      ],
      "name": "balanceOf",
      "outputs": [
        {
          "internalType": "uint256",
          "name": "",
          "type": "uint256"
        }
      ],
      "stateMutability": "view",
      "type": "function"
    },
    {
      "inputs": [
        {
          "internalType": "address[]",
          "name": "accounts",
          "type": "address[]"
        },
        {
          "internalType": "uint256[]",
          "name": "ids",
          "type": "uint256[]"
        }
      ],
      "name": "balanceOfBatch",
      "outputs": [
        {
          "internalType": "uint256[]",
          "name": "",
          "type": "uint256[]"
        }
      ],
      "stateMutability": "view",
      "type": "function"
    },
    {
      "inputs": [
        {
          "internalType": "uint256",
          "name": "",
          "type": "uint256"
        }
      ],
      "name": "batchFrozen",
      "outputs": [
        {
          "internalType": "bool",
          "name": "",
          "type": "bool"
        }
      ],
      "stateMutability": "view",
      "type": "function"
    },
    {
      "inputs": [
        {
          "internalType": "address",
          "name": "_to",
          "type": "address"
        },
        {
          "internalType": "uint256[]",
          "name": "_tokenIds",
          "type": "uint256[]"
        },
        {
          "internalType": "uint256[]",
          "name": "_amounts",
          "type": "uint256[]"
        },
        {
          "internalType": "string",
          "name": "_baseURI",
          "type": "string"
        }
      ],
      "name": "batchMintTo",
      "outputs": [],
      "stateMutability": "nonpayable",
      "type": "function"
    },
    {
      "inputs": [
        {
          "internalType": "address",
          "name": "from",
          "type": "address"
        },
        {
          "internalType": "uint256",
          "name": "id",
          "type": "uint256"
        },
        {
          "internalType": "uint256",
          "name": "amount",
          "type": "uint256"
        }
      ],
      "name": "burn",
      "outputs": [],
      "stateMutability": "nonpayable",
      "type": "function"
    },
    {
      "inputs": [
        {
          "internalType": "address",
          "name": "_owner",
          "type": "address"
        },
        {
          "internalType": "uint256[]",
          "name": "_tokenIds",
          "type": "uint256[]"
        },
        {
          "internalType": "uint256[]",
          "name": "_amounts",
          "type": "uint256[]"
        }
      ],
      "name": "burnBatch",
      "outputs": [],
      "stateMutability": "nonpayable",
      "type": "function"
    },
    {
      "inputs": [
        {
          "internalType": "address",
          "name": "from",
          "type": "address"
        },
        {
          "internalType": "uint256",
          "name": "tokenId",
          "type": "uint256"
        }
      ],
      "name": "completeStayGori",
      "outputs": [],
      "stateMutability": "nonpayable",
      "type": "function"
    },
    {
      "inputs": [],
      "name": "contractURI",
      "outputs": [
        {
          "internalType": "string",
          "name": "",
          "type": "string"
        }
      ],
      "stateMutability": "view",
      "type": "function"
    },
    {
      "inputs": [],
      "name": "getBaseURICount",
      "outputs": [
        {
          "internalType": "uint256",
          "name": "",
          "type": "uint256"
        }
      ],
      "stateMutability": "view",
      "type": "function"
    },
    {
      "inputs": [
        {
          "internalType": "uint256",
          "name": "_index",
          "type": "uint256"
        }
      ],
      "name": "getBatchIdAtIndex",
      "outputs": [
        {
          "internalType": "uint256",
          "name": "",
          "type": "uint256"
        }
      ],
      "stateMutability": "view",
      "type": "function"
    },
    {
      "inputs": [],
      "name": "getDefaultRoyaltyInfo",
      "outputs": [
        {
          "internalType": "address",
          "name": "",
          "type": "address"
        },
        {
          "internalType": "uint16",
          "name": "",
          "type": "uint16"
        }
      ],
      "stateMutability": "view",
      "type": "function"
    },
    {
      "inputs": [
        {
          "internalType": "address",
          "name": "from",
          "type": "address"
        },
        {
          "internalType": "uint256",
          "name": "tokenId",
          "type": "uint256"
        }
      ],
      "name": "getEscape",
      "outputs": [
        {
          "internalType": "bool",
          "name": "",
          "type": "bool"
        },
        {
          "internalType": "uint256",
          "name": "",
          "type": "uint256"
        }
      ],
      "stateMutability": "view",
      "type": "function"
    },
    {
      "inputs": [
        {
          "internalType": "uint256",
          "name": "_tokenId",
          "type": "uint256"
        }
      ],
      "name": "getRoyaltyInfoForToken",
      "outputs": [
        {
          "internalType": "address",
          "name": "",
          "type": "address"
        },
        {
          "internalType": "uint16",
          "name": "",
          "type": "uint16"
        }
      ],
      "stateMutability": "view",
      "type": "function"
    },
    {
      "inputs": [
        {
          "internalType": "address",
          "name": "from",
          "type": "address"
        },
        {
          "internalType": "uint256",
          "name": "tokenId",
          "type": "uint256"
        }
      ],
      "name": "getStayGoriDepositToken",
      "outputs": [
        {
          "internalType": "uint256[]",
          "name": "",
          "type": "uint256[]"
        },
        {
          "internalType": "uint256[]",
          "name": "",
          "type": "uint256[]"
        }
      ],
      "stateMutability": "view",
      "type": "function"
    },
    {
      "inputs": [
        {
          "internalType": "address",
          "name": "from",
          "type": "address"
        },
        {
          "internalType": "string",
          "name": "name",
          "type": "string"
        },
        {
          "internalType": "string",
          "name": "createdAt",
          "type": "string"
        },
        {
          "internalType": "string",
          "name": "imageUri",
          "type": "string"
        }
      ],
      "name": "initializeGori",
      "outputs": [],
      "stateMutability": "nonpayable",
      "type": "function"
    },
    {
      "inputs": [
        {
          "internalType": "address",
          "name": "",
          "type": "address"
        },
        {
          "internalType": "address",
          "name": "",
          "type": "address"
        }
      ],
      "name": "isApprovedForAll",
      "outputs": [
        {
          "internalType": "bool",
          "name": "",
          "type": "bool"
        }
      ],
      "stateMutability": "view",
      "type": "function"
    },
    {
      "inputs": [
        {
          "internalType": "address",
          "name": "from",
          "type": "address"
        },
        {
          "internalType": "uint256",
          "name": "tokenId",
          "type": "uint256"
        }
      ],
      "name": "isRegistered",
      "outputs": [
        {
          "internalType": "bool",
          "name": "",
          "type": "bool"
        }
      ],
      "stateMutability": "view",
      "type": "function"
    },
    {
      "inputs": [
        {
          "internalType": "address",
          "name": "from",
          "type": "address"
        },
        {
          "internalType": "uint256",
          "name": "tokenId",
          "type": "uint256"
        }
      ],
      "name": "isStayGoriComplete",
      "outputs": [
        {
          "internalType": "bool",
          "name": "",
          "type": "bool"
        }
      ],
      "stateMutability": "view",
      "type": "function"
    },
    {
      "inputs": [
        {
          "internalType": "address",
          "name": "forwarder",
          "type": "address"
        }
      ],
      "name": "isTrustedForwarder",
      "outputs": [
        {
          "internalType": "bool",
          "name": "",
          "type": "bool"
        }
      ],
      "stateMutability": "view",
      "type": "function"
    },
    {
      "inputs": [
        {
          "internalType": "address",
          "name": "from",
          "type": "address"
        },
        {
          "internalType": "uint256",
          "name": "location",
          "type": "uint256"
        },
        {
          "internalType": "string",
          "name": "imageUri",
          "type": "string"
        },
        {
          "internalType": "uint256[]",
          "name": "tokenIds",
          "type": "uint256[]"
        },
        {
          "internalType": "uint256[]",
          "name": "amounts",
          "type": "uint256[]"
        },
        {
          "internalType": "uint256",
          "name": "period",
          "type": "uint256"
        }
      ],
      "name": "makeStayGori",
      "outputs": [],
      "stateMutability": "nonpayable",
      "type": "function"
    },
    {
      "inputs": [
        {
          "internalType": "address",
          "name": "to",
          "type": "address"
        },
        {
          "internalType": "uint256",
          "name": "id",
          "type": "uint256"
        },
        {
          "internalType": "uint256",
          "name": "amount",
          "type": "uint256"
        }
      ],
      "name": "mint",
      "outputs": [],
      "stateMutability": "nonpayable",
      "type": "function"
    },
    {
      "inputs": [
        {
          "internalType": "address",
          "name": "_to",
          "type": "address"
        },
        {
          "internalType": "uint256",
          "name": "_tokenId",
          "type": "uint256"
        },
        {
          "internalType": "string",
          "name": "_tokenURI",
          "type": "string"
        },
        {
          "internalType": "uint256",
          "name": "_amount",
          "type": "uint256"
        }
      ],
      "name": "mintTo",
      "outputs": [],
      "stateMutability": "nonpayable",
      "type": "function"
    },
    {
      "inputs": [
        {
          "internalType": "bytes[]",
          "name": "data",
          "type": "bytes[]"
        }
      ],
      "name": "multicall",
      "outputs": [
        {
          "internalType": "bytes[]",
          "name": "results",
          "type": "bytes[]"
        }
      ],
      "stateMutability": "nonpayable",
      "type": "function"
    },
    {
      "inputs": [
        {
          "internalType": "address",
          "name": "from",
          "type": "address"
        },
        {
          "internalType": "uint256",
          "name": "tokenID_",
          "type": "uint256"
        }
      ],
      "name": "myuri",
      "outputs": [
        {
          "internalType": "string",
          "name": "",
          "type": "string"
        }
      ],
      "stateMutability": "view",
      "type": "function"
    },
    {
      "inputs": [],
      "name": "name",
      "outputs": [
        {
          "internalType": "string",
          "name": "",
          "type": "string"
        }
      ],
      "stateMutability": "view",
      "type": "function"
    },
    {
      "inputs": [],
      "name": "nextTokenIdStayGori",
      "outputs": [
        {
          "internalType": "uint256",
          "name": "",
          "type": "uint256"
        }
      ],
      "stateMutability": "view",
      "type": "function"
    },
    {
      "inputs": [],
      "name": "nextTokenIdToMint",
      "outputs": [
        {
          "internalType": "uint256",
          "name": "",
          "type": "uint256"
        }
      ],
      "stateMutability": "view",
      "type": "function"
    },
    {
      "inputs": [],
      "name": "owner",
      "outputs": [
        {
          "internalType": "address",
          "name": "",
          "type": "address"
        }
      ],
      "stateMutability": "view",
      "type": "function"
    },
    {
      "inputs": [
        {
          "internalType": "uint256",
          "name": "tokenId",
          "type": "uint256"
        },
        {
          "internalType": "uint256",
          "name": "salePrice",
          "type": "uint256"
        }
      ],
      "name": "royaltyInfo",
      "outputs": [
        {
          "internalType": "address",
          "name": "receiver",
          "type": "address"
        },
        {
          "internalType": "uint256",
          "name": "royaltyAmount",
          "type": "uint256"
        }
      ],
      "stateMutability": "view",
      "type": "function"
    },
    {
      "inputs": [
        {
          "internalType": "address",
          "name": "from",
          "type": "address"
        },
        {
          "internalType": "address",
          "name": "to",
          "type": "address"
        },
        {
          "internalType": "uint256[]",
          "name": "ids",
          "type": "uint256[]"
        },
        {
          "internalType": "uint256[]",
          "name": "amounts",
          "type": "uint256[]"
        },
        {
          "internalType": "bytes",
          "name": "data",
          "type": "bytes"
        }
      ],
      "name": "safeBatchTransferFrom",
      "outputs": [],
      "stateMutability": "nonpayable",
      "type": "function"
    },
    {
      "inputs": [
        {
          "internalType": "address",
          "name": "from",
          "type": "address"
        },
        {
          "internalType": "address",
          "name": "to",
          "type": "address"
        },
        {
          "internalType": "uint256",
          "name": "id",
          "type": "uint256"
        },
        {
          "internalType": "uint256",
          "name": "amount",
          "type": "uint256"
        },
        {
          "internalType": "bytes",
          "name": "data",
          "type": "bytes"
        }
      ],
      "name": "safeTransferFrom",
      "outputs": [],
      "stateMutability": "nonpayable",
      "type": "function"
    },
    {
      "inputs": [
        {
          "internalType": "address",
          "name": "operator",
          "type": "address"
        },
        {
          "internalType": "bool",
          "name": "approved",
          "type": "bool"
        }
      ],
      "name": "setApprovalForAll",
      "outputs": [],
      "stateMutability": "nonpayable",
      "type": "function"
    },
    {
      "inputs": [
        {
          "internalType": "address",
          "name": "from",
          "type": "address"
        },
        {
          "internalType": "address",
          "name": "operator",
          "type": "address"
        },
        {
          "internalType": "bool",
          "name": "approved",
          "type": "bool"
        }
      ],
      "name": "setApprovalForAllGori",
      "outputs": [],
      "stateMutability": "nonpayable",
      "type": "function"
    },
    {
      "inputs": [
        {
          "internalType": "string",
          "name": "_uri",
          "type": "string"
        }
      ],
      "name": "setContractURI",
      "outputs": [],
      "stateMutability": "nonpayable",
      "type": "function"
    },
    {
      "inputs": [
        {
          "internalType": "address",
          "name": "_royaltyRecipient",
          "type": "address"
        },
        {
          "internalType": "uint256",
          "name": "_royaltyBps",
          "type": "uint256"
        }
      ],
      "name": "setDefaultRoyaltyInfo",
      "outputs": [],
      "stateMutability": "nonpayable",
      "type": "function"
    },
    {
      "inputs": [
        {
          "internalType": "contract IGoriNFT",
          "name": "goriNFT",
          "type": "address"
        }
      ],
      "name": "setGoriNFT",
      "outputs": [],
      "stateMutability": "nonpayable",
      "type": "function"
    },
    {
      "inputs": [
        {
          "internalType": "contract IGoriStaking",
          "name": "goriStaking",
          "type": "address"
        }
      ],
      "name": "setGoriStaking",
      "outputs": [],
      "stateMutability": "nonpayable",
      "type": "function"
    },
    {
      "inputs": [
        {
          "internalType": "address",
          "name": "_newOwner",
          "type": "address"
        }
      ],
      "name": "setOwner",
      "outputs": [],
      "stateMutability": "nonpayable",
      "type": "function"
    },
    {
      "inputs": [
        {
          "internalType": "uint256",
          "name": "_tokenId",
          "type": "uint256"
        },
        {
          "internalType": "address",
          "name": "_recipient",
          "type": "address"
        },
        {
          "internalType": "uint256",
          "name": "_bps",
          "type": "uint256"
        }
      ],
      "name": "setRoyaltyInfoForToken",
      "outputs": [],
      "stateMutability": "nonpayable",
      "type": "function"
    },
    {
      "inputs": [
        {
          "internalType": "address",
          "name": "from",
          "type": "address"
        },
        {
          "internalType": "uint256",
          "name": "tokenID_",
          "type": "uint256"
        },
        {
          "internalType": "uint256",
          "name": "location",
          "type": "uint256"
        }
      ],
      "name": "stayGoriUri",
      "outputs": [
        {
          "internalType": "string",
          "name": "",
          "type": "string"
        }
      ],
      "stateMutability": "view",
      "type": "function"
    },
    {
      "inputs": [
        {
          "internalType": "bytes4",
          "name": "interfaceId",
          "type": "bytes4"
        }
      ],
      "name": "supportsInterface",
      "outputs": [
        {
          "internalType": "bool",
          "name": "",
          "type": "bool"
        }
      ],
      "stateMutability": "view",
      "type": "function"
    },
    {
      "inputs": [],
      "name": "symbol",
      "outputs": [
        {
          "internalType": "string",
          "name": "",
          "type": "string"
        }
      ],
      "stateMutability": "view",
      "type": "function"
    },
    {
      "inputs": [
        {
          "internalType": "address",
          "name": "from",
          "type": "address"
        },
        {
          "internalType": "uint256",
          "name": "tokenId",
          "type": "uint256"
        }
      ],
      "name": "toERC721",
      "outputs": [],
      "stateMutability": "nonpayable",
      "type": "function"
    },
    {
      "inputs": [
        {
          "internalType": "uint256",
          "name": "",
          "type": "uint256"
        }
      ],
      "name": "totalSupply",
      "outputs": [
        {
          "internalType": "uint256",
          "name": "",
          "type": "uint256"
        }
      ],
      "stateMutability": "view",
      "type": "function"
    },
    {
      "inputs": [
        {
          "internalType": "address",
          "name": "from",
          "type": "address"
        },
        {
          "internalType": "string",
          "name": "imageUri",
          "type": "string"
        }
      ],
      "name": "updatePartnerGoriImageUri",
      "outputs": [],
      "stateMutability": "nonpayable",
      "type": "function"
    },
    {
      "inputs": [
        {
          "internalType": "address",
          "name": "from",
          "type": "address"
        },
        {
          "internalType": "string",
          "name": "name",
          "type": "string"
        }
      ],
      "name": "updatePartnerGoriName",
      "outputs": [],
      "stateMutability": "nonpayable",
      "type": "function"
    },
    {
      "inputs": [
        {
          "internalType": "uint256",
          "name": "_tokenId",
          "type": "uint256"
        }
      ],
      "name": "uri",
      "outputs": [
        {
          "internalType": "string",
          "name": "",
          "type": "string"
        }
      ],
      "stateMutability": "view",
      "type": "function"
    }
  ],
  "bytecode": "0x60806040526113896073553480156200001757600080fd5b5060405162005dd438038062005dd48339810160408190526200003a91620002ca565b8484848484838360006200004f83826200040c565b5060016200005e82826200040c565b5050506200007285620000eb60201b60201c565b62000087826001600160801b0383166200013d565b50505050506040518060800160405280605a815260200162005d7a605a91396103e960005260776020527f9bfd6ff331526fbdd7f36705338ea2e898a506adb942a915acc77bfe54f298fb90620000df90826200040c565b505050505050620004d8565b600680546001600160a01b038381166001600160a01b0319831681179093556040519116919082907f8292fce18fa69edf4db7b94ea2e58241df0ae57f97e0a6c9b29067028bf92d7690600090a35050565b612710811115620001865760405162461bcd60e51b815260206004820152600f60248201526e45786365656473206d61782062707360881b604482015260640160405180910390fd5b600780546001600160a01b0384166001600160b01b03199091168117600160a01b61ffff851602179091556040518281527f90d7ec04bcb8978719414f82e52e4cb651db41d0e6f8cea6118c2191e6183adb9060200160405180910390a25050565b80516001600160a01b03811681146200020057600080fd5b919050565b634e487b7160e01b600052604160045260246000fd5b600082601f8301126200022d57600080fd5b81516001600160401b03808211156200024a576200024a62000205565b604051601f8301601f19908116603f0116810190828211818310171562000275576200027562000205565b816040528381526020925086838588010111156200029257600080fd5b600091505b83821015620002b6578582018301518183018401529082019062000297565b600093810190920192909252949350505050565b600080600080600060a08688031215620002e357600080fd5b620002ee86620001e8565b60208701519095506001600160401b03808211156200030c57600080fd5b6200031a89838a016200021b565b955060408801519150808211156200033157600080fd5b5062000340888289016200021b565b9350506200035160608701620001e8565b60808701519092506001600160801b03811681146200036f57600080fd5b809150509295509295909350565b600181811c908216806200039257607f821691505b602082108103620003b357634e487b7160e01b600052602260045260246000fd5b50919050565b601f8211156200040757600081815260208120601f850160051c81016020861015620003e25750805b601f850160051c820191505b818110156200040357828155600101620003ee565b5050505b505050565b81516001600160401b0381111562000428576200042862000205565b62000440816200043984546200037d565b84620003b9565b602080601f8311600181146200047857600084156200045f5750858301515b600019600386901b1c1916600185901b17855562000403565b600085815260208120601f198616915b82811015620004a95788860151825594840194600190910190840162000488565b5085821015620004c85787850151600019600388901b60f8161c191681555b5050505050600190811b01905550565b61589280620004e86000396000f3fe608060405234801561001057600080fd5b50600436106103825760003560e01c806395d89b41116101de578063cb7618871161010f578063edae6c08116100ad578063f60ac0cf1161007c578063f60ac0cf14610836578063f9da519b1461083f578063fc6d94b214610852578063fc878e8e1461086557600080fd5b8063edae6c08146107f5578063ee5897fa14610808578063f242432a14610810578063f5298aca1461082357600080fd5b8063dcc4177b116100e9578063dcc4177b146107a4578063e79edd9f146107b7578063e8a3d485146107bf578063e985e9c5146107c757600080fd5b8063cb76188714610776578063d21a465d1461077e578063d848a4b41461079157600080fd5b8063ac9650d81161017c578063b05896c211610156578063b05896c21461071d578063b07387d214610730578063b24f2d3914610738578063bd85b0391461075657600080fd5b8063ac9650d8146106e1578063b03f452814610701578063b05140a61461071457600080fd5b8063a74e58e4116101b8578063a74e58e414610681578063a82390161461068a578063a8f1602c1461069d578063aa8686a8146106d957600080fd5b806395d89b41146106535780639bcf7a151461065b578063a22cb4651461066e57600080fd5b80634e1273f4116102b857806380731cee116102565780638da5cb5b116102305780638da5cb5b146105e85780639068d00914610603578063938e3d7b1461062d578063949c09f71461064057600080fd5b806380731cee146105aa57806383040532146105bd5780638b9694ad146105e057600080fd5b806363b45e2d1161029257806363b45e2d146105735780636b20c4541461057b5780636b6bfaa51461058e5780636f5911cf146105a157600080fd5b80634e1273f414610514578063572b6c0514610534578063600dd5ea1461056057600080fd5b80632419f51b116103255780632eb2c2d6116102ff5780632eb2c2d6146104b157806338a2097a146104c45780633b1475a7146104d75780634cc157df146104df57600080fd5b80632419f51b1461044b5780632451ab641461045e5780632a55205a1461047f57600080fd5b80630e89341c116103615780630e89341c146103fd57806313af4035146104105780631501953b14610425578063156e29f61461043857600080fd5b8062fdd58e1461038757806301ffc9a7146103c557806306fdde03146103e8575b600080fd5b6103b2610395366004614381565b600260209081526000928352604080842090915290825290205481565b6040519081526020015b60405180910390f35b6103d86103d33660046143c3565b610878565b60405190151581526020016103bc565b6103f06108e5565b6040516103bc9190614430565b6103f061040b366004614443565b610973565b61042361041e36600461445c565b610a61565b005b6104236104333660046145eb565b610a9a565b610423610446366004614697565b610d3f565b6103b2610459366004614443565b610dbc565b61047161046c366004614381565b610e2a565b6040516103bc929190614707565b61049261048d36600461472c565b610f4d565b604080516001600160a01b0390931683526020830191909152016103bc565b6104236104bf36600461474e565b610f8a565b6103f06104d2366004614697565b611019565b600c546103b2565b6104f26104ed366004614443565b6110d8565b604080516001600160a01b03909316835261ffff9091166020830152016103bc565b6105276105223660046147fb565b611143565b6040516103bc91906148c7565b6103d861054236600461445c565b6001600160a01b031660009081526041602052604090205460ff1690565b61042361056e366004614381565b611257565b6009546103b2565b6104236105893660046148da565b611289565b6103f061059c366004614381565b611431565b6103b260735481565b6104236105b836600461445c565b611493565b6103d86105cb366004614443565b600b6020526000908152604090205460ff1681565b6103b2600281565b6006546040516001600160a01b0390911681526020016103bc565b610616610611366004614381565b6114df565b6040805192151583526020830191909152016103bc565b61042361063b36600461494f565b6115a6565b61042361064e366004614983565b6115d3565b6103f06117ce565b610423610669366004614a1d565b6117db565b61042361067c366004614a63565b61180a565b6103b26103e981565b610423610698366004614381565b6118c2565b6103d86106ab366004614381565b6001600160a01b03919091166000908152607660209081526040808320938352929052206005015460ff1690565b6103b2600081565b6106f46106ef366004614a9c565b611b81565b6040516103bc9190614b10565b61042361070f366004614b72565b611c75565b6103b261138981565b61042361072b366004614bd2565b611d68565b6103b2600181565b6007546001600160a01b03811690600160a01b900461ffff166104f2565b6103b2610764366004614443565b600d6020526000908152604090205481565b6103b2600581565b61042361078c366004614381565b611e2a565b61042361079f366004614cec565b611ea4565b6103d86107b2366004614381565b611f0f565b6103b2600481565b6103f0611f5f565b6103d86107d5366004614d57565b600360209081526000928352604080842090915290825290205460ff1681565b610423610803366004614d85565b611f6c565b6103b2600381565b61042361081e366004614dd0565b612027565b610423610831366004614697565b6120af565b6103b261138881565b61042361084d366004614e38565b612186565b61042361086036600461445c565b6121a8565b610423610873366004614e38565b6121f4565b60006301ffc9a760e01b6001600160e01b0319831614806108a95750636cdb3d1360e11b6001600160e01b03198316145b806108c457506303a24d0760e21b6001600160e01b03198316145b806108df57506001600160e01b0319821663152a902d60e11b145b92915050565b600080546108f290614e7d565b80601f016020809104026020016040519081016040528092919081815260200182805461091e90614e7d565b801561096b5780601f106109405761010080835404028352916020019161096b565b820191906000526020600020905b81548152906001019060200180831161094e57829003601f168201915b505050505081565b60008181526004602052604081208054606092919061099190614e7d565b80601f01602080910402602001604051908101604052809291908181526020018280546109bd90614e7d565b8015610a0a5780601f106109df57610100808354040283529160200191610a0a565b820191906000526020600020905b8154815290600101906020018083116109ed57829003601f168201915b50505050509050600081511115610a215792915050565b6000610a2c84612219565b905080610a38856123b5565b604051602001610a49929190614ed3565b60405160208183030381529060405292505050919050565b610a696124bd565b610a8e5760405162461bcd60e51b8152600401610a8590614f02565b60405180910390fd5b610a97816124ea565b50565b60735481610adb5760405162461bcd60e51b815260206004820152600e60248201526d706572696f64206973207a65726f60901b6044820152606401610a85565b6001600160a01b038716600090815260766020908152604080832084845290915290206005015460ff1615610b445760405162461bcd60e51b815260206004820152600f60248201526e105b1b1c9958591e481cdd185ad959608a1b6044820152606401610a85565b610b60878260016040518060200160405280600081525061253c565b60785460405163f34027e960e01b81526001600160a01b039091169063f34027e990610b989084908890889088908e90600401614f2a565b600060405180830381600087803b158015610bb257600080fd5b505af1158015610bc6573d6000803e3d6000fd5b50506040805160e081018252888152602080820189905281830188905260608201879052436080830152600160a083015260c082018b90526001600160a01b038c1660009081526076825283812087825290915291909120815191935091508190610c319082614fbe565b506020828101518051610c4a926001850192019061430c565b5060408201518051610c6691600284019160209091019061430c565b506060820151600382810191909155608083015160048084019190915560a08401516005808501805460ff19169215159290921790915560c0909401516006909301929092556001600160a01b038a1660009081526076602090815260408083208784529091529081902091820154928201549382015490517f7860b9ec6edd1fbaf016bf9c6612eb67180d860ba1bc30e7f2f7c0d0ff3a196a94610d19948d9493909260ff909116908d9089906150fa565b60405180910390a160738054906000610d318361515e565b919050555050505050505050565b610d5a8383836040518060200160405280600081525061253c565b6103e98210158015610d6e57506113888211155b15610db757604080516001600160a01b0385168152602081018490527fa1254ee7e9cb9bc4e4305e813b788aab9a8ff23ed862e99ee4ba779bb5eedfb791015b60405180910390a15b505050565b6000610dc760095490565b8210610e055760405162461bcd60e51b815260206004820152600d60248201526c092dcecc2d8d2c840d2dcc8caf609b1b6044820152606401610a85565b60098281548110610e1857610e18615177565b90600052602060002001549050919050565b6001600160a01b0382166000908152607660209081526040808320848452909152902060050154606090819060ff16610e755760405162461bcd60e51b8152600401610a859061518d565b6001600160a01b03841660009081526076602090815260408083208684528252918290206001810180548451818502810185019095528085529093600290920192849190830182828015610ee857602002820191906000526020600020905b815481526020019060010190808311610ed4575b5050505050915080805480602002602001604051908101604052809291908181526020018280548015610f3a57602002820191906000526020600020905b815481526020019060010190808311610f26575b50505050509050915091505b9250929050565b600080600080610f5c866110d8565b90945084925061ffff169050612710610f7582876151b5565b610f7f91906151e2565b925050509250929050565b6001600160a01b038516331480610fc457506001600160a01b038516600090815260036020908152604080832033845290915290205460ff165b6110055760405162461bcd60e51b81526020600482015260126024820152710853d5d3915497d3d497d054141493d5915160721b6044820152606401610a85565b6110128585858585612615565b5050505050565b606061138983146110605760405162461bcd60e51b81526020600482015260116024820152701d5b9cdd5c1c1bdc9d081d1bdad95b9259607a1b6044820152606401610a85565b6001600160a01b038416600090815260766020908152604080832085845290915290206005015460ff166110a65760405162461bcd60e51b8152600401610a859061518d565b61138983036110c0576110b984836127c8565b90506110d1565b506040805160208101909152600081525b9392505050565b6000818152600860209081526040808320815180830190925280546001600160a01b03168083526001909101549282019290925282911561111f5780516020820151611139565b6007546001600160a01b03811690600160a01b900461ffff165b9250925050915091565b606081518351146111665760405162461bcd60e51b8152600401610a85906151f6565b600083516001600160401b0381111561118157611181614479565b6040519080825280602002602001820160405280156111aa578160200160208202803683370190505b50905060005b845181101561124f57600260008683815181106111cf576111cf615177565b60200260200101516001600160a01b03166001600160a01b03168152602001908152602001600020600085838151811061120b5761120b615177565b602002602001015181526020019081526020016000205482828151811061123457611234615177565b60209081029190910101526112488161515e565b90506111b0565b509392505050565b61125f6124bd565b61127b5760405162461bcd60e51b8152600401610a8590614f02565b6112858282612ab9565b5050565b336001600160a01b0384168114806112c657506001600160a01b0380851660009081526003602090815260408083209385168352929052205460ff165b6113065760405162461bcd60e51b81526020600482015260116024820152702ab730b8383937bb32b21031b0b63632b960791b6044820152606401610a85565b81518351146113495760405162461bcd60e51b815260206004820152600f60248201526e098cadccee8d040dad2e6dac2e8c6d608b1b6044820152606401610a85565b60005b835181101561141f5782818151811061136757611367615177565b602002602001015160026000876001600160a01b03166001600160a01b0316815260200190815260200160002060008684815181106113a8576113a8615177565b6020026020010151815260200190815260200160002054101561140d5760405162461bcd60e51b815260206004820152601760248201527f4e6f7420656e6f75676820746f6b656e73206f776e65640000000000000000006044820152606401610a85565b61141860018261521f565b905061134c565b5061142b848484612b5f565b50505050565b6060816114485761144183612cf3565b90506108df565b6103e9821015801561145c57506113888211155b1561146a5761144182613011565b611389821061147d5761144183836127c8565b5060408051602081019091526000815292915050565b6006546001600160a01b031633146114bd5760405162461bcd60e51b8152600401610a8590614f02565b607880546001600160a01b0319166001600160a01b0392909216919091179055565b6001600160a01b0382166000908152607660209081526040808320848452909152812060050154819060ff166115275760405162461bcd60e51b8152600401610a859061518d565b6078546040516379962ba160e01b8152600481018590526001600160a01b038681166024830152909116906379962ba1906044016040805180830381865afa158015611577573d6000803e3d6000fd5b505050506040513d601f19601f8201168201806040525081019061159b9190615232565b915091509250929050565b6115ae6124bd565b6115ca5760405162461bcd60e51b8152600401610a8590614f02565b610a9781613521565b6115db6124bd565b6116215760405162461bcd60e51b81526020600482015260176024820152762737ba1030baba3437b934bd32b2103a379036b4b73a1760491b6044820152606401610a85565b60008251116116695760405162461bcd60e51b815260206004820152601460248201527326b4b73a34b733903d32b937903a37b5b2b7399760611b6044820152606401610a85565b81518351146116ad5760405162461bcd60e51b815260206004820152601060248201526f2632b733ba341036b4b9b6b0ba31b41760811b6044820152606401610a85565b60006116b8600c5490565b9050806000805b865181101561178e576000198782815181106116dd576116dd615177565b60200260200101510361172757838782815181106116fd576116fd615177565b602090810291909101015261171360018561521f565b935061172060018361521f565b915061177c565b8387828151811061173a5761173a615177565b60200260200101511061177c5760405162461bcd60e51b815260206004820152600a6024820152691a5b9d985b1a59081a5960b21b6044820152606401610a85565b61178760018261521f565b90506116bf565b5080156117a3576117a08282866135fd565b50505b82600c819055506117c587878760405180602001604052806000815250613661565b50505050505050565b600180546108f290614e7d565b6117e36124bd565b6117ff5760405162461bcd60e51b8152600401610a8590614f02565b610db78383836137bc565b336001600160a01b03831681036118545760405162461bcd60e51b815260206004820152600e60248201526d20a8282927ab24a723afa9a2a62360911b6044820152606401610a85565b6001600160a01b03818116600081815260036020908152604080832094881680845294825291829020805460ff191687151590811790915591519182527f17307eab39ab6107e8899845ad3d59bd9653f200f220920489ca2b5937696c3191015b60405180910390a3505050565b6001600160a01b038216600090815260766020908152604080832084845290915290206005015460ff166119085760405162461bcd60e51b8152600401610a859061518d565b611912828261387d565b6119525760405162461bcd60e51b81526020600482015260116024820152701b9bdd0818dbdb5c1b195d1959081e595d607a1b6044820152606401610a85565b6001600160a01b03821660009081526076602090815260408083208484529091528120600501805460ff1916905561198a83836138f3565b90506119968383613974565b15611ad1576078546001600160a01b0384811660009081526076602090815260408083208784528252918290206001018054835181840281018401909452808452611a8a9594909416939091830182828015611a1157602002820191906000526020600020905b8154815260200190600101908083116119fd575b5050506001600160a01b03881660009081526076602090815260408083208a845282529182902060020180548351818402810184019094528084529294509250830182828015611a8057602002820191906000526020600020905b815481526020019060010190808311611a6c575b5050505050612b5f565b604080516001600160a01b0385168152602081018490529081018290527f8eb6481b2e2f4521b40293ab508fc7e6f3cd00b29a65e9588810b667f3d3e17e90606001610dae565b607854604051636c7b69cb60e01b8152600481018490526001600160a01b03858116602483015290911690636c7b69cb90604401600060405180830381600087803b158015611b1f57600080fd5b505af1158015611b33573d6000803e3d6000fd5b5050604080516001600160a01b03871681526020810186905243918101919091527fe5c8b1b11c66a6097822e5fa86db761dd6049d6f458c0343b5c471ad5fb8135892506060019050610dae565b6060816001600160401b03811115611b9b57611b9b614479565b604051908082528060200260200182016040528015611bce57816020015b6060815260200190600190039081611bb95790505b50905060005b82811015611c6e57611c3e30858584818110611bf257611bf2615177565b9050602002810190611c049190615260565b8080601f0160208091040260200160405190810160405280939291908181526020018383808284376000920191909152506139f592505050565b828281518110611c5057611c50615177565b60200260200101819052508080611c669061515e565b915050611bd4565b5092915050565b611c7d6124bd565b611cc35760405162461bcd60e51b81526020600482015260176024820152762737ba1030baba3437b934bd32b2103a379036b4b73a1760491b6044820152606401610a85565b600080611ccf600c5490565b90506000198503611d05578091506001600c6000828254611cf0919061521f565b90915550611d0090508185613a1a565b611d45565b808510611d415760405162461bcd60e51b815260206004820152600a6024820152691a5b9d985b1a59081a5960b21b6044820152606401610a85565b8491505b611d608683856040518060200160405280600081525061253c565b505050505050565b6006546001600160a01b03163314611d925760405162461bcd60e51b8152600401610a8590614f02565b600082815260756020526040902081518291908190611db19082614fbe565b5060208201516001820190611dc69082614fbe565b5060408201516002820190611ddb9082614fbe565b5060608201516003820190611df09082614fbe565b506080820151600482015560a0820151600582015560c0820151600682015560e08201516007820155610100909101516008909101555050565b611e3682826001613a32565b60795460008281526077602052604090819020905163d0def52160e01b81526001600160a01b039092169163d0def52191611e76918691906004016152a6565b600060405180830381600087803b158015611e9057600080fd5b505af1158015611d60573d6000803e3d6000fd5b6040805160608101825284815260208082018590528183018490526001600160a01b038716600090815260749091529190912081518190611ee59082614fbe565b5060208201516001820190611efa9082614fbe565b50604082015160028201906117c59082614fbe565b6001600160a01b038216600090815260766020908152604080832084845290915281206005015460ff16611f555760405162461bcd60e51b8152600401610a859061518d565b6110d1838361387d565b600580546108f290614e7d565b826001600160a01b0380841690821603611fb95760405162461bcd60e51b815260206004820152600e60248201526d20a8282927ab24a723afa9a2a62360911b6044820152606401610a85565b6001600160a01b03818116600081815260036020908152604080832094881680845294825291829020805460ff191687151590811790915591519182527f17307eab39ab6107e8899845ad3d59bd9653f200f220920489ca2b5937696c31910160405180910390a350505050565b6001600160a01b03851633148061206157506001600160a01b038516600090815260036020908152604080832033845290915290205460ff165b6120a25760405162461bcd60e51b81526020600482015260126024820152710853d5d3915497d3d497d054141493d5915160721b6044820152606401610a85565b6110128585858585613acb565b6001600160a01b0383166120d55760405162461bcd60e51b8152600401610a85906152ca565b6001600160a01b038316600090815260026020908152604080832085845290915290205433908281101561211b5760405162461bcd60e51b8152600401610a85906152f2565b6001600160a01b03858116600081815260026020908152604080832089845282528083208887039055805189815291820188905291938616917fc3d58168c5ae7397731d063d5bbf3d657854427343f4c083240f7aacaa2d0f62910160405180910390a45050505050565b6001600160a01b0382166000908152607460205260409020610db78282614fbe565b6006546001600160a01b031633146121d25760405162461bcd60e51b8152600401610a8590614f02565b607980546001600160a01b0319166001600160a01b0392909216919091179055565b6001600160a01b0382166000908152607460205260409020600201610db78282614fbe565b6060600061222660095490565b90506000600980548060200260200160405190810160405280929190818152602001828054801561227657602002820191906000526020600020905b815481526020019060010190808311612262575b5050505050905060005b8281101561237a5781818151811061229a5761229a615177565b602002602001015185101561236857600a60008383815181106122bf576122bf615177565b6020026020010151815260200190815260200160002080546122e090614e7d565b80601f016020809104026020016040519081016040528092919081815260200182805461230c90614e7d565b80156123595780601f1061232e57610100808354040283529160200191612359565b820191906000526020600020905b81548152906001019060200180831161233c57829003601f168201915b50505050509350505050919050565b61237360018261521f565b9050612280565b5060405162461bcd60e51b815260206004820152600f60248201526e125b9d985b1a59081d1bdad95b9259608a1b6044820152606401610a85565b6060816000036123dc5750506040805180820190915260018152600360fc1b602082015290565b8160005b811561240657806123f08161515e565b91506123ff9050600a836151e2565b91506123e0565b6000816001600160401b0381111561242057612420614479565b6040519080825280601f01601f19166020018201604052801561244a576020820181803683370190505b5090505b84156124b55761245f60018361531c565b915061246c600a8661532f565b61247790603061521f565b60f81b81838151811061248c5761248c615177565b60200101906001600160f81b031916908160001a9053506124ae600a866151e2565b945061244e565b949350505050565b60006124d16006546001600160a01b031690565b6001600160a01b0316336001600160a01b031614905090565b600680546001600160a01b038381166001600160a01b0319831681179093556040519116919082907f8292fce18fa69edf4db7b94ea2e58241df0ae57f97e0a6c9b29067028bf92d7690600090a35050565b6001600160a01b0384166125625760405162461bcd60e51b8152600401610a8590615343565b336125828160008761257388613bf1565b61257c88613bf1565b87613c3c565b6001600160a01b0385166000908152600260209081526040808320878452909152812080548592906125b590849061521f565b909155505060408051858152602081018590526001600160a01b0380881692600092918516917fc3d58168c5ae7397731d063d5bbf3d657854427343f4c083240f7aacaa2d0f62910160405180910390a461101281600087878787613d48565b81518351146126365760405162461bcd60e51b8152600401610a85906151f6565b6001600160a01b03841661265c5760405162461bcd60e51b8152600401610a8590615343565b3361266b818787878787613c3c565b60005b845181101561276257600085828151811061268b5761268b615177565b6020026020010151905060008583815181106126a9576126a9615177565b6020908102919091018101516001600160a01b038b1660009081526002835260408082208683529093529190912054909150818110156126fb5760405162461bcd60e51b8152600401610a85906152f2565b6001600160a01b03808b16600090815260026020818152604080842088855282528084208787039055938d1683529081528282208683529052908120805484929061274790849061521f565b925050819055505050508061275b9061515e565b905061266e565b50846001600160a01b0316866001600160a01b0316826001600160a01b03167f4a39dc06d4c0dbc64b70af90fd698a233a518aa5d07e595d983b8c0526c8f7fb87876040516127b2929190614707565b60405180910390a4611d60818787878787613e9b565b6001600160a01b038216600090815260766020908152604080832084845290915290206005015460609060ff166128115760405162461bcd60e51b8152600401610a859061518d565b6001600160a01b0383166000908152607660209081526040808320858452909152808220815160e0810190925280548290829061284d90614e7d565b80601f016020809104026020016040519081016040528092919081815260200182805461287990614e7d565b80156128c65780601f1061289b576101008083540402835291602001916128c6565b820191906000526020600020905b8154815290600101906020018083116128a957829003601f168201915b505050505081526020016001820180548060200260200160405190810160405280929190818152602001828054801561291e57602002820191906000526020600020905b81548152602001906001019080831161290a575b505050505081526020016002820180548060200260200160405190810160405280929190818152602001828054801561297657602002820191906000526020600020905b815481526020019060010190808311612962575b5050505050815260200160038201548152602001600482015481526020016005820160009054906101000a900460ff16151515158152602001600682015481525050905060006129f2604051806040016040528060088152602001673637b1b0ba34b7b760c11b8152506129ed8460c00151613f78565b614078565b90506000612a286040518060400160405280600981526020016818dc99585d1959105d60ba1b8152506129ed8560800151613f78565b90506000612a5760405180604001604052806005815260200164696d61676560d81b8152508560000151614078565b90506000838383604051602001612a7093929190615369565b60405160208183030381529060405290506000612a8c826140a4565b604051602001612a9c91906153de565b60408051808303601f190181529190529998505050505050505050565b612710811115612afd5760405162461bcd60e51b815260206004820152600f60248201526e45786365656473206d61782062707360881b6044820152606401610a85565b600780546001600160a01b0384166001600160b01b03199091168117600160a01b61ffff851602179091556040518281527f90d7ec04bcb8978719414f82e52e4cb651db41d0e6f8cea6118c2191e6183adb9060200160405180910390a25050565b6001600160a01b038316612b855760405162461bcd60e51b8152600401610a85906152ca565b8051825114612ba65760405162461bcd60e51b8152600401610a85906151f6565b6000339050612bc981856000868660405180602001604052806000815250613c3c565b60005b8351811015612c94576000848281518110612be957612be9615177565b602002602001015190506000848381518110612c0757612c07615177565b6020908102919091018101516001600160a01b0389166000908152600283526040808220868352909352919091205490915081811015612c595760405162461bcd60e51b8152600401610a85906152f2565b6001600160a01b0388166000908152600260209081526040808320958352949052929092209103905580612c8c8161515e565b915050612bcc565b5060006001600160a01b0316846001600160a01b0316826001600160a01b03167f4a39dc06d4c0dbc64b70af90fd698a233a518aa5d07e595d983b8c0526c8f7fb8686604051612ce5929190614707565b60405180910390a450505050565b6060600060746000846001600160a01b03166001600160a01b03168152602001908152602001600020604051806060016040529081600082018054612d3790614e7d565b80601f0160208091040260200160405190810160405280929190818152602001828054612d6390614e7d565b8015612db05780601f10612d8557610100808354040283529160200191612db0565b820191906000526020600020905b815481529060010190602001808311612d9357829003601f168201915b50505050508152602001600182018054612dc990614e7d565b80601f0160208091040260200160405190810160405280929190818152602001828054612df590614e7d565b8015612e425780601f10612e1757610100808354040283529160200191612e42565b820191906000526020600020905b815481529060010190602001808311612e2557829003601f168201915b50505050508152602001600282018054612e5b90614e7d565b80601f0160208091040260200160405190810160405280929190818152602001828054612e8790614e7d565b8015612ed45780601f10612ea957610100808354040283529160200191612ed4565b820191906000526020600020905b815481529060010190602001808311612eb757829003601f168201915b50505050508152505090506000612f0b604051806040016040528060048152602001636e616d6560e01b8152508360000151614078565b90506000612f4b6040518060400160405280600b81526020016a3232b9b1b934b83a34b7b760a91b81525060405180602001604052806000815250614078565b90506000612f7a60405180604001604052806005815260200164696d61676560d81b8152508560400151614078565b90506000612fad6040518060400160405280600981526020016818dc99585d1959105d60ba1b8152508660200151614078565b9050600084848484604051602001612fc89493929190615423565b60405160208183030381529060405290506000612fe4826140a4565b604051602001612ff491906153de565b60408051601f198184030181529190529998505050505050505050565b60606000607560008481526020019081526020016000206040518061012001604052908160008201805461304490614e7d565b80601f016020809104026020016040519081016040528092919081815260200182805461307090614e7d565b80156130bd5780601f10613092576101008083540402835291602001916130bd565b820191906000526020600020905b8154815290600101906020018083116130a057829003601f168201915b505050505081526020016001820180546130d690614e7d565b80601f016020809104026020016040519081016040528092919081815260200182805461310290614e7d565b801561314f5780601f106131245761010080835404028352916020019161314f565b820191906000526020600020905b81548152906001019060200180831161313257829003601f168201915b5050505050815260200160028201805461316890614e7d565b80601f016020809104026020016040519081016040528092919081815260200182805461319490614e7d565b80156131e15780601f106131b6576101008083540402835291602001916131e1565b820191906000526020600020905b8154815290600101906020018083116131c457829003601f168201915b505050505081526020016003820180546131fa90614e7d565b80601f016020809104026020016040519081016040528092919081815260200182805461322690614e7d565b80156132735780601f1061324857610100808354040283529160200191613273565b820191906000526020600020905b81548152906001019060200180831161325657829003601f168201915b5050505050815260200160048201548152602001600582015481526020016006820154815260200160078201548152602001600882015481525050905060006132dc604051806040016040528060048152602001636e616d6560e01b8152508360000151614078565b905060006133116040518060400160405280600b81526020016a3232b9b1b934b83a34b7b760a91b8152508460400151614078565b9050600061334060405180604001604052806005815260200164696d61676560d81b8152508560600151614078565b905060006133746040518060400160405280600781526020016664726976696e6760c81b8152506129ed8760800151613f78565b905060006133a46040518060400160405280600381526020016265636f60e81b8152506129ed8860a00151613f78565b905060006133d96040518060400160405280600881526020016764697374616e636560c01b8152506129ed8960c00151613f78565b9050600061340a604051806040016040528060048152602001637361666560e01b8152506129ed8a60e00151613f78565b9050600061344060405180604001604052806008815260200167726566756c696e6760c01b8152506129ed8b6101000151613f78565b905060006134726040518060400160405280600881526020016763617465676f727960c01b8152508b60200151614078565b905060008989898989898960405160200161349397969594939291906154b6565b60405160208183030381529060405283836040516020016134b5929190615594565b60408051601f19818403018152908290526134d39291602001614ed3565b604051602081830303815290604052905060006134ef826140a4565b6040516020016134ff91906153de565b60408051601f198184030181529190529e9d5050505050505050505050505050565b60006005805461353090614e7d565b80601f016020809104026020016040519081016040528092919081815260200182805461355c90614e7d565b80156135a95780601f1061357e576101008083540402835291602001916135a9565b820191906000526020600020905b81548152906001019060200180831161358c57829003601f168201915b5050505050905081600590816135bf9190614fbe565b507fc9c7c3fe08b88b4df9d4d47ef47d2c43d55c025a0ba88ca442580ed9e7348a1681836040516135f19291906155de565b60405180910390a15050565b60008061360a848661521f565b60098054600181019091557f6e1540171b6c0c960b71a7020d9f60077f6af931a8bbf590da0223dacf75c7af018190556000818152600a602052604090209092508291506136588482614fbe565b50935093915050565b6001600160a01b0384166136875760405162461bcd60e51b8152600401610a8590615343565b81518351146136a85760405162461bcd60e51b8152600401610a85906151f6565b336136b881600087878787613c3c565b60005b8451811015613754578381815181106136d6576136d6615177565b602002602001015160026000886001600160a01b03166001600160a01b03168152602001908152602001600020600087848151811061371757613717615177565b60200260200101518152602001908152602001600020600082825461373c919061521f565b9091555081905061374c8161515e565b9150506136bb565b50846001600160a01b031660006001600160a01b0316826001600160a01b03167f4a39dc06d4c0dbc64b70af90fd698a233a518aa5d07e595d983b8c0526c8f7fb87876040516137a5929190614707565b60405180910390a461101281600087878787613e9b565b6127108111156138005760405162461bcd60e51b815260206004820152600f60248201526e45786365656473206d61782062707360881b6044820152606401610a85565b6040805180820182526001600160a01b038481168083526020808401868152600089815260088352869020945185546001600160a01b031916941693909317845591516001909301929092559151838152909185917f7365cf4122f072a3365c20d54eff9b38d73c096c28e1892ec8f5b0e403a0f12d91016118b5565b607854604051636c39b2dd60e01b8152600481018390526001600160a01b0384811660248301526000921690636c39b2dd90604401602060405180830381865afa1580156138cf573d6000803e3d6000fd5b505050506040513d601f19601f820116820180604052508101906110d19190615603565b6078546040516379962ba160e01b8152600481018390526001600160a01b03848116602483015260009283929116906379962ba1906044016040805180830381865afa158015613947573d6000803e3d6000fd5b505050506040513d601f19601f8201168201806040525081019061396b9190615232565b95945050505050565b6078546040516379962ba160e01b8152600481018390526001600160a01b03848116602483015260009283929116906379962ba1906044016040805180830381865afa1580156139c8573d6000803e3d6000fd5b505050506040513d601f19601f820116820180604052508101906139ec9190615232565b50949350505050565b60606110d18383604051806060016040528060278152602001615836602791396141f6565b6000828152600460205260409020610db78282614fbe565b6001600160a01b038316613a585760405162461bcd60e51b8152600401610a85906152ca565b33613a8781856000613a6987613bf1565b613a7287613bf1565b60405180602001604052806000815250613c3c565b6001600160a01b03841660009081526002602090815260408083208684529091529020548281101561211b5760405162461bcd60e51b8152600401610a85906152f2565b6001600160a01b038416613af15760405162461bcd60e51b8152600401610a8590615343565b33613b0181878761257388613bf1565b6001600160a01b038616600090815260026020908152604080832087845290915290205483811015613b455760405162461bcd60e51b8152600401610a85906152f2565b6001600160a01b0380881660009081526002602081815260408084208a855282528084208987039055938a16835290815282822088835290529081208054869290613b9190849061521f565b909155505060408051868152602081018690526001600160a01b03808916928a821692918616917fc3d58168c5ae7397731d063d5bbf3d657854427343f4c083240f7aacaa2d0f62910160405180910390a46117c5828888888888613d48565b60408051600180825281830190925260609160009190602080830190803683370190505090508281600081518110613c2b57613c2b615177565b602090810291909101015292915050565b6001600160a01b038516613cc35760005b8351811015613cc157828181518110613c6857613c68615177565b6020026020010151600d6000868481518110613c8657613c86615177565b602002602001015181526020019081526020016000206000828254613cab919061521f565b90915550613cba90508161515e565b9050613c4d565b505b6001600160a01b038416611d605760005b83518110156117c557828181518110613cef57613cef615177565b6020026020010151600d6000868481518110613d0d57613d0d615177565b602002602001015181526020019081526020016000206000828254613d32919061531c565b90915550613d4190508161515e565b9050613cd4565b6001600160a01b0384163b15611d605760405163f23a6e6160e01b81526001600160a01b0385169063f23a6e6190613d8c9089908990889088908890600401615620565b6020604051808303816000875af1925050508015613dc7575060408051601f3d908101601f19168201909252613dc491810190615665565b60015b613e4957613dd3615682565b806308c379a003613e0c5750613de761569e565b80613df25750613e0e565b8060405162461bcd60e51b8152600401610a859190614430565b505b60405162461bcd60e51b815260206004820152601060248201526f10a2a92198989a9aa922a1a2a4ab22a960811b6044820152606401610a85565b6001600160e01b0319811663f23a6e6160e01b146117c55760405162461bcd60e51b815260206004820152600f60248201526e1513d2d15394d7d491529150d51151608a1b6044820152606401610a85565b6001600160a01b0384163b15611d605760405163bc197c8160e01b81526001600160a01b0385169063bc197c8190613edf9089908990889088908890600401615727565b6020604051808303816000875af1925050508015613f1a575060408051601f3d908101601f19168201909252613f1791810190615665565b60015b613f2657613dd3615682565b6001600160e01b0319811663bc197c8160e01b146117c55760405162461bcd60e51b815260206004820152600f60248201526e1513d2d15394d7d491529150d51151608a1b6044820152606401610a85565b606081600003613f9f5750506040805180820190915260018152600360fc1b602082015290565b8160005b8115613fc95780613fb38161515e565b9150613fc29050600a836151e2565b9150613fa3565b6000816001600160401b03811115613fe357613fe3614479565b6040519080825280601f01601f19166020018201604052801561400d576020820181803683370190505b5090505b84156124b55761402260018361531c565b915061402f600a8661532f565b61403a90603061521f565b60f81b81838151811061404f5761404f615177565b60200101906001600160f81b031916908160001a905350614071600a866151e2565b9450614011565b6060828260405160200161408d929190615785565b604051602081830303815290604052905092915050565b606081516000036140c357505060408051602081019091526000815290565b60006040518060600160405280604081526020016157f660409139905060006003845160026140f2919061521f565b6140fc91906151e2565b6141079060046151b5565b6001600160401b0381111561411e5761411e614479565b6040519080825280601f01601f191660200182016040528015614148576020820181803683370190505b509050600182016020820185865187015b808210156141b4576003820191508151603f8160121c168501518453600184019350603f81600c1c168501518453600184019350603f8160061c168501518453600184019350603f8116850151845350600183019250614159565b50506003865106600181146141d057600281146141e3576141eb565b603d6001830353603d60028303536141eb565b603d60018303535b509195945050505050565b60606001600160a01b0384163b61425e5760405162461bcd60e51b815260206004820152602660248201527f416464726573733a2064656c65676174652063616c6c20746f206e6f6e2d636f6044820152651b9d1c9858dd60d21b6064820152608401610a85565b600080856001600160a01b03168560405161427991906157d9565b600060405180830381855af49150503d80600081146142b4576040519150601f19603f3d011682016040523d82523d6000602084013e6142b9565b606091505b50915091506142c98282866142d3565b9695505050505050565b606083156142e25750816110d1565b8251156142f25782518084602001fd5b8160405162461bcd60e51b8152600401610a859190614430565b828054828255906000526020600020908101928215614347579160200282015b8281111561434757825182559160200191906001019061432c565b50614353929150614357565b5090565b5b808211156143535760008155600101614358565b6001600160a01b0381168114610a9757600080fd5b6000806040838503121561439457600080fd5b823561439f8161436c565b946020939093013593505050565b6001600160e01b031981168114610a9757600080fd5b6000602082840312156143d557600080fd5b81356110d1816143ad565b60005b838110156143fb5781810151838201526020016143e3565b50506000910152565b6000815180845261441c8160208601602086016143e0565b601f01601f19169290920160200192915050565b6020815260006110d16020830184614404565b60006020828403121561445557600080fd5b5035919050565b60006020828403121561446e57600080fd5b81356110d18161436c565b634e487b7160e01b600052604160045260246000fd5b601f8201601f191681016001600160401b03811182821017156144b4576144b4614479565b6040525050565b60405161012081016001600160401b03811182821017156144de576144de614479565b60405290565b600082601f8301126144f557600080fd5b81356001600160401b0381111561450e5761450e614479565b604051614525601f8301601f19166020018261448f565b81815284602083860101111561453a57600080fd5b816020850160208301376000918101602001919091529392505050565b60006001600160401b0382111561457057614570614479565b5060051b60200190565b600082601f83011261458b57600080fd5b8135602061459882614557565b6040516145a5828261448f565b83815260059390931b85018201928281019150868411156145c557600080fd5b8286015b848110156145e057803583529183019183016145c9565b509695505050505050565b60008060008060008060c0878903121561460457600080fd5b863561460f8161436c565b95506020870135945060408701356001600160401b038082111561463257600080fd5b61463e8a838b016144e4565b9550606089013591508082111561465457600080fd5b6146608a838b0161457a565b9450608089013591508082111561467657600080fd5b5061468389828a0161457a565b92505060a087013590509295509295509295565b6000806000606084860312156146ac57600080fd5b83356146b78161436c565b95602085013595506040909401359392505050565b600081518084526020808501945080840160005b838110156146fc578151875295820195908201906001016146e0565b509495945050505050565b60408152600061471a60408301856146cc565b828103602084015261396b81856146cc565b6000806040838503121561473f57600080fd5b50508035926020909101359150565b600080600080600060a0868803121561476657600080fd5b85356147718161436c565b945060208601356147818161436c565b935060408601356001600160401b038082111561479d57600080fd5b6147a989838a0161457a565b945060608801359150808211156147bf57600080fd5b6147cb89838a0161457a565b935060808801359150808211156147e157600080fd5b506147ee888289016144e4565b9150509295509295909350565b6000806040838503121561480e57600080fd5b82356001600160401b038082111561482557600080fd5b818501915085601f83011261483957600080fd5b8135602061484682614557565b604051614853828261448f565b83815260059390931b850182019282810191508984111561487357600080fd5b948201945b8386101561489a57853561488b8161436c565b82529482019490820190614878565b965050860135925050808211156148b057600080fd5b506148bd8582860161457a565b9150509250929050565b6020815260006110d160208301846146cc565b6000806000606084860312156148ef57600080fd5b83356148fa8161436c565b925060208401356001600160401b038082111561491657600080fd5b6149228783880161457a565b9350604086013591508082111561493857600080fd5b506149458682870161457a565b9150509250925092565b60006020828403121561496157600080fd5b81356001600160401b0381111561497757600080fd5b6124b5848285016144e4565b6000806000806080858703121561499957600080fd5b84356149a48161436c565b935060208501356001600160401b03808211156149c057600080fd5b6149cc8883890161457a565b945060408701359150808211156149e257600080fd5b6149ee8883890161457a565b93506060870135915080821115614a0457600080fd5b50614a11878288016144e4565b91505092959194509250565b600080600060608486031215614a3257600080fd5b833592506020840135614a448161436c565b929592945050506040919091013590565b8015158114610a9757600080fd5b60008060408385031215614a7657600080fd5b8235614a818161436c565b91506020830135614a9181614a55565b809150509250929050565b60008060208385031215614aaf57600080fd5b82356001600160401b0380821115614ac657600080fd5b818501915085601f830112614ada57600080fd5b813581811115614ae957600080fd5b8660208260051b8501011115614afe57600080fd5b60209290920196919550909350505050565b6000602080830181845280855180835260408601915060408160051b870101925083870160005b82811015614b6557603f19888603018452614b53858351614404565b94509285019290850190600101614b37565b5092979650505050505050565b60008060008060808587031215614b8857600080fd5b8435614b938161436c565b93506020850135925060408501356001600160401b03811115614bb557600080fd5b614bc1878288016144e4565b949793965093946060013593505050565b60008060408385031215614be557600080fd5b8235915060208301356001600160401b0380821115614c0357600080fd5b908401906101208287031215614c1857600080fd5b614c206144bb565b823582811115614c2f57600080fd5b614c3b888286016144e4565b825250602083013582811115614c5057600080fd5b614c5c888286016144e4565b602083015250604083013582811115614c7457600080fd5b614c80888286016144e4565b604083015250606083013582811115614c9857600080fd5b614ca4888286016144e4565b6060830152506080830135608082015260a083013560a082015260c083013560c082015260e083013560e0820152610100915081830135828201528093505050509250929050565b60008060008060808587031215614d0257600080fd5b8435614d0d8161436c565b935060208501356001600160401b0380821115614d2957600080fd5b614d35888389016144e4565b94506040870135915080821115614d4b57600080fd5b6149ee888389016144e4565b60008060408385031215614d6a57600080fd5b8235614d758161436c565b91506020830135614a918161436c565b600080600060608486031215614d9a57600080fd5b8335614da58161436c565b92506020840135614db58161436c565b91506040840135614dc581614a55565b809150509250925092565b600080600080600060a08688031215614de857600080fd5b8535614df38161436c565b94506020860135614e038161436c565b9350604086013592506060860135915060808601356001600160401b03811115614e2c57600080fd5b6147ee888289016144e4565b60008060408385031215614e4b57600080fd5b8235614e568161436c565b915060208301356001600160401b03811115614e7157600080fd5b6148bd858286016144e4565b600181811c90821680614e9157607f821691505b602082108103614eb157634e487b7160e01b600052602260045260246000fd5b50919050565b60008151614ec98185602086016143e0565b9290920192915050565b60008351614ee58184602088016143e0565b835190830190614ef98183602088016143e0565b01949350505050565b6020808252600e908201526d139bdd08185d5d1a1bdc9a5e995960921b604082015260600190565b85815260a060208201526000614f4360a08301876146cc565b8281036040840152614f5581876146cc565b606084019590955250506001600160a01b03919091166080909101529392505050565b601f821115610db757600081815260208120601f850160051c81016020861015614f9f5750805b601f850160051c820191505b81811015611d6057828155600101614fab565b81516001600160401b03811115614fd757614fd7614479565b614feb81614fe58454614e7d565b84614f78565b602080601f83116001811461502057600084156150085750858301515b600019600386901b1c1916600185901b178555611d60565b600085815260208120601f198616915b8281101561504f57888601518255948401946001909101908401615030565b508582101561506d5787850151600019600388901b60f8161c191681555b5050505050600190811b01905550565b6000815461508a81614e7d565b8085526020600183811680156150a757600181146150c1576150ef565b60ff1985168884015283151560051b8801830195506150ef565b866000528260002060005b858110156150e75781548a82018601529083019084016150cc565b890184019650505b505050505092915050565b6001600160a01b038816815260e06020820181905260009061511e9083018961507d565b6040830197909752506060810194909452911515608084015260a083015260c09091015292915050565b634e487b7160e01b600052601160045260246000fd5b60006001820161517057615170615148565b5060010190565b634e487b7160e01b600052603260045260246000fd5b6020808252600e908201526d1b9bdd081c9959da5cdd195c995960921b604082015260600190565b80820281158282048414176108df576108df615148565b634e487b7160e01b600052601260045260246000fd5b6000826151f1576151f16151cc565b500490565b6020808252600f908201526e0988a9c8ea890be9a92a69a82a8869608b1b604082015260600190565b808201808211156108df576108df615148565b6000806040838503121561524557600080fd5b825161525081614a55565b6020939093015192949293505050565b6000808335601e1984360301811261527757600080fd5b8301803591506001600160401b0382111561529157600080fd5b602001915036819003821315610f4657600080fd5b6001600160a01b03831681526040602082018190526000906124b59083018461507d565b6020808252600e908201526d232927a6afad22a927afa0a2222960911b604082015260600190565b60208082526010908201526f125394d551919250d251539517d0905360821b604082015260600190565b818103818111156108df576108df615148565b60008261533e5761533e6151cc565b500690565b6020808252600c908201526b2a27afad22a927afa0a2222960a11b604082015260600190565b607b60f81b8152600084516153858160018501602089016143e0565b8083019050600b60fa1b80600183015285516153a8816002850160208a016143e0565b600292019182015283516153c38160038401602088016143e0565b607d60f81b6003929091019182015260040195945050505050565b7f646174613a6170706c69636174696f6e2f6a736f6e3b6261736536342c00000081526000825161541681601d8501602087016143e0565b91909101601d0192915050565b607b60f81b81526000855161543f816001850160208a016143e0565b8083019050600b60fa1b8060018301528651615462816002850160208b016143e0565b60029201918201819052855161547f816003850160208a016143e0565b6003920191820152835161549a8160048401602088016143e0565b607d60f81b600492909101918201526005019695505050505050565b607b60f81b8152600088516154d2816001850160208d016143e0565b8083019050600b60fa1b80600183015289516154f5816002850160208e016143e0565b600292019182018190528851615512816003850160208d016143e0565b60039201918201819052875161552f816004850160208c016143e0565b6004920191820152855161554a816005840160208a016143e0565b61558561557261557f61557261556c600586880101600b60fa1b815260010190565b8a614eb7565b600b60fa1b815260010190565b87614eb7565b9b9a5050505050505050505050565b600083516155a68184602088016143e0565b600b60fa1b90830190815283516155c48160018401602088016143e0565b607d60f81b60019290910191820152600201949350505050565b6040815260006155f16040830185614404565b828103602084015261396b8185614404565b60006020828403121561561557600080fd5b81516110d181614a55565b6001600160a01b03868116825285166020820152604081018490526060810183905260a06080820181905260009061565a90830184614404565b979650505050505050565b60006020828403121561567757600080fd5b81516110d1816143ad565b600060033d111561569b5760046000803e5060005160e01c5b90565b600060443d10156156ac5790565b6040516003193d81016004833e81513d6001600160401b0381602484011181841117156156db57505050505090565b82850191508151818111156156f35750505050505090565b843d870101602082850101111561570d5750505050505090565b61571c6020828601018761448f565b509095945050505050565b6001600160a01b0386811682528516602082015260a060408201819052600090615753908301866146cc565b828103606084015261576581866146cc565b905082810360808401526157798185614404565b98975050505050505050565b6000601160f91b80835284516157a28160018601602089016143e0565b62111d1160e91b60019185019182015284516157c58160048401602089016143e0565b016004810191909152600501949350505050565b600082516157eb8184602087016143e0565b919091019291505056fe4142434445464748494a4b4c4d4e4f505152535455565758595a6162636465666768696a6b6c6d6e6f707172737475767778797a303132333435363738392b2f416464726573733a206c6f772d6c6576656c2064656c65676174652063616c6c206661696c6564a264697066735822122044473585c1ed5e3b632e7de3a58c108d97942d839e63964cb2706b91051f2cd164736f6c6343000811003368747470733a2f2f697066732e696f2f697066732f62616679626569656e3772363463636b36726432366f336168747233323334376b6f3269706f6668617770757a7174336e376f326c7370746e65712f313030312e6a736f6e",
  "linkReferences": {},
  "deployedLinkReferences": {}
}