{
  "_format": "hh-sol-artifact-1",
  "contractName": "GoriDrop",
  "sourceName": "contracts/GoriDrop.sol",
  "abi": [
    {
      "inputs": [
        {
          "internalType": "contract IERC1155",
          "name": "_erc1155",
          "type": "address"
        }
      ],
      "stateMutability": "nonpayable",
      "type": "constructor"
    },
    {
      "anonymous": false,
      "inputs": [
        {
          "indexed": true,
          "internalType": "address",
          "name": "tokenAddress",
          "type": "address"
        },
        {
          "indexed": true,
          "internalType": "address",
          "name": "tokenOwner",
          "type": "address"
        },
        {
          "indexed": true,
          "internalType": "address",
          "name": "recipient",
          "type": "address"
        },
        {
          "indexed": false,
          "internalType": "uint256",
          "name": "tokenId",
          "type": "uint256"
        },
        {
          "indexed": false,
          "internalType": "uint256",
          "name": "amount",
          "type": "uint256"
        }
      ],
      "name": "AirdropFailed",
      "type": "event"
    },
    {
      "anonymous": false,
      "inputs": [
        {
          "indexed": false,
          "internalType": "string",
          "name": "prevURI",
          "type": "string"
        },
        {
          "indexed": false,
          "internalType": "string",
          "name": "newURI",
          "type": "string"
        }
      ],
      "name": "ContractURIUpdated",
      "type": "event"
    },
    {
      "anonymous": false,
      "inputs": [
        {
          "indexed": false,
          "internalType": "uint8",
          "name": "version",
          "type": "uint8"
        }
      ],
      "name": "Initialized",
      "type": "event"
    },
    {
      "anonymous": false,
      "inputs": [
        {
          "indexed": true,
          "internalType": "address",
          "name": "prevOwner",
          "type": "address"
        },
        {
          "indexed": true,
          "internalType": "address",
          "name": "newOwner",
          "type": "address"
        }
      ],
      "name": "OwnerUpdated",
      "type": "event"
    },
    {
      "anonymous": false,
      "inputs": [
        {
          "indexed": true,
          "internalType": "bytes32",
          "name": "role",
          "type": "bytes32"
        },
        {
          "indexed": true,
          "internalType": "bytes32",
          "name": "previousAdminRole",
          "type": "bytes32"
        },
        {
          "indexed": true,
          "internalType": "bytes32",
          "name": "newAdminRole",
          "type": "bytes32"
        }
      ],
      "name": "RoleAdminChanged",
      "type": "event"
    },
    {
      "anonymous": false,
      "inputs": [
        {
          "indexed": true,
          "internalType": "bytes32",
          "name": "role",
          "type": "bytes32"
        },
        {
          "indexed": true,
          "internalType": "address",
          "name": "account",
          "type": "address"
        },
        {
          "indexed": true,
          "internalType": "address",
          "name": "sender",
          "type": "address"
        }
      ],
      "name": "RoleGranted",
      "type": "event"
    },
    {
      "anonymous": false,
      "inputs": [
        {
          "indexed": true,
          "internalType": "bytes32",
          "name": "role",
          "type": "bytes32"
        },
        {
          "indexed": true,
          "internalType": "address",
          "name": "account",
          "type": "address"
        },
        {
          "indexed": true,
          "internalType": "address",
          "name": "sender",
          "type": "address"
        }
      ],
      "name": "RoleRevoked",
      "type": "event"
    },
    {
      "inputs": [],
      "name": "DEFAULT_ADMIN_ROLE",
      "outputs": [
        {
          "internalType": "bytes32",
          "name": "",
          "type": "bytes32"
        }
      ],
      "stateMutability": "view",
      "type": "function"
    },
    {
      "inputs": [
        {
          "internalType": "address",
          "name": "_tokenAddress",
          "type": "address"
        },
        {
          "internalType": "address",
          "name": "_tokenOwner",
          "type": "address"
        },
        {
          "components": [
            {
              "internalType": "address",
              "name": "recipient",
              "type": "address"
            },
            {
              "internalType": "uint256",
              "name": "tokenId",
              "type": "uint256"
            },
            {
              "internalType": "uint256",
              "name": "amount",
              "type": "uint256"
            }
          ],
          "internalType": "struct IAirdropERC1155.AirdropContent[]",
          "name": "_contents",
          "type": "tuple[]"
        }
      ],
      "name": "airdropERC1155",
      "outputs": [],
      "stateMutability": "nonpayable",
      "type": "function"
    },
    {
      "inputs": [
        {
          "internalType": "contract IERC1155",
          "name": "_erc1155",
          "type": "address"
        }
      ],
      "name": "changeERC1155Contract",
      "outputs": [],
      "stateMutability": "nonpayable",
      "type": "function"
    },
    {
      "inputs": [],
      "name": "contractType",
      "outputs": [
        {
          "internalType": "bytes32",
          "name": "",
          "type": "bytes32"
        }
      ],
      "stateMutability": "pure",
      "type": "function"
    },
    {
      "inputs": [],
      "name": "contractURI",
      "outputs": [
        {
          "internalType": "string",
          "name": "",
          "type": "string"
        }
      ],
      "stateMutability": "view",
      "type": "function"
    },
    {
      "inputs": [],
      "name": "contractVersion",
      "outputs": [
        {
          "internalType": "uint8",
          "name": "",
          "type": "uint8"
        }
      ],
      "stateMutability": "pure",
      "type": "function"
    },
    {
      "inputs": [
        {
          "internalType": "bytes32",
          "name": "role",
          "type": "bytes32"
        }
      ],
      "name": "getRoleAdmin",
      "outputs": [
        {
          "internalType": "bytes32",
          "name": "",
          "type": "bytes32"
        }
      ],
      "stateMutability": "view",
      "type": "function"
    },
    {
      "inputs": [
        {
          "internalType": "bytes32",
          "name": "role",
          "type": "bytes32"
        },
        {
          "internalType": "uint256",
          "name": "index",
          "type": "uint256"
        }
      ],
      "name": "getRoleMember",
      "outputs": [
        {
          "internalType": "address",
          "name": "member",
          "type": "address"
        }
      ],
      "stateMutability": "view",
      "type": "function"
    },
    {
      "inputs": [
        {
          "internalType": "bytes32",
          "name": "role",
          "type": "bytes32"
        }
      ],
      "name": "getRoleMemberCount",
      "outputs": [
        {
          "internalType": "uint256",
          "name": "count",
          "type": "uint256"
        }
      ],
      "stateMutability": "view",
      "type": "function"
    },
    {
      "inputs": [
        {
          "internalType": "address",
          "name": "from",
          "type": "address"
        },
        {
          "internalType": "address",
          "name": "_tokenAddress",
          "type": "address"
        },
        {
          "internalType": "address",
          "name": "_tokenOwner",
          "type": "address"
        },
        {
          "components": [
            {
              "internalType": "address",
              "name": "recipient",
              "type": "address"
            },
            {
              "internalType": "uint256",
              "name": "tokenId",
              "type": "uint256"
            },
            {
              "internalType": "uint256",
              "name": "amount",
              "type": "uint256"
            }
          ],
          "internalType": "struct IAirdropERC1155.AirdropContent[]",
          "name": "_contents",
          "type": "tuple[]"
        }
      ],
      "name": "goridrop",
      "outputs": [],
      "stateMutability": "nonpayable",
      "type": "function"
    },
    {
      "inputs": [
        {
          "internalType": "bytes32",
          "name": "role",
          "type": "bytes32"
        },
        {
          "internalType": "address",
          "name": "account",
          "type": "address"
        }
      ],
      "name": "grantRole",
      "outputs": [],
      "stateMutability": "nonpayable",
      "type": "function"
    },
    {
      "inputs": [
        {
          "internalType": "bytes32",
          "name": "role",
          "type": "bytes32"
        },
        {
          "internalType": "address",
          "name": "account",
          "type": "address"
        }
      ],
      "name": "hasRole",
      "outputs": [
        {
          "internalType": "bool",
          "name": "",
          "type": "bool"
        }
      ],
      "stateMutability": "view",
      "type": "function"
    },
    {
      "inputs": [
        {
          "internalType": "bytes32",
          "name": "role",
          "type": "bytes32"
        },
        {
          "internalType": "address",
          "name": "account",
          "type": "address"
        }
      ],
      "name": "hasRoleWithSwitch",
      "outputs": [
        {
          "internalType": "bool",
          "name": "",
          "type": "bool"
        }
      ],
      "stateMutability": "view",
      "type": "function"
    },
    {
      "inputs": [
        {
          "internalType": "address",
          "name": "_defaultAdmin",
          "type": "address"
        },
        {
          "internalType": "string",
          "name": "_contractURI",
          "type": "string"
        },
        {
          "internalType": "address[]",
          "name": "_trustedForwarders",
          "type": "address[]"
        }
      ],
      "name": "initialize",
      "outputs": [],
      "stateMutability": "nonpayable",
      "type": "function"
    },
    {
      "inputs": [
        {
          "internalType": "address",
          "name": "forwarder",
          "type": "address"
        }
      ],
      "name": "isTrustedForwarder",
      "outputs": [
        {
          "internalType": "bool",
          "name": "",
          "type": "bool"
        }
      ],
      "stateMutability": "view",
      "type": "function"
    },
    {
      "inputs": [
        {
          "internalType": "bytes[]",
          "name": "data",
          "type": "bytes[]"
        }
      ],
      "name": "multicall",
      "outputs": [
        {
          "internalType": "bytes[]",
          "name": "results",
          "type": "bytes[]"
        }
      ],
      "stateMutability": "nonpayable",
      "type": "function"
    },
    {
      "inputs": [],
      "name": "owner",
      "outputs": [
        {
          "internalType": "address",
          "name": "",
          "type": "address"
        }
      ],
      "stateMutability": "view",
      "type": "function"
    },
    {
      "inputs": [
        {
          "internalType": "bytes32",
          "name": "role",
          "type": "bytes32"
        },
        {
          "internalType": "address",
          "name": "account",
          "type": "address"
        }
      ],
      "name": "renounceRole",
      "outputs": [],
      "stateMutability": "nonpayable",
      "type": "function"
    },
    {
      "inputs": [
        {
          "internalType": "bytes32",
          "name": "role",
          "type": "bytes32"
        },
        {
          "internalType": "address",
          "name": "account",
          "type": "address"
        }
      ],
      "name": "revokeRole",
      "outputs": [],
      "stateMutability": "nonpayable",
      "type": "function"
    },
    {
      "inputs": [
        {
          "internalType": "string",
          "name": "_uri",
          "type": "string"
        }
      ],
      "name": "setContractURI",
      "outputs": [],
      "stateMutability": "nonpayable",
      "type": "function"
    },
    {
      "inputs": [
        {
          "internalType": "address",
          "name": "_newOwner",
          "type": "address"
        }
      ],
      "name": "setOwner",
      "outputs": [],
      "stateMutability": "nonpayable",
      "type": "function"
    }
  ],
  "bytecode": "0x60806040523480156200001157600080fd5b50604051620024283803806200242883398101604081905262000034916200024b565b600054610100900460ff1615808015620000555750600054600160ff909116105b8062000085575062000072306200018f60201b620011571760201c565b15801562000085575060005460ff166001145b620000ed5760405162461bcd60e51b815260206004820152602e60248201527f496e697469616c697a61626c653a20636f6e747261637420697320616c72656160448201526d191e481a5b9a5d1a585b1a5e995960921b606482015260840160405180910390fd5b6000805460ff19166001179055801562000111576000805461ff0019166101001790555b801562000158576000805461ff0019169055604051600181527f7f26b83ff96e1f2b6a682f133852f6798a09c465da95921460cefb38474024989060200160405180910390a15b5060ce80546001600160a01b0319166001600160a01b03831617905562000188620001826200019e565b620001ba565b506200027d565b6001600160a01b03163b151590565b6000620001b56200020c60201b620011661760201c565b905090565b60cd80546001600160a01b038381166001600160a01b0319831681179093556040519116919082907f8292fce18fa69edf4db7b94ea2e58241df0ae57f97e0a6c9b29067028bf92d7690600090a35050565b3360009081526069602052604081205460ff161562000232575060131936013560601c90565b620001b56200024760201b620011951760201c565b3390565b6000602082840312156200025e57600080fd5b81516001600160a01b03811681146200027657600080fd5b9392505050565b61219b806200028d6000396000f3fe608060405234801561001057600080fd5b50600436106101365760003560e01c80639010d07c116100b8578063a32fa5b31161007c578063a32fa5b3146102a6578063ac9650d8146102b9578063ca15c873146102d9578063cb2ef6f7146102ec578063d547741f14610303578063e8a3d4851461031657600080fd5b80639010d07c1461025657806391d1485414610269578063938e3d7b1461027c578063a0a8e4601461028f578063a217fddf1461029e57600080fd5b80633a105cfb116100ff5780633a105cfb146101bc57806341444690146101cf57806354dec927146101e2578063572b6c05146101f55780638da5cb5b1461023157600080fd5b806277deca1461013b57806313af403514610150578063248a9ca3146101635780632f2ff15d1461019657806336568abe146101a9575b600080fd5b61014e6101493660046118f4565b61032b565b005b61014e61015e3660046118f4565b610374565b610183610171366004611911565b60009081526003602052604090205490565b6040519081526020015b60405180910390f35b61014e6101a436600461192a565b6103ca565b61014e6101b736600461192a565b610464565b61014e6101ca366004611a11565b6104c6565b61014e6101dd366004611b48565b6105f7565b61014e6101f0366004611bad565b6109ae565b6102216102033660046118f4565b6001600160a01b031660009081526069602052604090205460ff1690565b604051901515815260200161018d565b60cd546001600160a01b03165b6040516001600160a01b03909116815260200161018d565b61023e610264366004611c29565b610d74565b61022161027736600461192a565b610e63565b61014e61028a366004611c4b565b610e8e565b6040516002815260200161018d565b610183600081565b6102216102b436600461192a565b610edc565b6102cc6102c7366004611c88565b610f32565b60405161018d9190611d4d565b6101836102e7366004611911565b611027565b6d41697264726f704552433131353560901b610183565b61014e61031136600461192a565b6110b0565b61031e6110c9565b60405161018d9190611daf565b60cd546001600160a01b031661033f611199565b6001600160a01b03161461035257600080fd5b60ce80546001600160a01b0319166001600160a01b0392909216919091179055565b61037c6111a3565b6103be5760405162461bcd60e51b815260206004820152600e60248201526d139bdd08185d5d1a1bdc9a5e995960921b60448201526064015b60405180910390fd5b6103c7816111d0565b50565b6000828152600360205260409020546103e39033611222565b60008281526002602090815260408083206001600160a01b038516845290915290205460ff16156104565760405162461bcd60e51b815260206004820152601d60248201527f43616e206f6e6c79206772616e7420746f206e6f6e20686f6c6465727300000060448201526064016103b5565b61046082826112a2565b5050565b336001600160a01b038216146104bc5760405162461bcd60e51b815260206004820152601a60248201527f43616e206f6e6c792072656e6f756e636520666f722073656c6600000000000060448201526064016103b5565b61046082826112b6565b600054610100900460ff16158080156104e65750600054600160ff909116105b806105005750303b158015610500575060005460ff166001145b6105635760405162461bcd60e51b815260206004820152602e60248201527f496e697469616c697a61626c653a20636f6e747261637420697320616c72656160448201526d191e481a5b9a5d1a585b1a5e995960921b60648201526084016103b5565b6000805460ff191660011790558015610586576000805461ff0019166101001790555b61058f8261130d565b6105988361139c565b6105a36000856112a2565b6105ab611478565b80156105f1576000805461ff0019169055604051600181527f7f26b83ff96e1f2b6a682f133852f6798a09c465da95921460cefb38474024989060200160405180910390a15b50505050565b6002600554036106495760405162461bcd60e51b815260206004820152601f60248201527f5265656e7472616e637947756172643a207265656e7472616e742063616c6c0060448201526064016103b5565b600260055561065b6000610277611199565b6106995760405162461bcd60e51b815260206004820152600f60248201526e2737ba1030baba3437b934bd32b21760891b60448201526064016103b5565b8060005b818110156109a157856001600160a01b031663f242432a868686858181106106c7576106c7611dc2565b6106dd92602060609092020190810191506118f4565b8787868181106106ef576106ef611dc2565b9050606002016020013588888781811061070b5761070b611dc2565b905060600201604001356040518563ffffffff1660e01b81526004016107349493929190611dd8565b600060405180830381600087803b15801561074e57600080fd5b505af192505050801561075f575060015b6109995783838281811061077557610775611dc2565b90506060020160400135866001600160a01b031662fdd58e878787868181106107a0576107a0611dc2565b905060600201602001356040518363ffffffff1660e01b81526004016107db9291906001600160a01b03929092168252602082015260400190565b602060405180830381865afa1580156107f8573d6000803e3d6000fd5b505050506040513d601f19601f8201168201806040525081019061081c9190611e10565b10158015610895575060405163e985e9c560e01b81526001600160a01b03868116600483015230602483015287169063e985e9c590604401602060405180830381865afa158015610871573d6000803e3d6000fd5b505050506040513d601f19601f820116820180604052508101906108959190611e29565b6108db5760405162461bcd60e51b8152602060048201526017602482015276139bdd0818985b185b98d9481bdc88185c1c1c9bdd9959604a1b60448201526064016103b5565b8383828181106108ed576108ed611dc2565b61090392602060609092020190810191506118f4565b6001600160a01b0316856001600160a01b0316876001600160a01b03167fa9f0deecaf199b4606e18b33260590c22f3d317bb0abcb3c5841577de5da38f787878681811061095357610953611dc2565b9050606002016020013588888781811061096f5761096f611dc2565b90506060020160400135604051610990929190918252602082015260400190565b60405180910390a45b60010161069d565b5050600160055550505050565b60ce54604051627eeac760e11b81526001600160a01b038781166004830152600060248301529091169062fdd58e90604401602060405180830381865afa1580156109fd573d6000803e3d6000fd5b505050506040513d601f19601f82011682018060405250810190610a219190611e10565b15610a635760405162461bcd60e51b8152602060048201526012602482015271105b1c9958591e48185a5c991c9bdc1c195960721b60448201526064016103b5565b8060005b81811015610d6b57856001600160a01b031663f242432a86868685818110610a9157610a91611dc2565b610aa792602060609092020190810191506118f4565b878786818110610ab957610ab9611dc2565b90506060020160200135888887818110610ad557610ad5611dc2565b905060600201604001356040518563ffffffff1660e01b8152600401610afe9493929190611dd8565b600060405180830381600087803b158015610b1857600080fd5b505af1925050508015610b29575060015b610d6357838382818110610b3f57610b3f611dc2565b90506060020160400135866001600160a01b031662fdd58e87878786818110610b6a57610b6a611dc2565b905060600201602001356040518363ffffffff1660e01b8152600401610ba59291906001600160a01b03929092168252602082015260400190565b602060405180830381865afa158015610bc2573d6000803e3d6000fd5b505050506040513d601f19601f82011682018060405250810190610be69190611e10565b10158015610c5f575060405163e985e9c560e01b81526001600160a01b03868116600483015230602483015287169063e985e9c590604401602060405180830381865afa158015610c3b573d6000803e3d6000fd5b505050506040513d601f19601f82011682018060405250810190610c5f9190611e29565b610ca55760405162461bcd60e51b8152602060048201526017602482015276139bdd0818985b185b98d9481bdc88185c1c1c9bdd9959604a1b60448201526064016103b5565b838382818110610cb757610cb7611dc2565b610ccd92602060609092020190810191506118f4565b6001600160a01b0316856001600160a01b0316876001600160a01b03167fa9f0deecaf199b4606e18b33260590c22f3d317bb0abcb3c5841577de5da38f7878786818110610d1d57610d1d611dc2565b90506060020160200135888887818110610d3957610d39611dc2565b90506060020160400135604051610d5a929190918252602082015260400190565b60405180910390a45b600101610a67565b50505050505050565b60008281526004602052604081205481805b82811015610e595760008681526004602090815260408083208484526001019091529020546001600160a01b031615610e0257848203610df05760008681526004602090815260408083209383526001909301905220546001600160a01b03169250610e5d915050565b610dfb600183611e61565b9150610e47565b610e0d866000610e63565b8015610e345750600086815260046020908152604080832083805260020190915290205481145b15610e4757610e44600183611e61565b91505b610e52600182611e61565b9050610d86565b5050505b92915050565b60009182526002602090815260408084206001600160a01b0393909316845291905290205460ff1690565b610e966114a9565b610ed35760405162461bcd60e51b815260206004820152600e60248201526d139bdd08185d5d1a1bdc9a5e995960921b60448201526064016103b5565b6103c78161139c565b600082815260026020908152604080832083805290915281205460ff16610f29575060008281526002602090815260408083206001600160a01b038516845290915290205460ff16610e5d565b50600192915050565b60608167ffffffffffffffff811115610f4d57610f4d61195a565b604051908082528060200260200182016040528015610f8057816020015b6060815260200190600190039081610f6b5790505b50905060005b8281101561102057610ff030858584818110610fa457610fa4611dc2565b9050602002810190610fb69190611e74565b8080601f0160208091040260200160405190810160405280939291908181526020018383808284376000920191909152506114b792505050565b82828151811061100257611002611dc2565b6020026020010181905250808061101890611ebb565b915050610f86565b5092915050565b600081815260046020526040812054815b8181101561108b5760008481526004602090815260408083208484526001019091529020546001600160a01b03161561107957611076600184611e61565b92505b611084600182611e61565b9050611038565b50611097836000610e63565b156110aa576110a7600183611e61565b91505b50919050565b6000828152600360205260409020546104bc9033611222565b600180546110d690611ed4565b80601f016020809104026020016040519081016040528092919081815260200182805461110290611ed4565b801561114f5780601f106111245761010080835404028352916020019161114f565b820191906000526020600020905b81548152906001019060200180831161113257829003601f168201915b505050505081565b6001600160a01b03163b151590565b3360009081526069602052604081205460ff161561118b575060131936013560601c90565b503390565b905090565b3390565b6000611190611166565b60006111b760cd546001600160a01b031690565b6001600160a01b0316336001600160a01b031614905090565b60cd80546001600160a01b038381166001600160a01b0319831681179093556040519116919082907f8292fce18fa69edf4db7b94ea2e58241df0ae57f97e0a6c9b29067028bf92d7690600090a35050565b60008281526002602090815260408083206001600160a01b038516845290915290205460ff1661046057611260816001600160a01b031660146115ab565b61126b8360206115ab565b60405160200161127c929190611f08565b60408051601f198184030181529082905262461bcd60e51b82526103b591600401611daf565b6112ac828261174e565b61046082826117a9565b6112c08282611816565b60008281526004602090815260408083206001600160a01b03851680855260028201808552838620805487526001909301855292852080546001600160a01b031916905584529152555050565b600054610100900460ff166113345760405162461bcd60e51b81526004016103b590611f75565b60005b81518110156104605760016069600084848151811061135857611358611dc2565b6020908102919091018101516001600160a01b03168252810191909152604001600020805460ff19169115159190911790558061139481611ebb565b915050611337565b6000600180546113ab90611ed4565b80601f01602080910402602001604051908101604052809291908181526020018280546113d790611ed4565b80156114245780601f106113f957610100808354040283529160200191611424565b820191906000526020600020905b81548152906001019060200180831161140757829003601f168201915b50505050509050816001908161143a919061200f565b507fc9c7c3fe08b88b4df9d4d47ef47d2c43d55c025a0ba88ca442580ed9e7348a16818360405161146c9291906120cf565b60405180910390a15050565b600054610100900460ff1661149f5760405162461bcd60e51b81526004016103b590611f75565b6114a7611878565b565b600061119081610277611199565b60606001600160a01b0383163b61151f5760405162461bcd60e51b815260206004820152602660248201527f416464726573733a2064656c65676174652063616c6c20746f206e6f6e2d636f6044820152651b9d1c9858dd60d21b60648201526084016103b5565b600080846001600160a01b03168460405161153a91906120f4565b600060405180830381855af49150503d8060008114611575576040519150601f19603f3d011682016040523d82523d6000602084013e61157a565b606091505b50915091506115a2828260405180606001604052806027815260200161213f602791396118a6565b95945050505050565b606060006115ba836002612110565b6115c5906002611e61565b67ffffffffffffffff8111156115dd576115dd61195a565b6040519080825280601f01601f191660200182016040528015611607576020820181803683370190505b509050600360fc1b8160008151811061162257611622611dc2565b60200101906001600160f81b031916908160001a905350600f60fb1b8160018151811061165157611651611dc2565b60200101906001600160f81b031916908160001a9053506000611675846002612110565b611680906001611e61565b90505b60018111156116f8576f181899199a1a9b1b9c1cb0b131b232b360811b85600f16601081106116b4576116b4611dc2565b1a60f81b8282815181106116ca576116ca611dc2565b60200101906001600160f81b031916908160001a90535060049490941c936116f181612127565b9050611683565b5083156117475760405162461bcd60e51b815260206004820181905260248201527f537472696e67733a20686578206c656e67746820696e73756666696369656e7460448201526064016103b5565b9392505050565b60008281526002602090815260408083206001600160a01b0385168085529252808320805460ff1916600117905551339285917f2f8788117e7eff1d82e926ec794901d17c78024a50270940304540a733656f0d9190a45050565b6000828152600460205260408120805491600191906117c88385611e61565b9091555050600092835260046020908152604080852083865260018101835281862080546001600160a01b039096166001600160a01b03199096168617905593855260029093019052912055565b6118208282611222565b60008281526002602090815260408083206001600160a01b0385168085529252808320805460ff1916905551339285917ff6391f5c32d9c69d2a47ea670b442974b53935d1edc7fd64eb21e047a839171b9190a45050565b600054610100900460ff1661189f5760405162461bcd60e51b81526004016103b590611f75565b6001600555565b606083156118b5575081611747565b8251156118c55782518084602001fd5b8160405162461bcd60e51b81526004016103b59190611daf565b6001600160a01b03811681146103c757600080fd5b60006020828403121561190657600080fd5b8135611747816118df565b60006020828403121561192357600080fd5b5035919050565b6000806040838503121561193d57600080fd5b82359150602083013561194f816118df565b809150509250929050565b634e487b7160e01b600052604160045260246000fd5b604051601f8201601f1916810167ffffffffffffffff811182821017156119995761199961195a565b604052919050565b600082601f8301126119b257600080fd5b813567ffffffffffffffff8111156119cc576119cc61195a565b6119df601f8201601f1916602001611970565b8181528460208386010111156119f457600080fd5b816020850160208301376000918101602001919091529392505050565b600080600060608486031215611a2657600080fd5b8335611a31816118df565b925060208481013567ffffffffffffffff80821115611a4f57600080fd5b611a5b888389016119a1565b94506040870135915080821115611a7157600080fd5b818701915087601f830112611a8557600080fd5b813581811115611a9757611a9761195a565b8060051b9150611aa8848301611970565b818152918301840191848101908a841115611ac257600080fd5b938501935b83851015611aec5784359250611adc836118df565b8282529385019390850190611ac7565b8096505050505050509250925092565b60008083601f840112611b0e57600080fd5b50813567ffffffffffffffff811115611b2657600080fd5b602083019150836020606083028501011115611b4157600080fd5b9250929050565b60008060008060608587031215611b5e57600080fd5b8435611b69816118df565b93506020850135611b79816118df565b9250604085013567ffffffffffffffff811115611b9557600080fd5b611ba187828801611afc565b95989497509550505050565b600080600080600060808688031215611bc557600080fd5b8535611bd0816118df565b94506020860135611be0816118df565b93506040860135611bf0816118df565b9250606086013567ffffffffffffffff811115611c0c57600080fd5b611c1888828901611afc565b969995985093965092949392505050565b60008060408385031215611c3c57600080fd5b50508035926020909101359150565b600060208284031215611c5d57600080fd5b813567ffffffffffffffff811115611c7457600080fd5b611c80848285016119a1565b949350505050565b60008060208385031215611c9b57600080fd5b823567ffffffffffffffff80821115611cb357600080fd5b818501915085601f830112611cc757600080fd5b813581811115611cd657600080fd5b8660208260051b8501011115611ceb57600080fd5b60209290920196919550909350505050565b60005b83811015611d18578181015183820152602001611d00565b50506000910152565b60008151808452611d39816020860160208601611cfd565b601f01601f19169290920160200192915050565b6000602080830181845280855180835260408601915060408160051b870101925083870160005b82811015611da257603f19888603018452611d90858351611d21565b94509285019290850190600101611d74565b5092979650505050505050565b6020815260006117476020830184611d21565b634e487b7160e01b600052603260045260246000fd5b6001600160a01b0394851681529290931660208301526040820152606081019190915260a06080820181905260009082015260c00190565b600060208284031215611e2257600080fd5b5051919050565b600060208284031215611e3b57600080fd5b8151801515811461174757600080fd5b634e487b7160e01b600052601160045260246000fd5b80820180821115610e5d57610e5d611e4b565b6000808335601e19843603018112611e8b57600080fd5b83018035915067ffffffffffffffff821115611ea657600080fd5b602001915036819003821315611b4157600080fd5b600060018201611ecd57611ecd611e4b565b5060010190565b600181811c90821680611ee857607f821691505b6020821081036110aa57634e487b7160e01b600052602260045260246000fd5b7402832b936b4b9b9b4b7b7399d1030b1b1b7bab73a1605d1b815260008351611f38816015850160208801611cfd565b7001034b99036b4b9b9b4b733903937b6329607d1b6015918401918201528351611f69816026840160208801611cfd565b01602601949350505050565b6020808252602b908201527f496e697469616c697a61626c653a20636f6e7472616374206973206e6f74206960408201526a6e697469616c697a696e6760a81b606082015260800190565b601f82111561200a57600081815260208120601f850160051c81016020861015611fe75750805b601f850160051c820191505b8181101561200657828155600101611ff3565b5050505b505050565b815167ffffffffffffffff8111156120295761202961195a565b61203d816120378454611ed4565b84611fc0565b602080601f831160018114612072576000841561205a5750858301515b600019600386901b1c1916600185901b178555612006565b600085815260208120601f198616915b828110156120a157888601518255948401946001909101908401612082565b50858210156120bf5787850151600019600388901b60f8161c191681555b5050505050600190811b01905550565b6040815260006120e26040830185611d21565b82810360208401526115a28185611d21565b60008251612106818460208701611cfd565b9190910192915050565b8082028115828204841417610e5d57610e5d611e4b565b60008161213657612136611e4b565b50600019019056fe416464726573733a206c6f772d6c6576656c2064656c65676174652063616c6c206661696c6564a2646970667358221220da958d0072fb98c89421b21a036a208cc2a27206703b4ef25b90c923a85a27e964736f6c63430008110033",
  "linkReferences": {},
  "deployedLinkReferences": {}
}